{
  "transactions": [
    {
      "hash": "0x9db4da8403628a0ab94f3a0db1a9872f890e4c2d2681ce236ce4dacf3da628f7",
      "transactionType": "CREATE",
      "contractName": "World",
      "contractAddress": "0xfd3fc9786b604c9a9ac23fb1586840b9bff3bdff",
      "function": null,
      "arguments": null,
      "transaction": {
        "from": "0xa3327d90d087cdddfb99e598e50b5bdee7fc55bd",
        "to": null,
        "value": "0x0",
        "input": "0x6080806040523460de5760017f9b779b17422d0df92223018b32b4d1fa46e071723d6817e2486d003becc55f0055331560cb57600180546001600160a01b03199081169091555f805433928116831782557f2ff4f36f7bcd5d4c260c49696c9d2b7c01d486e2d5ef32b48da03461a743dfe893602093909290916001600160a01b0316907f8be0079c531659141344cd1fd0a4f28419497f9722a3daafe3b4186f6b6457e09080a36d6e657875732e776f726c642e763160901b8152a160405161126590816100e38239f35b631e4fbdf760e01b5f525f60045260245ffd5b5f80fdfe60806040526004361015610011575f80fd5b5f3560e01c806301b9b47c146101545780631a6aae401461014f57806323e8492c1461014a57806334be086f146101455780633ae7af0814610140578063505a181d1461013b57806364260f6914610136578063715018a61461013157806379ba50971461012c5780637da0a8771461012757806388eea6f1146101225780638da5cb5b1461011d5780638e50f019146101185780638f1ac17514610113578063cc49db7e1461010e578063da74222814610109578063e06c193914610104578063e06f8741146100ff578063e30c3978146100fa5763f2fde38b146100f5575f80fd5b610bd1565b610ba9565b610b28565b610a80565b6109cf565b61093a565b6108c6565b610888565b610861565b6107e4565b6107bc565b610737565b6106d4565b6106a5565b610570565b6103f0565b610298565b610236565b6101b0565b34610180575f366003190112610180576040516d6e657875732e776f726c642e763160901b8152602090f35b5f80fd5b602435906001600160a01b038216820361018057565b600435906001600160a01b038216820361018057565b34610180576040366003190112610180576004356101cc610184565b6101d4611198565b6001600160a01b0316908115610227575f81815260036020526040812080546001600160a01b031916841790557fabe1e2e80b5aa04850ff2ee6b99521af71175d49133ecbf7c9e790f6c92c980a9080a3005b6319c0958960e01b5f5260045ffd5b34610180576020366003190112610180576004355f526003602052602060018060a01b0360405f205416604051908152f35b9181601f84011215610180578235916001600160401b038311610180576020808501948460051b01011161018057565b34610180576080366003190112610180576004356024356044356064356001600160401b038111610180576102d1903690600401610268565b92906102db611198565b845f52600260205260ff60405f205416610378577f27b93ae2f1d204f7d28eaeab23952d8f33aedaa7b17dfbbe85ac96286df3be15936103739161036760405161032481610c57565b60018152856020820152866040820152885f52600260205260405f209060406002918051151560ff80198654169116178455602081015160018501550151910155565b60405194859485610cb8565b0390a2005b84631779e62d60e01b5f5260045260245ffd5b9181601f84011215610180578235916001600160401b038311610180576020838186019501011161018057565b805180835260209291819084018484015e5f828201840152601f01601f1916010190565b9060206103ed9281815201906103b8565b90565b34610180576040366003190112610180576004356024356001600160401b0381116101805761042390369060040161038b565b60027f9b779b17422d0df92223018b32b4d1fa46e071723d6817e2486d003becc55f00939293541461052e5760027f9b779b17422d0df92223018b32b4d1fa46e071723d6817e2486d003becc55f00555f828152600360205260409020546001600160a01b031691821561051c575f80848682866104c56104a26111ab565b916104b7604051938492602084019788610d57565b03601f198101835282610c77565b51925af16104d1610d7a565b9015610514576105109061050460017f9b779b17422d0df92223018b32b4d1fa46e071723d6817e2486d003becc55f0055565b604051918291826103dc565b0390f35b602081519101fd5b63c6c0143760e01b5f5260045260245ffd5b633ee5aeb560e01b5f5260045ffd5b9060406003198301126101805760043591602435906001600160401b0382116101805761056c91600401610268565b9091565b346101805761057e3661053d565b906105a261059e610597855f52600260205260405f2090565b5460ff1690565b1590565b610691576105d361059e6105976105c1865f52600860205260405f2090565b335f9081526020919091526040902090565b61067957908161066a61066061060a847f0e1f72f429eb97e64878619984a91e687ae91610348b9ff4216782cc96e49d07966111f1565b610635610630826106238a5f52600460205260405f2090565b905f5260205260405f2090565b610e06565b61064e610630826106238a5f52600560205260405f2090565b610623875f52600660205260405f2090565b805460ff19169055565b61037360405192839283610e8a565b6324a2ac1960e01b5f5260048390523360245260445ffd5b632fa7919d60e01b5f52600483905260245ffd5b34610180576020366003190112610180576004355f526002602052602060ff60405f2054166040519015158152f35b34610180575f366003190112610180576106ec611198565b600180546001600160a01b03199081169091555f80549182168155906001600160a01b03167f8be0079c531659141344cd1fd0a4f28419497f9722a3daafe3b4186f6b6457e08280a3005b34610180575f36600319011261018057600154336001600160a01b03909116036107a957600180546001600160a01b03199081169091555f805433928116831782556001600160a01b0316907f8be0079c531659141344cd1fd0a4f28419497f9722a3daafe3b4186f6b6457e09080a3005b63118cdaa760e01b5f523360045260245ffd5b34610180575f366003190112610180576007546040516001600160a01b039091168152602090f35b3461018057604036600319011261018057600435610800610184565b610808611198565b5f8281526008602090815260408083206001600160a01b03851684529091529020805460ff191690556001600160a01b0316907fb8e0d7351489acd9da4456b5acdd3672b9d3f8d48155f59b3763284be3c60f1b5f80a3005b34610180575f366003190112610180575f546040516001600160a01b039091168152602090f35b34610180576108ad6108993661053d565b9092915f52600660205260405f20926111f1565b5f52602052602060ff60405f2054166040519015158152f35b3461018057604036600319011261018057602060ff6109096004356108e9610184565b905f526008845260405f209060018060a01b03165f5260205260405f2090565b54166040519015158152f35b909161092c6103ed936040845260408401906103b8565b9160208184039101526103b8565b34610180576109483661053d565b90825f52600260205260ff60405f205416156109bc576109a06109716109ac936109a6936111f1565b845f52600460205260405f20815f5260205260405f20945f52600560205260405f20905f5260205260405f2090565b92610e9b565b91610e9b565b9061051060405192839283610915565b82632fa7919d60e01b5f5260045260245ffd5b34610180576020366003190112610180576109e861019a565b6109f0611198565b600754906001600160a01b038216610a43576001600160a01b03166001600160a01b03199190911681176007557f5c8f05824c40a2cedd1ec7245f574909327c72a46448be0e4c12bcb4f5bf42c05f80a2005b60405162461bcd60e51b8152602060048201526015602482015274199bdc9dd85c99195c88185b1c9958591e481cd95d605a1b6044820152606490fd5b3461018057604036600319011261018057600435610a9c610184565b610aa4611198565b815f52600260205260ff60405f20541615610b15575f8281526008602090815260408083206001600160a01b03851684529091529020805460ff191660011790556001600160a01b0316907f87675c9926489679e8472a7ecfddd7f514ac1c6a0134118dcab3db14f581f11a5f80a3005b50632fa7919d60e01b5f5260045260245ffd5b34610180576080366003190112610180576004356024356001600160401b03811161018057610b5b903690600401610268565b916044356001600160401b03811161018057610b7b90369060040161038b565b90606435946001600160401b03861161018057610b9f610ba796369060040161038b565b95909461107e565b005b34610180575f366003190112610180576001546040516001600160a01b039091168152602090f35b3461018057602036600319011261018057610bea61019a565b610bf2611198565b60018060a01b0316806bffffffffffffffffffffffff60a01b600154161760015560018060a01b035f54167f38d16b8cac22d99fc7c124b9cd0de2d3fa1faef420bfe791d8c362d765e227005f80a3005b634e487b7160e01b5f52604160045260245ffd5b606081019081106001600160401b03821117610c7257604052565b610c43565b90601f801991011681019081106001600160401b03821117610c7257604052565b908060209392818452848401375f828201840152601f01601f1916010190565b93919082916060860191865260208601526060604086015252608083019060808160051b85010193835f91601e1982360301905b848410610cfd575050505050505090565b90919293949596607f1982820301875287358381121561018057840190602082359201916001600160401b03811161018057803603831361018057610d486020928392600195610c98565b99019701959401929190610cec565b826014949392823701906bffffffffffffffffffffffff199060601b1681520190565b3d15610db3573d906001600160401b038211610c725760405191610da8601f8201601f191660200184610c77565b82523d5f602084013e565b606090565b90600182811c92168015610de6575b6020831014610dd257565b634e487b7160e01b5f52602260045260245ffd5b91607f1691610dc7565b818110610dfb575050565b5f8155600101610df0565b610e108154610db8565b9081610e1a575050565b81601f5f9311600114610e2c5750555b565b81835260208320610e4891601f0160051c810190600101610df0565b808252602082209081548360011b9084198560031b1c191617905555565b81835290916001600160fb1b0383116101805760209260051b809284830137010190565b9160206103ed938181520191610e66565b9060405191825f825492610eae84610db8565b8084529360018116908115610f175750600114610ed3575b50610e2a92500383610c77565b90505f9291925260205f20905f915b818310610efb575050906020610e2a928201015f610ec6565b6020919350806001915483858901015201910190918492610ee2565b905060209250610e2a94915060ff191682840152151560051b8201015f610ec6565b9190601f8111610f4857505050565b610e2a925f5260205f20906020601f840160051c83019310610f72575b601f0160051c0190610df0565b9091508190610f65565b9092916001600160401b038111610c7257610fa181610f9b8454610db8565b84610f39565b5f601f8211600114610fdf578190610fd09394955f92610fd4575b50508160011b915f199060031b1c19161790565b9055565b013590505f80610fbc565b601f19821694610ff2845f5260205f2090565b915f5b87811061102c575083600195969710611013575b505050811b019055565b01355f19600384901b60f8161c191690555f8080611009565b90926020600181928686013581550194019101610ff5565b949290936110626103ed979561107094606089526060890191610e66565b918683036020880152610c98565b926040818503910152610c98565b959294919493909360ff61109a885f52600260205260405f2090565b541615611185576110c160ff6110bb6105c18a5f52600860205260405f2090565b54161590565b61116d579183916111689361115c61114f61062361113d8a998761112a8f7f4152a3ff4b6805e40a4f8c241bcc539b19cfde7c8e2ab2c23b79b83ad875d7879f9e8f61110c916111f1565b958161112f8c8c61112a8b61062381985f52600460205260405f2090565b610f7c565b5f52600560205260405f2090565b6106238c5f52600660205260405f2090565b805460ff19166001179055565b60405196879687611044565b0390a2565b6324a2ac1960e01b5f5260048790523360245260445ffd5b86632fa7919d60e01b5f5260045260245ffd5b5f546001600160a01b031633036107a957565b60018060a01b036007541680331490816111e7575b50806111dc575b156111d85736601319013560601c90565b3390565b5060143610156111c7565b905015155f6111c0565b604051602081019290916001600160fb1b03821161018057826020916112299360051b8091873781010301601f198101835282610c77565b5190209056fea2646970667358221220bd22b5c2839fbae51932889fc206e7b9de9030697ff6ea6dc0952a391808701764736f6c634300081b0033",
        "nonce": "0x43",
        "chainId": "0x14a34"
      },
      "additionalContracts": [],
      "isFixedGasLimit": false
    },
    {
      "hash": "0xd12ad593a4d716fb5f45dfa5ba6f9ffdbcb0e8a368812ce5a4c0daccfcf0885f",
      "transactionType": "CREATE",
      "contractName": "NexusDelegationManager",
      "contractAddress": "0xc5b06bef762f8e16a0b6a84eba297ca82674c89f",
      "function": null,
      "arguments": null,
      "transaction": {
        "from": "0xa3327d90d087cdddfb99e598e50b5bdee7fc55bd",
        "to": null,
        "value": "0x0",
        "input": "0x6080806040523460395760017f9b779b17422d0df92223018b32b4d1fa46e071723d6817e2486d003becc55f0055610f6a908161003e8239f35b5f80fdfe60806040526004361015610011575f80fd5b5f3560e01c806320a99259146100845780633ab351411461007f578063c66f57751461007a578063cef6d20914610075578063e7a324dc14610070578063f698da251461006b5763f6a0d60e14610066575f80fd5b6106ac565b610692565b610658565b610177565b61010d565b6100e4565b346100ad5760206100a56100a03661009b366100b1565b6108b2565b610a4c565b604051908152f35b5f80fd5b60206003198201126100ad57600435906001600160401b0382116100ad5760e09082900360031901126100ad5760040190565b346100ad5760206100a56100fe6100a03661009b366100b1565b610bd5565b5f9103126100ad57565b346100ad575f3660031901126100ad5760206040517f0ac12fd0d048a93db567c251b7987a4a005aa4fb208af047aa3e7ef45fbde44a8152f35b9181601f840112156100ad578235916001600160401b0383116100ad576020808501948460051b0101116100ad57565b346100ad5760603660031901126100ad576004356001600160401b0381116100ad576101a7903690600401610147565b906024356001600160401b0381116100ad576101c7903690600401610147565b926044356001600160401b0381116100ad576101e7903690600401610147565b92909160027f9b779b17422d0df92223018b32b4d1fa46e071723d6817e2486d003becc55f0054146106495760027f9b779b17422d0df92223018b32b4d1fa46e071723d6817e2486d003becc55f005585811480159061063f575b610630575f5b81811061027a5761027860017f9b779b17422d0df92223018b32b4d1fa46e071723d6817e2486d003becc55f0055565b005b61028581838861095e565b908883101561062b578260051b850135906102af6102a4858a8a61095e565b929094810190610c08565b9060408201518061061a57506102c482610a4c565b926102dc6102d185610bd5565b60c085015190610d89565b60208401805190949190610300906001600160a01b03165b6001600160a01b031690565b6001600160a01b039091160361060b5780516001600160a01b03168015158181610600575b506105e1575060a081018051156105d257610347865f525f60205260405f2090565b54905111156105be57606090610364865f525f60205260405f2090565b61036e8154610c30565b90550194855151915f5b838110610520575061038a8483610d9f565b9091809a939a6105115788516040515f94859460208301936103ca9284926103bc926001600160a01b03169187610d0a565b03601f198101835282610709565b51918c5af16103d7610d2d565b90156104f357505f5b84811061044a5750509351600197969594506001600160a01b039350831691506104079050565b6040516001600160a01b039490941684523393911691907fe9722854338cd73cea002385d9c62274a72c2b221ec88de41046ffbcb808041190602090a401610248565b610455818351610c52565b51805190919061046f906102f4906001600160a01b031681565b602083015160409093015189516001600160a01b03169391803b156100ad57865f89936104ba8f968e9984986040519b8c998a98899763d3eddcc560e01b8952339660048a01610c8a565b03925af19182156104ee576001926104d4575b50016103e0565b806104e25f6104e893610709565b80610103565b5f6104cd565b610cff565b80511561050257602081519101fd5b632b3f6d1160e21b5f5260045ffd5b63ce3f0ecf60e01b5f5260045ffd5b61052b818951610c52565b518051909190610545906102f4906001600160a01b031681565b602083015160409093015188516001600160a01b03169391803b156100ad57855f889361059082968f998e9a6040519b8c998a9889976350a2c19560e11b8952339660048a01610c8a565b03925af19182156104ee576001926105aa575b5001610378565b806104e25f6105b893610709565b5f6105a3565b639963a38560e01b5f52600485905260245ffd5b630119741f60e71b5f5260045ffd5b6377eecd4b60e01b5f526001600160a01b03166004523360245260445ffd5b90503314155f610325565b63dc176d7560e01b5f5260045ffd5b6259164d60e21b5f5260045260245ffd5b61094a565b6305f8ded760e21b5f5260045ffd5b5083861415610242565b633ee5aeb560e01b5f5260045ffd5b346100ad575f3660031901126100ad5760206040517f39441c1b080a193e9695c122526cd6d53a221f04a4a0989b105a37477b4f9d138152f35b346100ad575f3660031901126100ad5760206100a561099f565b346100ad5760203660031901126100ad576004355f525f602052602060405f2054604051908152f35b634e487b7160e01b5f52604160045260245ffd5b606081019081106001600160401b0382111761070457604052565b6106d5565b90601f801991011681019081106001600160401b0382111761070457604052565b6040519061073960e083610709565b565b35906001600160a01b03821682036100ad57565b6001600160401b0381116107045760051b60200190565b6001600160401b03811161070457601f01601f191660200190565b81601f820112156100ad5780359061079882610766565b926107a66040519485610709565b828452602083830101116100ad57815f926020809301838601378301015290565b9080601f830112156100ad578135916107df8361074f565b926107ed6040519485610709565b80845260208085019160051b830101918383116100ad5760208101915b83831061081957505050505090565b82356001600160401b0381116100ad578201906060828703601f1901126100ad5760405190610847826106e9565b6108536020840161073b565b825260408301356001600160401b0381116100ad5787602061087792860101610781565b60208301526060830135916001600160401b0383116100ad576108a288602080969581960101610781565b604082015281520192019161080a565b91909160e0818403126100ad576108c761072a565b926108d18261073b565b84526108df6020830161073b565b60208501526040820135604085015260608201356001600160401b0381116100ad578161090d9184016107c7565b60608501526080820135608085015260a082013560a085015260c08201356001600160401b0381116100ad576109439201610781565b60c0830152565b634e487b7160e01b5f52603260045260245ffd5b919081101561062b5760051b81013590601e19813603018212156100ad5701908135916001600160401b0383116100ad5760200182360381136100ad579190565b60406015602082516109b18482610709565b82815201742732bc3ab99023b0b6b2902232b632b3b0ba34b7b760591b815220610a466001602084516109e48682610709565b828152603160f81b91019081522083517f8b73c3c69bb8fe3d512ecc4cf759cc79239f7b179b0ffacaa9a75d522b39400f60208083019182526040830195909552948101909301524660808301523060a080840191909152825260c082610709565b51902090565b805160208201516040830151606084015180519095909390926001600160a01b03918216929116610a7c8561074f565b94610a8a6040519687610709565b808652610a99601f199161074f565b013660208701375f5b8751811015610b395780610ab86001928a610c52565b51828060a01b03815116906040602082015160208151910120910151602081519101206040519160208301937f0ac12fd0d048a93db567c251b7987a4a005aa4fb208af047aa3e7ef45fbde44a855260408401526060830152608082015260808152610b2560a082610709565b519020610b328289610c52565b5201610aa2565b509194610a469396506103bc9194604051610b5c816103bc602082018095610d5c565b5190209060a060808201519101519160405196879560208701998a9260c094919796959260e08501987f39441c1b080a193e9695c122526cd6d53a221f04a4a0989b105a37477b4f9d13865260018060a01b0316602086015260018060a01b031660408501526060840152608083015260a08201520152565b610bdd61099f565b9060405190602082019261190160f01b84526022830152604282015260428152610a46606282610709565b906020828203126100ad5781356001600160401b0381116100ad57610c2d92016108b2565b90565b9060018201809211610c3e57565b634e487b7160e01b5f52601160045260245ffd5b805182101561062b5760209160051b010190565b805180835260209291819084018484015e5f828201840152601f01601f1916010190565b96939460c096999895610cba60209594610cad849560e08d5260e08d0190610c66565b908b8203888d0152610c66565b9360408a015288840360608a0152818452848401375f838284010152601f8019910116010195608085015260018060a01b031660a084015260018060a01b0316910152565b6040513d5f823e3d90fd5b826014949392823701906bffffffffffffffffffffffff199060601b1681520190565b3d15610d57573d90610d3e82610766565b91610d4c6040519384610709565b82523d5f602084013e565b606090565b80516020909101905f5b818110610d735750505090565b8251845260209384019390920191600101610d66565b610c2d91610d9691610dde565b90929192610e36565b9060348110610dcf57806014116100ad57813560601c92816034116100ad57601483013592603401916033190190565b6304bc946d60e21b5f5260045ffd5b8151919060418303610e0e57610e079250602082015190606060408401519301515f1a90610eb2565b9192909190565b50505f9160029190565b60041115610e2257565b634e487b7160e01b5f52602160045260245ffd5b610e3f81610e18565b80610e48575050565b610e5181610e18565b60018103610e685763f645eedf60e01b5f5260045ffd5b610e7181610e18565b60028103610e8c575063fce698f760e01b5f5260045260245ffd5b80610e98600392610e18565b14610ea05750565b6335e2f38360e21b5f5260045260245ffd5b91907f7fffffffffffffffffffffffffffffff5d576e7357a4501ddfe92f46681b20a08411610f29579160209360809260ff5f9560405194855216868401526040830152606082015282805260015afa156104ee575f516001600160a01b03811615610f1f57905f905f90565b505f906001905f90565b5050505f916003919056fea26469706673582212205b11c577b5ebcbb4e0de166de22dfca821293c5a957aa1af682b73c2df44e4fb64736f6c634300081b0033",
        "nonce": "0x44",
        "chainId": "0x14a34"
      },
      "additionalContracts": [],
      "isFixedGasLimit": false
    },
    {
      "hash": "0x8a62e06b46233ac8a4bbf908b43956e4393c5d5a9f95cdc0f6fbe2e6f4978769",
      "transactionType": "CREATE",
      "contractName": "TurnManager",
      "contractAddress": "0xbbc9426ef84aec0d516b48e58fbad22cea765274",
      "function": null,
      "arguments": ["0xA3327d90d087cdddfB99E598E50B5Bdee7fC55bD"],
      "transaction": {
        "from": "0xa3327d90d087cdddfb99e598e50b5bdee7fc55bd",
        "to": null,
        "value": "0x0",
        "input": "0x608034608657601f610c4f38819003918201601f19168301916001600160401b03831184841017608a57808492602094604052833981010312608657516001600160a01b03811690819003608657600180546001600160a01b031916821781555f9182526002602052604091829020805460ff1916909117905551610bb0908161009f8239f35b5f80fd5b634e487b7160e01b5f52604160045260245ffdfe60806040526004361015610011575f80fd5b5f3560e01c806308148f7a146108865780632d1fb389146107ff5780634e0f5cc81461078a578063592139fa1461040857806371d6ddd6146103585780637fafd198146102785780639acda3bb14610251578063b55991c0146101f6578063b9181611146101b9578063bdc0b893146100fe578063ddc2a251146100c95763f851a4401461009d575f80fd5b346100c5575f3660031901126100c5576001546040516001600160a01b039091168152602090f35b5f80fd5b346100c55760203660031901126100c5576004355f526003602052602060018060a01b0360405f205460081c16604051908152f35b346100c55760403660031901126100c557600435602435805f0b908181036100c557335f52600260205260ff60405f205416156101aa57825f52600360205260405f209160ff835416156101975761018e6020927f8585ca6c14a7521ff67de5b6d318798eea1e29d834a7a0c90a6d9e644fc0cb48949081549060e81b60ff60e81b169060ff60e81b1916179055565b604051908152a2005b83635ef804d360e11b5f5260045260245ffd5b638744ddab60e01b5f5260045ffd5b346100c55760203660031901126100c5576001600160a01b036101da610941565b165f526002602052602060ff60405f2054166040519015158152f35b346100c55760203660031901126100c5576004355f526003602052608060405f20546040519060018060a01b038160081c1682526001600160401b038160a81c1660208301528060e81c5f0b604083015260f01c6060820152f35b346100c5575f3660031901126100c5575f546040516001600160a01b039091168152602090f35b346100c55760203660031901126100c5576004355f52600460205260405f2060405190816020825491828152019081925f5260205f20905f5b81811061033957505050829003601f01601f191682016001600160401b038111838210176103255760408181526020808352845190830181905291928392918301915f5b818110610303575050500390f35b82516001600160a01b03168452859450602093840193909201916001016102f5565b634e487b7160e01b5f52604160045260245ffd5b82546001600160a01b03168452602090930192600192830192016102b1565b346100c55760203660031901126100c557600435335f52600260205260ff60405f205416156101aa57805f52600360205260405f2060ff815416156103f5576060816103c57f60e5eb7454f554532b1c1395d15c4ccfc8a63ac174b76ad8fe87a78e8e813e4c9385610a42565b546001600160401b036040519160018060a01b038160081c1683528060f01c602084015260a81c166040820152a2005b50635ef804d360e11b5f5260045260245ffd5b346100c55760603660031901126100c5576004356024356001600160401b0381116100c557366023820112156100c5578060040135906001600160401b0382116100c5576024810190602436918460051b0101116100c5576044356001600160401b038116908181036100c557335f52600260205260ff60405f205416156101aa57831561077b57845f52600360205260ff60405f20541661076857845f52600460205260405f208054905f81558161074a575b50505f5b84811061069257506104db906001600160401b0343166109a4565b906104e58361097b565b60405160c08101908082106001600160401b038311176103255761060761ffff896105e76001600160401b03966001966040528686526020860190878060a01b031681526105ca8880604089019c169b8c81526105a260608a01948b865260808b01975f895260a08c019e8f525f52600360205261057660405f209b5115158c9060ff801983541691151516179055565b518a54610100600160a81b03191660a08d901b8d90039190911660081b610100600160a81b0316178a55565b51885467ffffffffffffffff60a81b1916911660a81b67ffffffffffffffff60a81b16178755565b51855460e89190911b60ff60e81b1660ff60e81b19909116178555565b5183546001600160f01b0316911660f01b6001600160f01b031916178255565b019151166001600160401b031982541617905560405192806040850160408652526060840192905f905b80821061066857867fa4663596238e958f20b25cc69bc3648d070a6628c207d1a233185cbd3c280ef18780888860208301520390a2005b90919384359060018060a01b0382168092036100c557602081600193829352019501920190610631565b855f52600460205260405f206106b16106ac838888610957565b61097b565b90805468010000000000000000811015610325576106d49160018201815561098f565b81546001600160a01b0393841660039290921b91821b9390911b1916919091179055600181019081811161073657600191875f52600560205260405f2061071f6106ac848a8a610957565b848060a01b03165f5260205260405f2055016104c0565b634e487b7160e01b5f52601160045260245ffd5b5f5260205f20908101905b818110156104bc575f8155600101610755565b846355dd109360e01b5f5260045260245ffd5b630ceba8cf60e01b5f5260045ffd5b346100c55760203660031901126100c5576107a3610941565b6001546001600160a01b031633036107f0575f54906001600160a01b0382166107e1576001600160a01b03166001600160a01b031991909116175f55005b63eff465d760e01b5f5260045ffd5b632ca0794560e01b5f5260045ffd5b346100c55760403660031901126100c557610818610941565b60243590811515908183036100c5576001546001600160a01b031633036107f0577ff8b32f4ee3245ed08b1112f5d0f235cd6703b644bbbc9d3d5885adabd99447bd9161018e60209260018060a01b031694855f526002845260405f209060ff801983541691151516179055565b346100c55760203660031901126100c557600435805f52600360205260405f2080549060ff82161561092e576001600160401b038260a81c1643111561091b577f51647d6db4db87608227623c4a03f901d89237aad859c019d7afdc5bacd658d9916040916108fd6108f66109c4565b9186610a42565b825160089290921c6001600160a01b039081168352166020820152a2005b82638bc1d3ab60e01b5f5260045260245ffd5b82635ef804d360e11b5f5260045260245ffd5b600435906001600160a01b03821682036100c557565b91908110156109675760051b0190565b634e487b7160e01b5f52603260045260245ffd5b356001600160a01b03811681036100c55790565b8054821015610967575f5260205f2001905f90565b906001600160401b03809116911601906001600160401b03821161073657565b5f546001600160a01b0316338114908180610a1b575b6109e45750503390565b81610a11575b5080610a06575b15610a025736601319013560601c90565b3390565b5060143610156109f1565b905015155f6109ea565b508015156109da565b8115610a2e570690565b634e487b7160e01b5f52601260045260245ffd5b5f9081526004602090815260408083208054600584528285208654600881901c6001600160a01b031687529452919093205490915f19820190828211610736575f60e89190911c810b12610b51575091610aa2610aa892610ad094610a24565b9061098f565b90548354610100600160a81b03191660039290921b1c60081b610100600160a81b0316178255565b6001815460f01c019061ffff82116107365780546001600160f01b031660f09290921b6001600160f01b031916919091178155610b4f90610b276001600160401b036001830154166001600160401b0343166109a4565b815467ffffffffffffffff60a81b191660a89190911b67ffffffffffffffff60a81b16179055565b565b9082015f190192908310610736575f19830192831161073657610aa2610aa892610ad094610a2456fea264697066735822122050f05f02d88182deb00ab70900572ddc86ecf7c2e43d27885486d9ce526849a664736f6c634300081b0033000000000000000000000000a3327d90d087cdddfb99e598e50b5bdee7fc55bd",
        "nonce": "0x45",
        "chainId": "0x14a34"
      },
      "additionalContracts": [],
      "isFixedGasLimit": false
    },
    {
      "hash": "0x1b03cce260094c1518a7206b39a63eddf4f4ee2c1e18e14de9ea98ecef421deb",
      "transactionType": "CREATE",
      "contractName": "CounterGameSystem",
      "contractAddress": "0xaecdfe909f54ce630d992509aef9efb8539ef314",
      "function": null,
      "arguments": ["0xbbC9426eF84aec0D516b48E58FBad22CEA765274"],
      "transaction": {
        "from": "0xa3327d90d087cdddfb99e598e50b5bdee7fc55bd",
        "to": null,
        "value": "0x0",
        "input": "0x60a034607f57601f61080638819003918201601f19168301916001600160401b03831184841017608357808492602094604052833981010312607f57516001600160a01b0381168103607f57608052600180546001600160a01b0319163317905560405161076e90816100988239608051818181610121015261025a0152f35b5f80fd5b634e487b7160e01b5f52604160045260245ffdfe60806040526004361015610011575f80fd5b5f3560e01c80634e0f5cc81461015057806355ed6e7b1461010c578063924ba506146100a35780639acda3bb1461007c5763f851a44014610050575f80fd5b34610078575f366003190112610078576001546040516001600160a01b039091168152602090f35b5f80fd5b34610078575f366003190112610078575f546040516001600160a01b039091168152602090f35b34610078576040366003190112610078575f546001600160a01b0316806101075750335b6001600160a01b031633036100f85760206100e6602435600435610217565b6040516001600160a01b039091168152f35b637f0cf12160e01b5f5260045ffd5b6100c7565b34610078575f366003190112610078576040517f00000000000000000000000000000000000000000000000000000000000000006001600160a01b03168152602090f35b34610078576020366003190112610078576004356001600160a01b03811690819003610078576001546001600160a01b031633036101b6575f546001600160a01b0381166101a7576001600160a01b031916175f55005b63eff465d760e01b5f5260045ffd5b63224c20bb60e01b5f5260045ffd5b6040810190811067ffffffffffffffff8211176101e157604052565b634e487b7160e01b5f52604160045260245ffd5b90601f8019910116810190811067ffffffffffffffff8211176101e157604052565b905f9160018060a01b035f541680331490816104ed575b50806104e2575b156104dc5736601319013560601c5b60405163ddc2a25160e01b8152600481018390527f00000000000000000000000000000000000000000000000000000000000000006001600160a01b031693602082602481885afa91821561045b575f92610498575b506001600160a01b038381169216829003610489576102b984336105d3565b818151101561047a578051600181018091116104665780825283602083015260405160208101918252846040820152604081526102f76060826101f5565b6102ff6104f7565b610308886106fd565b92333b15610078575f9260209161033e60405196879563e06f874160e01b875260048701526080602487015260848601906105a0565b916003198584030160448601525180918184528484015e84838284010152601f8019910116018382808584030192600319840160648701520152018183335af1801561045b57610446575b5082857fd28d5bbc013bfd0b2247837323abd27c33fe4a7c8c2136b73e52d6e8a4e66c6f60208451604051908152a351101561041c575050813b156104185782916024839260405194859384926338eb6eeb60e11b845260048401525af1801561040d579082916103f957505090565b81610403916101f5565b61040a5790565b80fd5b6040513d84823e3d90fd5b8280fd5b925092807f2908efbe7d7a75447e2621588314d1d34c2583820d66d20cfbb8272bae44cc4e91a390565b6104539197505f906101f5565b5f955f610389565b6040513d5f823e3d90fd5b634e487b7160e01b5f52601160045260245ffd5b637de2757960e11b5f5260045ffd5b630131cc4b60e31b5f5260045ffd5b9091506020813d6020116104d4575b816104b4602093836101f5565b8101031261007857516001600160a01b038116810361007857905f61029a565b3d91506104a7565b33610244565b506014361015610235565b905015155f61022e565b60408051613a3160f11b60208083019182525f60228401526621b7bab73a32b960c91b603084015282529161052c90826101f5565b519051906020811061053c575090565b5f199060200360031b1b1690565b81601f820112156100785780519067ffffffffffffffff82116101e1576040519261057f601f8401601f1916602001856101f5565b8284526020838301011161007857815f9260208093018386015e8301015290565b90602080835192838152019201905f5b8181106105bd5750505090565b82518452602093840193909201916001016105b0565b91905f61062b916040516105e6816101c5565b828152826020820152946106016105fb6104f7565b926106fd565b91604051809581948293636624edbf60e11b845260048401526040602484015260448301906105a0565b03916001600160a01b03165afa90811561045b575f9161069c575b50805115610681576040818051810103126100785760208101516040909101516001600160a01b038116908190036100785760208401528252565b509050604051610690816101c5565b5f81525f602082015290565b90503d805f833e6106ad81836101f5565b81019060408183031261007857805167ffffffffffffffff811161007857826106d791830161054a565b91602082015167ffffffffffffffff8111610078576106f6920161054a565b505f610646565b906040519161070d6040846101f5565b600183526020808401903682378351156107245752565b634e487b7160e01b5f52603260045260245ffdfea26469706673582212208df59c0b7c1dc8ac8b42afd61103ff01f4aa77972e2f9fbba85adb46d2e2384b64736f6c634300081b0033000000000000000000000000bbc9426ef84aec0d516b48e58fbad22cea765274",
        "nonce": "0x46",
        "chainId": "0x14a34"
      },
      "additionalContracts": [],
      "isFixedGasLimit": false
    },
    {
      "hash": "0xec63de1179b1081ee420c1eea57e72522b3f6f9f7f87cb0a935979451d94fa05",
      "transactionType": "CALL",
      "contractName": "World",
      "contractAddress": "0xfd3fc9786b604c9a9ac23fb1586840b9bff3bdff",
      "function": "registerTable(bytes32,bytes32,bytes32,string[])",
      "arguments": [
        "0x74620000000000000000000000000000436f756e746572000000000000000000",
        "0x0000000000000000000000000000000000000000000000000000000000000001",
        "0x0000000000000000000000000000000000000000000000000000000000000002",
        "[value, lastMover]"
      ],
      "transaction": {
        "from": "0xa3327d90d087cdddfb99e598e50b5bdee7fc55bd",
        "to": "0xfd3fc9786b604c9a9ac23fb1586840b9bff3bdff",
        "value": "0x0",
        "input": "0x34be086f74620000000000000000000000000000436f756e746572000000000000000000000000000000000000000000000000000000000000000000000000000000000100000000000000000000000000000000000000000000000000000000000000020000000000000000000000000000000000000000000000000000000000000080000000000000000000000000000000000000000000000000000000000000000200000000000000000000000000000000000000000000000000000000000000400000000000000000000000000000000000000000000000000000000000000080000000000000000000000000000000000000000000000000000000000000000576616c756500000000000000000000000000000000000000000000000000000000000000000000000000000000000000000000000000000000000000000000096c6173744d6f7665720000000000000000000000000000000000000000000000",
        "nonce": "0x47",
        "chainId": "0x14a34"
      },
      "additionalContracts": [],
      "isFixedGasLimit": false
    },
    {
      "hash": "0xd7ccc5c78a1ab54376c08ae011cf005db6f05c65da88a33dd14313dc8f774505",
      "transactionType": "CALL",
      "contractName": "World",
      "contractAddress": "0xfd3fc9786b604c9a9ac23fb1586840b9bff3bdff",
      "function": "registerSystem(bytes32,address)",
      "arguments": [
        "0x436f756e74657247616d65000000000000000000000000000000000000000000",
        "0xaEcdFE909f54cE630D992509AEF9eFb8539eF314"
      ],
      "transaction": {
        "from": "0xa3327d90d087cdddfb99e598e50b5bdee7fc55bd",
        "to": "0xfd3fc9786b604c9a9ac23fb1586840b9bff3bdff",
        "value": "0x0",
        "input": "0x1a6aae40436f756e74657247616d65000000000000000000000000000000000000000000000000000000000000000000aecdfe909f54ce630d992509aef9efb8539ef314",
        "nonce": "0x48",
        "chainId": "0x14a34"
      },
      "additionalContracts": [],
      "isFixedGasLimit": false
    },
    {
      "hash": "0xec236491eecb586d9aa6175dd8f90f8854ea6e5e9debc2a84c7d2d2da46d710e",
      "transactionType": "CALL",
      "contractName": "World",
      "contractAddress": "0xfd3fc9786b604c9a9ac23fb1586840b9bff3bdff",
      "function": "grantWriteAccess(bytes32,address)",
      "arguments": [
        "0x74620000000000000000000000000000436f756e746572000000000000000000",
        "0xaEcdFE909f54cE630D992509AEF9eFb8539eF314"
      ],
      "transaction": {
        "from": "0xa3327d90d087cdddfb99e598e50b5bdee7fc55bd",
        "to": "0xfd3fc9786b604c9a9ac23fb1586840b9bff3bdff",
        "value": "0x0",
        "input": "0xe06c193974620000000000000000000000000000436f756e746572000000000000000000000000000000000000000000aecdfe909f54ce630d992509aef9efb8539ef314",
        "nonce": "0x49",
        "chainId": "0x14a34"
      },
      "additionalContracts": [],
      "isFixedGasLimit": false
    },
    {
      "hash": "0x14df09684f73b814adabcf8c579f7a201463b38f66f0cad2ef0a86e5bab3255a",
      "transactionType": "CALL",
      "contractName": "World",
      "contractAddress": "0xfd3fc9786b604c9a9ac23fb1586840b9bff3bdff",
      "function": "setTrustedForwarder(address)",
      "arguments": ["0xc5B06BeF762F8e16A0B6A84EbA297ca82674c89f"],
      "transaction": {
        "from": "0xa3327d90d087cdddfb99e598e50b5bdee7fc55bd",
        "to": "0xfd3fc9786b604c9a9ac23fb1586840b9bff3bdff",
        "value": "0x0",
        "input": "0xda742228000000000000000000000000c5b06bef762f8e16a0b6a84eba297ca82674c89f",
        "nonce": "0x4a",
        "chainId": "0x14a34"
      },
      "additionalContracts": [],
      "isFixedGasLimit": false
    },
    {
      "hash": "0xc2b3e78ab2df902722e5836dfdd07b2e6830cc43efff767c96f83595f53e0d04",
      "transactionType": "CALL",
      "contractName": "CounterGameSystem",
      "contractAddress": "0xaecdfe909f54ce630d992509aef9efb8539ef314",
      "function": "setTrustedRouter(address)",
      "arguments": ["0xFD3Fc9786b604C9a9Ac23Fb1586840b9bfF3BDfF"],
      "transaction": {
        "from": "0xa3327d90d087cdddfb99e598e50b5bdee7fc55bd",
        "to": "0xaecdfe909f54ce630d992509aef9efb8539ef314",
        "value": "0x0",
        "input": "0x4e0f5cc8000000000000000000000000fd3fc9786b604c9a9ac23fb1586840b9bff3bdff",
        "nonce": "0x4b",
        "chainId": "0x14a34"
      },
      "additionalContracts": [],
      "isFixedGasLimit": false
    },
    {
      "hash": "0xcbdd25420c3129f3d47469a886b172e57f64a96cf8c68a4cf3d6d561fc7672b2",
      "transactionType": "CALL",
      "contractName": "TurnManager",
      "contractAddress": "0xbbc9426ef84aec0d516b48e58fbad22cea765274",
      "function": "authorize(address,bool)",
      "arguments": ["0xaEcdFE909f54cE630D992509AEF9eFb8539eF314", "true"],
      "transaction": {
        "from": "0xa3327d90d087cdddfb99e598e50b5bdee7fc55bd",
        "to": "0xbbc9426ef84aec0d516b48e58fbad22cea765274",
        "value": "0x0",
        "input": "0x2d1fb389000000000000000000000000aecdfe909f54ce630d992509aef9efb8539ef3140000000000000000000000000000000000000000000000000000000000000001",
        "nonce": "0x4c",
        "chainId": "0x14a34"
      },
      "additionalContracts": [],
      "isFixedGasLimit": false
    },
    {
      "hash": "0xb83cb01af0501d466245e97b732e199e0a9202581fa9cf0efa14022c8aebfaa3",
      "transactionType": "CALL",
      "contractName": "TurnManager",
      "contractAddress": "0xbbc9426ef84aec0d516b48e58fbad22cea765274",
      "function": "authorize(address,bool)",
      "arguments": ["0xA3327d90d087cdddfB99E598E50B5Bdee7fC55bD", "true"],
      "transaction": {
        "from": "0xa3327d90d087cdddfb99e598e50b5bdee7fc55bd",
        "to": "0xbbc9426ef84aec0d516b48e58fbad22cea765274",
        "value": "0x0",
        "input": "0x2d1fb389000000000000000000000000a3327d90d087cdddfb99e598e50b5bdee7fc55bd0000000000000000000000000000000000000000000000000000000000000001",
        "nonce": "0x4d",
        "chainId": "0x14a34"
      },
      "additionalContracts": [],
      "isFixedGasLimit": false
    },
    {
      "hash": "0x49c47b6488b357aa4f0f6b06a74c1e5341b145d77ef0ae24ae896c661d2b5f59",
      "transactionType": "CALL",
      "contractName": "TurnManager",
      "contractAddress": "0xbbc9426ef84aec0d516b48e58fbad22cea765274",
      "function": "setTrustedRouter(address)",
      "arguments": ["0xFD3Fc9786b604C9a9Ac23Fb1586840b9bfF3BDfF"],
      "transaction": {
        "from": "0xa3327d90d087cdddfb99e598e50b5bdee7fc55bd",
        "to": "0xbbc9426ef84aec0d516b48e58fbad22cea765274",
        "value": "0x0",
        "input": "0x4e0f5cc8000000000000000000000000fd3fc9786b604c9a9ac23fb1586840b9bff3bdff",
        "nonce": "0x4e",
        "chainId": "0x14a34"
      },
      "additionalContracts": [],
      "isFixedGasLimit": false
    },
    {
      "hash": "0x09eb3d5d04cfc03255e3153b8a11cee99242a0900e0eb9f43cdea37a3058635b",
      "transactionType": "CALL",
      "contractName": "TurnManager",
      "contractAddress": "0xbbc9426ef84aec0d516b48e58fbad22cea765274",
      "function": "startTurns(uint256,address[],uint64)",
      "arguments": [
        "1",
        "[0x39126DD5D983E149e4FB67e19Ce34da8e24edA76, 0xB038cd7a43c9785701A68b2cC22A0F0A7Cecb6C8]",
        "5000"
      ],
      "transaction": {
        "from": "0xa3327d90d087cdddfb99e598e50b5bdee7fc55bd",
        "to": "0xbbc9426ef84aec0d516b48e58fbad22cea765274",
        "value": "0x0",
        "input": "0x592139fa000000000000000000000000000000000000000000000000000000000000000100000000000000000000000000000000000000000000000000000000000000600000000000000000000000000000000000000000000000000000000000001388000000000000000000000000000000000000000000000000000000000000000200000000000000000000000039126dd5d983e149e4fb67e19ce34da8e24eda76000000000000000000000000b038cd7a43c9785701a68b2cc22a0f0a7cecb6c8",
        "nonce": "0x4f",
        "chainId": "0x14a34"
      },
      "additionalContracts": [],
      "isFixedGasLimit": false
    },
    {
      "hash": "0xdc7013dcdeec0efd6df78a90fb2d570cfdeaaf7ff6ff1042e935f2a5c0a3c364",
      "transactionType": "CREATE",
      "contractName": "TurnBoundEnforcer",
      "contractAddress": "0x92d5ea155ed7830a13ab705d69647b41539e2d01",
      "function": null,
      "arguments": null,
      "transaction": {
        "from": "0xa3327d90d087cdddfb99e598e50b5bdee7fc55bd",
        "to": null,
        "value": "0x0",
        "input": "0x60808060405234601557610250908161001a8239f35b5f80fdfe6080806040526004361015610012575f80fd5b5f3560e01c908163a145832a14610046575063d3eddcc514610032575f80fd5b346100425761004036610174565b005b5f80fd5b3461004257604061005636610174565b509896945050505050838092500103126100425780356001600160a01b03811691908290036100425760248460209384829463ddc2a25160e01b8452013560048301525afa91821561013b575f926100cd575b506001600160a01b039081169116036100be57005b631cc191eb60e31b5f5260045ffd5b90915060203d602011610134575b601f8101601f1916820167ffffffffffffffff8111838210176101205760209183916040528101031261004257516001600160a01b03811681036100425790826100a9565b634e487b7160e01b5f52604160045260245ffd5b503d6100db565b6040513d5f823e3d90fd5b9181601f840112156100425782359167ffffffffffffffff8311610042576020838186019501011161004257565b9060e06003198301126100425760043567ffffffffffffffff811161004257826101a091600401610146565b9290929160243567ffffffffffffffff811161004257826101c391600401610146565b92909291604435916064359067ffffffffffffffff8211610042576101ea91600401610146565b90916084359060a4356001600160a01b0381168103610042579060c4356001600160a01b0381168103610042579056fea2646970667358221220965185ac47f31b390c8333926e07558fe404c58d6a0db6b0a2e1db42f5081dd964736f6c634300081b0033",
        "nonce": "0x50",
        "chainId": "0x14a34"
      },
      "additionalContracts": [],
      "isFixedGasLimit": false
    },
    {
      "hash": "0xc7bef9dac3ef561dded6b68fa3c84d0231065df1b66d2d6447ebd79cb7779b92",
      "transactionType": "CREATE",
      "contractName": "SystemAllowlistEnforcer",
      "contractAddress": "0xc80f02565e949f01a03055349f819a2afc8f2417",
      "function": null,
      "arguments": null,
      "transaction": {
        "from": "0xa3327d90d087cdddfb99e598e50b5bdee7fc55bd",
        "to": null,
        "value": "0x0",
        "input": "0x608080604052346015576102e7908161001a8239f35b5f80fdfe6080806040526004361015610012575f80fd5b5f3560e01c908163a145832a14610046575063d3eddcc514610032575f80fd5b3461004257610040366101d8565b005b5f80fd5b3461004257610054366101d8565b505050935095949391505082016040838203126100425782356001600160a01b03811693908490036100425760208101359067ffffffffffffffff8211610042570181601f820112156100425780359067ffffffffffffffff8211610196578160051b91601f19603f840116870187811067ffffffffffffffff82111761019657604052865260208087019282010192831161004257602001905b828210610186575050506034811061017757806014116100425780603411610042576033190190833560601c0361016857602481106101685780600411610042576318a30a1f60e31b60348401356001600160e01b03191601610168576024116100425760386101619201359061027e565b1561016857005b63e2b8d77d60e01b5f5260045ffd5b6304bc946d60e21b5f5260045ffd5b81358152602091820191016100ef565b634e487b7160e01b5f52604160045260245ffd5b9181601f840112156100425782359167ffffffffffffffff8311610042576020838186019501011161004257565b9060e06003198301126100425760043567ffffffffffffffff81116100425782610204916004016101aa565b9290929160243567ffffffffffffffff81116100425782610227916004016101aa565b92909291604435916064359067ffffffffffffffff82116100425761024e916004016101aa565b90916084359060a4356001600160a01b0381168103610042579060c4356001600160a01b03811681036100425790565b905f5b82518110156102aa578160208260051b85010151146102a257600101610281565b505050600190565b5050505f9056fea2646970667358221220eb33bc912e68a03f749e1299c1708f5172741c768dc8875385fda3f35445eb9e64736f6c634300081b0033",
        "nonce": "0x51",
        "chainId": "0x14a34"
      },
      "additionalContracts": [],
      "isFixedGasLimit": false
    },
    {
      "hash": "0x73763bb4b50632472183fa4043793c4f226bd4ce4c9ed016e5f55b9797e354fa",
      "transactionType": "CREATE",
      "contractName": "TimestampEnforcer",
      "contractAddress": "0x5e21128529e215801f5b2594db5c8121ef53cee0",
      "function": null,
      "arguments": null,
      "transaction": {
        "from": "0xa3327d90d087cdddfb99e598e50b5bdee7fc55bd",
        "to": null,
        "value": "0x0",
        "input": "0x6080806040523460155761018e908161001a8239f35b5f80fdfe60806040526004361015610011575f80fd5b5f3560e01c8063a145832a146100435763d3eddcc51461002f575f80fd5b3461003f5761003d366100b2565b005b5f80fd5b3461003f576020610053366100b2565b5050505050505050908092918101031261003f576103e8903504421161007557005b6330d3ba0760e01b5f5260045ffd5b9181601f8401121561003f5782359167ffffffffffffffff831161003f576020838186019501011161003f57565b9060e060031983011261003f5760043567ffffffffffffffff811161003f57826100de91600401610084565b9290929160243567ffffffffffffffff811161003f578261010191600401610084565b92909291604435916064359067ffffffffffffffff821161003f5761012891600401610084565b90916084359060a4356001600160a01b038116810361003f579060c4356001600160a01b038116810361003f579056fea2646970667358221220670eb700891d21dd1349b4c79f345c473eb10c2126111e55872dc942213600a964736f6c634300081b0033",
        "nonce": "0x52",
        "chainId": "0x14a34"
      },
      "additionalContracts": [],
      "isFixedGasLimit": false
    },
    {
      "hash": "0x6619a4e922153cc0db9b72bf11a92157a090055aa9fe3789e8a486a3c01af809",
      "transactionType": "CREATE",
      "contractName": "LimitedCallsEnforcer",
      "contractAddress": "0x159a6ff03c0dd13d130b3b9200c1dd0d199a7976",
      "function": null,
      "arguments": null,
      "transaction": {
        "from": "0xa3327d90d087cdddfb99e598e50b5bdee7fc55bd",
        "to": null,
        "value": "0x0",
        "input": "0x608080604052346015576101f8908161001a8239f35b5f80fdfe60806040526004361015610011575f80fd5b5f3560e01c8063a145832a14610077578063d3eddcc5146100675763d88a792c1461003a575f80fd5b34610063576020366003190112610063576004355f525f602052602060405f2054604051908152f35b5f80fd5b34610063576100753661011c565b005b346100635760206100873661011c565b505096979593505050508480925001031261006357805f525f60205260405f205491358210156100df57600182018092116100cb575f525f60205260405f20555f80f35b634e487b7160e01b5f52601160045260245ffd5b6330def6b560e01b5f5260045ffd5b9181601f840112156100635782359167ffffffffffffffff8311610063576020838186019501011161006357565b9060e06003198301126100635760043567ffffffffffffffff81116100635782610148916004016100ee565b9290929160243567ffffffffffffffff8111610063578261016b916004016100ee565b92909291604435916064359067ffffffffffffffff821161006357610192916004016100ee565b90916084359060a4356001600160a01b0381168103610063579060c4356001600160a01b0381168103610063579056fea264697066735822122036f4598ed5202430dab4dc81400069594f6adb73d5f82478a8bca6e6e61a343d64736f6c634300081b0033",
        "nonce": "0x53",
        "chainId": "0x14a34"
      },
      "additionalContracts": [],
      "isFixedGasLimit": false
    },
    {
      "hash": "0xb645de3b77c7c49654d425d7944efa46c035a032bb1cd44b342f3b32feeaec1d",
      "transactionType": "CREATE",
      "contractName": "PerActionCapEnforcer",
      "contractAddress": "0x708a23d0bd874cc7f6c14da25998674c40ec9f38",
      "function": null,
      "arguments": null,
      "transaction": {
        "from": "0xa3327d90d087cdddfb99e598e50b5bdee7fc55bd",
        "to": null,
        "value": "0x0",
        "input": "0x60808060405234601557610244908161001a8239f35b5f80fdfe60806040526004361015610011575f80fd5b5f3560e01c8063a145832a146100435763d3eddcc51461002f575f80fd5b3461003f5761003d36610168565b005b5f80fd5b3461003f57604061005336610168565b505050949150948096935080925001031261003f5782356001600160a01b038116919082900361003f576034811061012b578060141161003f578060341161003f576033190190823560601c036100f357600481106100f3578060041161003f5760348201356001600160e01b03191663a9059cbb60e01b81036101025750604481106100f35760441161003f5760586020910135915b0135106100f357005b63068562c960e11b5f5260045ffd5b6323b872dd60e01b036100f357606481106100f35760641161003f5760786020910135916100ea565b6304bc946d60e21b5f5260045ffd5b9181601f8401121561003f5782359167ffffffffffffffff831161003f576020838186019501011161003f57565b9060e060031983011261003f5760043567ffffffffffffffff811161003f57826101949160040161013a565b9290929160243567ffffffffffffffff811161003f57826101b79160040161013a565b92909291604435916064359067ffffffffffffffff821161003f576101de9160040161013a565b90916084359060a4356001600160a01b038116810361003f579060c4356001600160a01b038116810361003f579056fea2646970667358221220469e4e1f5105355970d5b788fdd7beab0c378256e44016f8e51628a76486d34a64736f6c634300081b0033",
        "nonce": "0x54",
        "chainId": "0x14a34"
      },
      "additionalContracts": [],
      "isFixedGasLimit": false
    },
    {
      "hash": "0x22bddca8f6a0f088d160effaeaf0c9e05e46fb122107f9e880609bbe125fa314",
      "transactionType": "CREATE",
      "contractName": "ERC20TransferAmountEnforcer",
      "contractAddress": "0xe62a6cfa29440cc02a13586b51cd8c2788ff4757",
      "function": null,
      "arguments": null,
      "transaction": {
        "from": "0xa3327d90d087cdddfb99e598e50b5bdee7fc55bd",
        "to": null,
        "value": "0x0",
        "input": "0x608080604052346015576102ab908161001a8239f35b5f80fdfe60806040526004361015610011575f80fd5b5f3560e01c8063a145832a14610077578063d3eddcc5146100675763d8acc5481461003a575f80fd5b34610063576020366003190112610063576004355f525f602052602060405f2054604051908152f35b5f80fd5b3461006357610075366101cf565b005b34610063576040610087366101cf565b505096979350935093868092500103126100635783356001600160a01b0381169190829003610063576034811061019257806014116100635780603411610063576033190190823560601c03610149576004811061014957806004116100635760348201356001600160e01b03191663a9059cbb60e01b810361016c575060448110610149576044116100635760580135915b815f525f60205260405f205492830180931161015857602001358211610149575f525f60205260405f20555f80f35b6376e0dfc160e11b5f5260045ffd5b634e487b7160e01b5f52601160045260245ffd5b6323b872dd60e01b0361014957606481106101495760641161006357607801359161011a565b6304bc946d60e21b5f5260045ffd5b9181601f840112156100635782359167ffffffffffffffff8311610063576020838186019501011161006357565b9060e06003198301126100635760043567ffffffffffffffff811161006357826101fb916004016101a1565b9290929160243567ffffffffffffffff8111610063578261021e916004016101a1565b92909291604435916064359067ffffffffffffffff821161006357610245916004016101a1565b90916084359060a4356001600160a01b0381168103610063579060c4356001600160a01b0381168103610063579056fea2646970667358221220e8b456d8869aa5eb6c3ad20753b38bc8b2da7dc355cc17dfbf323dd5168f290164736f6c634300081b0033",
        "nonce": "0x55",
        "chainId": "0x14a34"
      },
      "additionalContracts": [],
      "isFixedGasLimit": false
    },
    {
      "hash": "0xb9f0ab1d89d35c90af142ff9706624665f75576b4cf09aa2ab803cdffbc9d3f5",
      "transactionType": "CREATE",
      "contractName": "AllowedRecipientsEnforcer",
      "contractAddress": "0x9756b25da7996f7f89ad53f1bc4f65d3870f7965",
      "function": null,
      "arguments": null,
      "transaction": {
        "from": "0xa3327d90d087cdddfb99e598e50b5bdee7fc55bd",
        "to": null,
        "value": "0x0",
        "input": "0x60808060405234601557610337908161001a8239f35b5f80fdfe60806040526004361015610011575f80fd5b5f3560e01c8063a145832a146100435763d3eddcc51461002f575f80fd5b3461003f5761003d36610091565b005b5f80fd5b3461003f5761003d61005436610091565b50505095925093925050610137565b9181601f8401121561003f5782359167ffffffffffffffff831161003f576020838186019501011161003f57565b9060e060031983011261003f5760043567ffffffffffffffff811161003f57826100bd91600401610063565b9290929160243567ffffffffffffffff811161003f57826100e091600401610063565b92909291604435916064359067ffffffffffffffff821161003f5761010791600401610063565b90916084359060a4356001600160a01b038116810361003f579060c4356001600160a01b038116810361003f5790565b9081019260408285031261003f5781356001600160a01b038116929083900361003f5760208101359067ffffffffffffffff821161003f570184601f8201121561003f5780359467ffffffffffffffff86116102ed578560051b9160405196601f19603f850116880188811067ffffffffffffffff8211176102ed57604052875260208088019382010191821161003f57602001915b8183106102cd57505050603481106102be578060141161003f578060341161003f576033190190823560601c036102815760048110610281578060041161003f5760348201356001600160e01b03191663a9059cbb60e01b81036102905750604481106102815760241161003f57603801356001600160a01b03165b8151915f5b8381101561028157600581901b8201602001516001600160a01b0384811691161461027b5760010161024e565b50505050565b63133307bb60e21b5f5260045ffd5b6323b872dd60e01b0361028157606481106102815760441161003f57605801356001600160a01b0316610249565b6304bc946d60e21b5f5260045ffd5b82356001600160a01b038116810361003f578152602092830192016101cd565b634e487b7160e01b5f52604160045260245ffdfea26469706673582212207fd262b91f7b26f7fca6ff5cc0e7bcc7815f0048988329e0c41860a7bc09cc7c64736f6c634300081b0033",
        "nonce": "0x56",
        "chainId": "0x14a34"
      },
      "additionalContracts": [],
      "isFixedGasLimit": false
    }
  ],
  "receipts": [
    {
      "type": "0x2",
      "status": "0x1",
      "cumulativeGasUsed": "0x1785d2",
      "logs": [
        {
          "address": "0xfd3fc9786b604c9a9ac23fb1586840b9bff3bdff",
          "topics": [
            "0x8be0079c531659141344cd1fd0a4f28419497f9722a3daafe3b4186f6b6457e0",
            "0x0000000000000000000000000000000000000000000000000000000000000000",
            "0x000000000000000000000000a3327d90d087cdddfb99e598e50b5bdee7fc55bd"
          ],
          "data": "0x",
          "blockHash": "0x0000000000000000000000000000000000000000000000000000000000000000",
          "blockNumber": "0x28d2eae",
          "blockTimestamp": "0x6a2dbc3c",
          "transactionHash": "0x9db4da8403628a0ab94f3a0db1a9872f890e4c2d2681ce236ce4dacf3da628f7",
          "transactionIndex": "0x4",
          "logIndex": "0xd",
          "removed": false
        },
        {
          "address": "0xfd3fc9786b604c9a9ac23fb1586840b9bff3bdff",
          "topics": ["0x2ff4f36f7bcd5d4c260c49696c9d2b7c01d486e2d5ef32b48da03461a743dfe8"],
          "data": "0x6e657875732e776f726c642e7631000000000000000000000000000000000000",
          "blockHash": "0x0000000000000000000000000000000000000000000000000000000000000000",
          "blockNumber": "0x28d2eae",
          "blockTimestamp": "0x6a2dbc3c",
          "transactionHash": "0x9db4da8403628a0ab94f3a0db1a9872f890e4c2d2681ce236ce4dacf3da628f7",
          "transactionIndex": "0x4",
          "logIndex": "0xe",
          "removed": false
        }
      ],
      "logsBloom": "0x00000000000000000000000000000000001000000000000000800000000000000000000000000000000001000000000000000000000000000000000000000000000000000000000000000000000000000001000000000000000000000000000000800000020000000000000000000808000000000000000000000000000000400000000040000000000000000000000000000000000000400000000000000000000000000000000000000000000000000000000000000000000000000000000000000000000000000000000000000000100000000000000000000000000020000000000000000000000000000000000004000010000000000000000000000000",
      "transactionHash": "0x9db4da8403628a0ab94f3a0db1a9872f890e4c2d2681ce236ce4dacf3da628f7",
      "transactionIndex": "0x4",
      "blockHash": "0x0000000000000000000000000000000000000000000000000000000000000000",
      "blockNumber": "0x28d2eae",
      "gasUsed": "0x1125f9",
      "effectiveGasPrice": "0x5b8d80",
      "blobGasUsed": "0x146e0c",
      "from": "0xa3327d90d087cdddfb99e598e50b5bdee7fc55bd",
      "to": null,
      "contractAddress": "0xfd3fc9786b604c9a9ac23fb1586840b9bff3bdff",
      "l1GasPrice": "0x3effd2e6",
      "l1GasUsed": "0xbba4",
      "l1Fee": "0x5397b784b",
      "l1BaseFeeScalar": "0x44d",
      "l1BlobBaseFee": "0x401472c",
      "l1BlobBaseFeeScalar": "0xa118b",
      "daFootprintGasScalar": "0x1be"
    },
    {
      "type": "0x2",
      "status": "0x1",
      "cumulativeGasUsed": "0x323615",
      "logs": [],
      "logsBloom": "0x00000000000000000000000000000000000000000000000000000000000000000000000000000000000000000000000000000000000000000000000000000000000000000000000000000000000000000000000000000000000000000000000000000000000000000000000000000000000000000000000000000000000000000000000000000000000000000000000000000000000000000000000000000000000000000000000000000000000000000000000000000000000000000000000000000000000000000000000000000000000000000000000000000000000000000000000000000000000000000000000000000000000000000000000000000000",
      "transactionHash": "0xd12ad593a4d716fb5f45dfa5ba6f9ffdbcb0e8a368812ce5a4c0daccfcf0885f",
      "transactionIndex": "0x17",
      "blockHash": "0x0000000000000000000000000000000000000000000000000000000000000000",
      "blockNumber": "0x28d2eaf",
      "gasUsed": "0xe2b3b",
      "effectiveGasPrice": "0x5b8d80",
      "blobGasUsed": "0x114928",
      "from": "0xa3327d90d087cdddfb99e598e50b5bdee7fc55bd",
      "to": null,
      "contractAddress": "0xc5b06bef762f8e16a0b6a84eba297ca82674c89f",
      "l1GasPrice": "0x3effd2e6",
      "l1GasUsed": "0x9ec8",
      "l1Fee": "0x323dbe065",
      "l1BaseFeeScalar": "0x44d",
      "l1BlobBaseFee": "0x401472c",
      "l1BlobBaseFeeScalar": "0xa118b",
      "daFootprintGasScalar": "0x1be"
    },
    {
      "type": "0x2",
      "status": "0x1",
      "cumulativeGasUsed": "0x311f8f",
      "logs": [],
      "logsBloom": "0x00000000000000000000000000000000000000000000000000000000000000000000000000000000000000000000000000000000000000000000000000000000000000000000000000000000000000000000000000000000000000000000000000000000000000000000000000000000000000000000000000000000000000000000000000000000000000000000000000000000000000000000000000000000000000000000000000000000000000000000000000000000000000000000000000000000000000000000000000000000000000000000000000000000000000000000000000000000000000000000000000000000000000000000000000000000",
      "transactionHash": "0x8a62e06b46233ac8a4bbf908b43956e4393c5d5a9f95cdc0f6fbe2e6f4978769",
      "transactionIndex": "0x16",
      "blockHash": "0x0000000000000000000000000000000000000000000000000000000000000000",
      "blockNumber": "0x28d2eb0",
      "gasUsed": "0xb6559",
      "effectiveGasPrice": "0x5b8d80",
      "blobGasUsed": "0xd93aa",
      "from": "0xa3327d90d087cdddfb99e598e50b5bdee7fc55bd",
      "to": null,
      "contractAddress": "0xbbc9426ef84aec0d516b48e58fbad22cea765274",
      "l1GasPrice": "0x3f73acaf",
      "l1GasUsed": "0x7cbf",
      "l1Fee": "0x1615d38b4",
      "l1BaseFeeScalar": "0x44d",
      "l1BlobBaseFee": "0x3a94719",
      "l1BlobBaseFeeScalar": "0xa118b",
      "daFootprintGasScalar": "0x1be"
    },
    {
      "type": "0x2",
      "status": "0x1",
      "cumulativeGasUsed": "0x20aa08",
      "logs": [],
      "logsBloom": "0x00000000000000000000000000000000000000000000000000000000000000000000000000000000000000000000000000000000000000000000000000000000000000000000000000000000000000000000000000000000000000000000000000000000000000000000000000000000000000000000000000000000000000000000000000000000000000000000000000000000000000000000000000000000000000000000000000000000000000000000000000000000000000000000000000000000000000000000000000000000000000000000000000000000000000000000000000000000000000000000000000000000000000000000000000000000",
      "transactionHash": "0x1b03cce260094c1518a7206b39a63eddf4f4ee2c1e18e14de9ea98ecef421deb",
      "transactionIndex": "0x14",
      "blockHash": "0x0000000000000000000000000000000000000000000000000000000000000000",
      "blockNumber": "0x28d2eb1",
      "gasUsed": "0x773d2",
      "effectiveGasPrice": "0x5b8d80",
      "blobGasUsed": "0x99184",
      "from": "0xa3327d90d087cdddfb99e598e50b5bdee7fc55bd",
      "to": null,
      "contractAddress": "0xaecdfe909f54ce630d992509aef9efb8539ef314",
      "l1GasPrice": "0x3f73acaf",
      "l1GasUsed": "0x57e3",
      "l1Fee": "0x1615d38b4",
      "l1BaseFeeScalar": "0x44d",
      "l1BlobBaseFee": "0x3a94719",
      "l1BlobBaseFeeScalar": "0xa118b",
      "daFootprintGasScalar": "0x1be"
    },
    {
      "type": "0x2",
      "status": "0x1",
      "cumulativeGasUsed": "0x60e14",
      "logs": [
        {
          "address": "0xfd3fc9786b604c9a9ac23fb1586840b9bff3bdff",
          "topics": [
            "0x27b93ae2f1d204f7d28eaeab23952d8f33aedaa7b17dfbbe85ac96286df3be15",
            "0x74620000000000000000000000000000436f756e746572000000000000000000"
          ],
          "data": "0x000000000000000000000000000000000000000000000000000000000000000100000000000000000000000000000000000000000000000000000000000000020000000000000000000000000000000000000000000000000000000000000060000000000000000000000000000000000000000000000000000000000000000200000000000000000000000000000000000000000000000000000000000000400000000000000000000000000000000000000000000000000000000000000080000000000000000000000000000000000000000000000000000000000000000576616c756500000000000000000000000000000000000000000000000000000000000000000000000000000000000000000000000000000000000000000000096c6173744d6f7665720000000000000000000000000000000000000000000000",
          "blockHash": "0x0000000000000000000000000000000000000000000000000000000000000000",
          "blockNumber": "0x28d2eb3",
          "blockTimestamp": "0x6a2dbc46",
          "transactionHash": "0xec63de1179b1081ee420c1eea57e72522b3f6f9f7f87cb0a935979451d94fa05",
          "transactionIndex": "0x2",
          "logIndex": "0x15",
          "removed": false
        }
      ],
      "logsBloom": "0x00000000000000000000000000000000000000000000000000000000000000000000000000000000000000000004000000000000000000000000000001000000000000000000000000000000000000000000000000000000000000000000000000000000000000000000001000000000000000000000000000000000000000000000000040000000000000000000000000000000000000000000000000000000000000000000000000000000000000000000000000000000000000000000000000000000000000000000000000000000100000000000000000000000002000000000000000000000000000000000000004000000000000200000000100000000",
      "transactionHash": "0xec63de1179b1081ee420c1eea57e72522b3f6f9f7f87cb0a935979451d94fa05",
      "transactionIndex": "0x2",
      "blockHash": "0x0000000000000000000000000000000000000000000000000000000000000000",
      "blockNumber": "0x28d2eb3",
      "gasUsed": "0x17a65",
      "effectiveGasPrice": "0x5b8d80",
      "blobGasUsed": "0xdb84",
      "from": "0xa3327d90d087cdddfb99e598e50b5bdee7fc55bd",
      "to": "0xfd3fc9786b604c9a9ac23fb1586840b9bff3bdff",
      "contractAddress": null,
      "l1GasPrice": "0x3f73acaf",
      "l1GasUsed": "0x7e6",
      "l1Fee": "0x5b76f2dad",
      "l1BaseFeeScalar": "0x44d",
      "l1BlobBaseFee": "0x3a94719",
      "l1BlobBaseFeeScalar": "0xa118b",
      "daFootprintGasScalar": "0x1be"
    },
    {
      "type": "0x2",
      "status": "0x1",
      "cumulativeGasUsed": "0x3b360a",
      "logs": [
        {
          "address": "0xfd3fc9786b604c9a9ac23fb1586840b9bff3bdff",
          "topics": [
            "0xabe1e2e80b5aa04850ff2ee6b99521af71175d49133ecbf7c9e790f6c92c980a",
            "0x436f756e74657247616d65000000000000000000000000000000000000000000",
            "0x000000000000000000000000aecdfe909f54ce630d992509aef9efb8539ef314"
          ],
          "data": "0x",
          "blockHash": "0xaa60753101fa8f711452421dac3c342c5676eeae6d624200b431cb503afb7a76",
          "blockNumber": "0x28d2eb4",
          "blockTimestamp": "0x6a2dbc48",
          "transactionHash": "0xd7ccc5c78a1ab54376c08ae011cf005db6f05c65da88a33dd14313dc8f774505",
          "transactionIndex": "0x1a",
          "logIndex": "0xa4",
          "removed": false
        }
      ],
      "logsBloom": "0x00000000000000000000000000000000004000000000000000000000000000000000000000000000000000000000000000000000000000000000000000000000000080000000000000000000040000000000000000000000000000000000000000000040000000000000010000000000000000000000000800000000000000000000000040000000000000000000000000000000000000000000000000000000000000000000000000000000000000000000000000000000000000000000000000000000000000000000000000000000100000000000000000000000000000010000000000000100000000000000200004000000000000000000000000000000",
      "transactionHash": "0xd7ccc5c78a1ab54376c08ae011cf005db6f05c65da88a33dd14313dc8f774505",
      "transactionIndex": "0x1a",
      "blockHash": "0xaa60753101fa8f711452421dac3c342c5676eeae6d624200b431cb503afb7a76",
      "blockNumber": "0x28d2eb4",
      "gasUsed": "0xbadf",
      "effectiveGasPrice": "0x5b8d80",
      "blobGasUsed": "0xae38",
      "from": "0xa3327d90d087cdddfb99e598e50b5bdee7fc55bd",
      "to": "0xfd3fc9786b604c9a9ac23fb1586840b9bff3bdff",
      "contractAddress": null,
      "l1GasPrice": "0x3f73acaf",
      "l1GasUsed": "0x640",
      "l1Fee": "0x1615d38b4",
      "l1BaseFeeScalar": "0x44d",
      "l1BlobBaseFee": "0x3a94719",
      "l1BlobBaseFeeScalar": "0xa118b",
      "daFootprintGasScalar": "0x1be"
    },
    {
      "type": "0x2",
      "status": "0x1",
      "cumulativeGasUsed": "0x20e7cd",
      "logs": [
        {
          "address": "0xfd3fc9786b604c9a9ac23fb1586840b9bff3bdff",
          "topics": [
            "0x87675c9926489679e8472a7ecfddd7f514ac1c6a0134118dcab3db14f581f11a",
            "0x74620000000000000000000000000000436f756e746572000000000000000000",
            "0x000000000000000000000000aecdfe909f54ce630d992509aef9efb8539ef314"
          ],
          "data": "0x",
          "blockHash": "0x0000000000000000000000000000000000000000000000000000000000000000",
          "blockNumber": "0x28d2eb5",
          "blockTimestamp": "0x6a2dbc4a",
          "transactionHash": "0xec236491eecb586d9aa6175dd8f90f8854ea6e5e9debc2a84c7d2d2da46d710e",
          "transactionIndex": "0x15",
          "logIndex": "0x4b",
          "removed": false
        }
      ],
      "logsBloom": "0x00000000000000000000000000000000004000000000000000000000000000000000000000000000000000000004000000000000000000000000000000000000000080000000000000000000000000000000000000000000000000000000000000000040000000000000000000000000000000000000000000000000000000000000000040000000000000000000000000000000000004000000000000000000000000000000000000000000000000000000000000000000000000000000000000000000000000000000000000001000100000000000000000000000002000000000000000000000000000000002000004000000000000000000000100000000",
      "transactionHash": "0xec236491eecb586d9aa6175dd8f90f8854ea6e5e9debc2a84c7d2d2da46d710e",
      "transactionIndex": "0x15",
      "blockHash": "0x0000000000000000000000000000000000000000000000000000000000000000",
      "blockNumber": "0x28d2eb5",
      "gasUsed": "0xc4d5",
      "effectiveGasPrice": "0x5b8d80",
      "blobGasUsed": "0xae38",
      "from": "0xa3327d90d087cdddfb99e598e50b5bdee7fc55bd",
      "to": "0xfd3fc9786b604c9a9ac23fb1586840b9bff3bdff",
      "contractAddress": null,
      "l1GasPrice": "0x3f73acaf",
      "l1GasUsed": "0x640",
      "l1Fee": "0x1615d38b4",
      "l1BaseFeeScalar": "0x44d",
      "l1BlobBaseFee": "0x3a94719",
      "l1BlobBaseFeeScalar": "0xa118b",
      "daFootprintGasScalar": "0x1be"
    },
    {
      "type": "0x2",
      "status": "0x1",
      "cumulativeGasUsed": "0x6642f",
      "logs": [
        {
          "address": "0xfd3fc9786b604c9a9ac23fb1586840b9bff3bdff",
          "topics": [
            "0x5c8f05824c40a2cedd1ec7245f574909327c72a46448be0e4c12bcb4f5bf42c0",
            "0x000000000000000000000000c5b06bef762f8e16a0b6a84eba297ca82674c89f"
          ],
          "data": "0x",
          "blockHash": "0x0000000000000000000000000000000000000000000000000000000000000000",
          "blockNumber": "0x28d2eb7",
          "blockTimestamp": "0x6a2dbc4e",
          "transactionHash": "0x14df09684f73b814adabcf8c579f7a201463b38f66f0cad2ef0a86e5bab3255a",
          "transactionIndex": "0x3",
          "logIndex": "0x8",
          "removed": false
        }
      ],
      "logsBloom": "0x00000000000000000000000000000000000000000000000000000800800000000000000000000000000000000000008000000000000000000000000000000000000000000000000000000000000000000000000000000000000000000000000000000000000000000000000000000000000000000000000000000000000000000000000040000000020000000000004000000000000000000000000000000000000000000000000000000000000000000000000000000000000000000200000000000000000000000000000000000000100000000000000000000000000000000000000000000000000000000000000004000000000000000000000000000000",
      "transactionHash": "0x14df09684f73b814adabcf8c579f7a201463b38f66f0cad2ef0a86e5bab3255a",
      "transactionIndex": "0x3",
      "blockHash": "0x0000000000000000000000000000000000000000000000000000000000000000",
      "blockNumber": "0x28d2eb7",
      "gasUsed": "0xb965",
      "effectiveGasPrice": "0x5b8d80",
      "blobGasUsed": "0xae38",
      "from": "0xa3327d90d087cdddfb99e598e50b5bdee7fc55bd",
      "to": "0xfd3fc9786b604c9a9ac23fb1586840b9bff3bdff",
      "contractAddress": null,
      "l1GasPrice": "0x3f73acaf",
      "l1GasUsed": "0x640",
      "l1Fee": "0x1615d38b4",
      "l1BaseFeeScalar": "0x44d",
      "l1BlobBaseFee": "0x3a94719",
      "l1BlobBaseFeeScalar": "0xa118b",
      "daFootprintGasScalar": "0x1be"
    },
    {
      "type": "0x2",
      "status": "0x1",
      "cumulativeGasUsed": "0x31c98",
      "logs": [],
      "logsBloom": "0x00000000000000000000000000000000000000000000000000000000000000000000000000000000000000000000000000000000000000000000000000000000000000000000000000000000000000000000000000000000000000000000000000000000000000000000000000000000000000000000000000000000000000000000000000000000000000000000000000000000000000000000000000000000000000000000000000000000000000000000000000000000000000000000000000000000000000000000000000000000000000000000000000000000000000000000000000000000000000000000000000000000000000000000000000000000",
      "transactionHash": "0xc2b3e78ab2df902722e5836dfdd07b2e6830cc43efff767c96f83595f53e0d04",
      "transactionIndex": "0x2",
      "blockHash": "0x0000000000000000000000000000000000000000000000000000000000000000",
      "blockNumber": "0x28d2eb9",
      "gasUsed": "0xb353",
      "effectiveGasPrice": "0x5b8d80",
      "blobGasUsed": "0xae38",
      "from": "0xa3327d90d087cdddfb99e598e50b5bdee7fc55bd",
      "to": "0xaecdfe909f54ce630d992509aef9efb8539ef314",
      "contractAddress": null,
      "l1GasPrice": "0x3e978347",
      "l1GasUsed": "0x640",
      "l1Fee": "0x3b3ce5669",
      "l1BaseFeeScalar": "0x44d",
      "l1BlobBaseFee": "0x3be8b07",
      "l1BlobBaseFeeScalar": "0xa118b",
      "daFootprintGasScalar": "0x1be"
    },
    {
      "type": "0x2",
      "status": "0x1",
      "cumulativeGasUsed": "0x37930d",
      "logs": [
        {
          "address": "0xbbc9426ef84aec0d516b48e58fbad22cea765274",
          "topics": [
            "0xf8b32f4ee3245ed08b1112f5d0f235cd6703b644bbbc9d3d5885adabd99447bd",
            "0x000000000000000000000000aecdfe909f54ce630d992509aef9efb8539ef314"
          ],
          "data": "0x0000000000000000000000000000000000000000000000000000000000000001",
          "blockHash": "0x0000000000000000000000000000000000000000000000000000000000000000",
          "blockNumber": "0x28d2eba",
          "blockTimestamp": "0x6a2dbc54",
          "transactionHash": "0xcbdd25420c3129f3d47469a886b172e57f64a96cf8c68a4cf3d6d561fc7672b2",
          "transactionIndex": "0x14",
          "logIndex": "0xb1",
          "removed": false
        }
      ],
      "logsBloom": "0x00000000000000000000000000000000404000000000000000000000000000000000000000000000000000000000000000000000000000000000000000000000000080000000000000000000000000000000000000000000000000000000000000000040000000000000040000000000000000000000080000000000000000000000000000000000000000000000000000020000080000000000000000000000000000000000000000000000000000000000000000000000000800000000000000000000000000000000000000000000000000000000000000000000000000000000000000000000000000000000000000000000000000000000000000000000",
      "transactionHash": "0xcbdd25420c3129f3d47469a886b172e57f64a96cf8c68a4cf3d6d561fc7672b2",
      "transactionIndex": "0x14",
      "blockHash": "0x0000000000000000000000000000000000000000000000000000000000000000",
      "blockNumber": "0x28d2eba",
      "gasUsed": "0xba02",
      "effectiveGasPrice": "0x5b8d80",
      "blobGasUsed": "0xae38",
      "from": "0xa3327d90d087cdddfb99e598e50b5bdee7fc55bd",
      "to": "0xbbc9426ef84aec0d516b48e58fbad22cea765274",
      "contractAddress": null,
      "l1GasPrice": "0x3e978347",
      "l1GasUsed": "0x640",
      "l1Fee": "0x193cba585",
      "l1BaseFeeScalar": "0x44d",
      "l1BlobBaseFee": "0x3be8b07",
      "l1BlobBaseFeeScalar": "0xa118b",
      "daFootprintGasScalar": "0x1be"
    },
    {
      "type": "0x2",
      "status": "0x1",
      "cumulativeGasUsed": "0xf2f8a",
      "logs": [
        {
          "address": "0xbbc9426ef84aec0d516b48e58fbad22cea765274",
          "topics": [
            "0xf8b32f4ee3245ed08b1112f5d0f235cd6703b644bbbc9d3d5885adabd99447bd",
            "0x000000000000000000000000a3327d90d087cdddfb99e598e50b5bdee7fc55bd"
          ],
          "data": "0x0000000000000000000000000000000000000000000000000000000000000001",
          "blockHash": "0x0000000000000000000000000000000000000000000000000000000000000000",
          "blockNumber": "0x28d2ebb",
          "blockTimestamp": "0x6a2dbc56",
          "transactionHash": "0xb83cb01af0501d466245e97b732e199e0a9202581fa9cf0efa14022c8aebfaa3",
          "transactionIndex": "0xe",
          "logIndex": "0xf",
          "removed": false
        }
      ],
      "logsBloom": "0x00000000000000000000000000000000400000000000000000000000000000000000000000000000000000000000000000000000000000000000000000000000000000000000000000000000000000000000000000000000000000000000000000800000000000000000040000000000000000000000080000000000000000000000000000000000000000000000000000020000080000400000000000000000000000000000000000000000000000000000000000000000000800000000000000000000000000000000000000000000000000000000000000000000000000000000000000000000000000000000000000000010000000000000000000000000",
      "transactionHash": "0xb83cb01af0501d466245e97b732e199e0a9202581fa9cf0efa14022c8aebfaa3",
      "transactionIndex": "0xe",
      "blockHash": "0x0000000000000000000000000000000000000000000000000000000000000000",
      "blockNumber": "0x28d2ebb",
      "gasUsed": "0x6c46",
      "effectiveGasPrice": "0x5b8d80",
      "blobGasUsed": "0xae38",
      "from": "0xa3327d90d087cdddfb99e598e50b5bdee7fc55bd",
      "to": "0xbbc9426ef84aec0d516b48e58fbad22cea765274",
      "contractAddress": null,
      "l1GasPrice": "0x3e978347",
      "l1GasUsed": "0x640",
      "l1Fee": "0x1655494b2",
      "l1BaseFeeScalar": "0x44d",
      "l1BlobBaseFee": "0x3be8b07",
      "l1BlobBaseFeeScalar": "0xa118b",
      "daFootprintGasScalar": "0x1be"
    },
    {
      "type": "0x2",
      "status": "0x1",
      "cumulativeGasUsed": "0x14788d",
      "logs": [],
      "logsBloom": "0x00000000000000000000000000000000000000000000000000000000000000000000000000000000000000000000000000000000000000000000000000000000000000000000000000000000000000000000000000000000000000000000000000000000000000000000000000000000000000000000000000000000000000000000000000000000000000000000000000000000000000000000000000000000000000000000000000000000000000000000000000000000000000000000000000000000000000000000000000000000000000000000000000000000000000000000000000000000000000000000000000000000000000000000000000000000",
      "transactionHash": "0x49c47b6488b357aa4f0f6b06a74c1e5341b145d77ef0ae24ae896c661d2b5f59",
      "transactionIndex": "0x12",
      "blockHash": "0x0000000000000000000000000000000000000000000000000000000000000000",
      "blockNumber": "0x28d2ebc",
      "gasUsed": "0xb3b2",
      "effectiveGasPrice": "0x5b8d80",
      "blobGasUsed": "0xae38",
      "from": "0xa3327d90d087cdddfb99e598e50b5bdee7fc55bd",
      "to": "0xbbc9426ef84aec0d516b48e58fbad22cea765274",
      "contractAddress": null,
      "l1GasPrice": "0x3d9716af",
      "l1GasUsed": "0x640",
      "l1Fee": "0x16b117004",
      "l1BaseFeeScalar": "0x44d",
      "l1BlobBaseFee": "0x3dba635",
      "l1BlobBaseFeeScalar": "0xa118b",
      "daFootprintGasScalar": "0x1be"
    },
    {
      "type": "0x2",
      "status": "0x1",
      "cumulativeGasUsed": "0x20a222",
      "logs": [
        {
          "address": "0xbbc9426ef84aec0d516b48e58fbad22cea765274",
          "topics": [
            "0xa4663596238e958f20b25cc69bc3648d070a6628c207d1a233185cbd3c280ef1",
            "0x0000000000000000000000000000000000000000000000000000000000000001"
          ],
          "data": "0x000000000000000000000000000000000000000000000000000000000000004000000000000000000000000000000000000000000000000000000000028d4245000000000000000000000000000000000000000000000000000000000000000200000000000000000000000039126dd5d983e149e4fb67e19ce34da8e24eda76000000000000000000000000b038cd7a43c9785701a68b2cc22a0f0a7cecb6c8",
          "blockHash": "0x0000000000000000000000000000000000000000000000000000000000000000",
          "blockNumber": "0x28d2ebd",
          "blockTimestamp": "0x6a2dbc5a",
          "transactionHash": "0x09eb3d5d04cfc03255e3153b8a11cee99242a0900e0eb9f43cdea37a3058635b",
          "transactionIndex": "0xf",
          "logIndex": "0x4d",
          "removed": false
        }
      ],
      "logsBloom": "0x00000000000000000000000000000000400000000000000000000000000000000000000000000000000000000000000000000000000000000000000000040000000000000004000000000000000000000000000000040000000000000000000000000000000400000000040000000000000000000000000000000000000000000000000000000000000000000000000000000000000000000000000000000000000000000000000000000000000000000000000000000000000800000000000000000000000000000000000000000000000000000000000000400000000040000000000000000000000000000000000000000000000000000000000000000000",
      "transactionHash": "0x09eb3d5d04cfc03255e3153b8a11cee99242a0900e0eb9f43cdea37a3058635b",
      "transactionIndex": "0xf",
      "blockHash": "0x0000000000000000000000000000000000000000000000000000000000000000",
      "blockNumber": "0x28d2ebd",
      "gasUsed": "0x2d974",
      "effectiveGasPrice": "0x5b8d80",
      "blobGasUsed": "0xd64a",
      "from": "0xa3327d90d087cdddfb99e598e50b5bdee7fc55bd",
      "to": "0xbbc9426ef84aec0d516b48e58fbad22cea765274",
      "contractAddress": null,
      "l1GasPrice": "0x3d9716af",
      "l1GasUsed": "0x7b0",
      "l1Fee": "0x2f177b6f8",
      "l1BaseFeeScalar": "0x44d",
      "l1BlobBaseFee": "0x3dba635",
      "l1BlobBaseFeeScalar": "0xa118b",
      "daFootprintGasScalar": "0x1be"
    },
    {
      "type": "0x2",
      "status": "0x1",
      "cumulativeGasUsed": "0x1a25d7",
      "logs": [],
      "logsBloom": "0x00000000000000000000000000000000000000000000000000000000000000000000000000000000000000000000000000000000000000000000000000000000000000000000000000000000000000000000000000000000000000000000000000000000000000000000000000000000000000000000000000000000000000000000000000000000000000000000000000000000000000000000000000000000000000000000000000000000000000000000000000000000000000000000000000000000000000000000000000000000000000000000000000000000000000000000000000000000000000000000000000000000000000000000000000000000",
      "transactionHash": "0xdc7013dcdeec0efd6df78a90fb2d570cfdeaaf7ff6ff1042e935f2a5c0a3c364",
      "transactionIndex": "0x4",
      "blockHash": "0x0000000000000000000000000000000000000000000000000000000000000000",
      "blockNumber": "0x28d2ebf",
      "gasUsed": "0x2c3a0",
      "effectiveGasPrice": "0x5b8d80",
      "blobGasUsed": "0x32a1e",
      "from": "0xa3327d90d087cdddfb99e598e50b5bdee7fc55bd",
      "to": null,
      "contractAddress": "0x92d5ea155ed7830a13ab705d69647b41539e2d01",
      "l1GasPrice": "0x3d9716af",
      "l1GasUsed": "0x1d12",
      "l1Fee": "0x16b117004",
      "l1BaseFeeScalar": "0x44d",
      "l1BlobBaseFee": "0x3dba635",
      "l1BlobBaseFeeScalar": "0xa118b",
      "daFootprintGasScalar": "0x1be"
    },
    {
      "type": "0x2",
      "status": "0x1",
      "cumulativeGasUsed": "0x1d6764",
      "logs": [],
      "logsBloom": "0x00000000000000000000000000000000000000000000000000000000000000000000000000000000000000000000000000000000000000000000000000000000000000000000000000000000000000000000000000000000000000000000000000000000000000000000000000000000000000000000000000000000000000000000000000000000000000000000000000000000000000000000000000000000000000000000000000000000000000000000000000000000000000000000000000000000000000000000000000000000000000000000000000000000000000000000000000000000000000000000000000000000000000000000000000000000",
      "transactionHash": "0xc7bef9dac3ef561dded6b68fa3c84d0231065df1b66d2d6447ebd79cb7779b92",
      "transactionIndex": "0x10",
      "blockHash": "0x0000000000000000000000000000000000000000000000000000000000000000",
      "blockNumber": "0x28d2ec0",
      "gasUsed": "0x34318",
      "effectiveGasPrice": "0x5b8d80",
      "blobGasUsed": "0x3bff2",
      "from": "0xa3327d90d087cdddfb99e598e50b5bdee7fc55bd",
      "to": null,
      "contractAddress": "0xc80f02565e949f01a03055349f819a2afc8f2417",
      "l1GasPrice": "0x3d9716af",
      "l1GasUsed": "0x2275",
      "l1Fee": "0x16b117004",
      "l1BaseFeeScalar": "0x44d",
      "l1BlobBaseFee": "0x3dba635",
      "l1BlobBaseFeeScalar": "0xa118b",
      "daFootprintGasScalar": "0x1be"
    },
    {
      "type": "0x2",
      "status": "0x1",
      "cumulativeGasUsed": "0x3c3528",
      "logs": [],
      "logsBloom": "0x00000000000000000000000000000000000000000000000000000000000000000000000000000000000000000000000000000000000000000000000000000000000000000000000000000000000000000000000000000000000000000000000000000000000000000000000000000000000000000000000000000000000000000000000000000000000000000000000000000000000000000000000000000000000000000000000000000000000000000000000000000000000000000000000000000000000000000000000000000000000000000000000000000000000000000000000000000000000000000000000000000000000000000000000000000000",
      "transactionHash": "0x73763bb4b50632472183fa4043793c4f226bd4ce4c9ed016e5f55b9797e354fa",
      "transactionIndex": "0x16",
      "blockHash": "0x0000000000000000000000000000000000000000000000000000000000000000",
      "blockNumber": "0x28d2ec1",
      "gasUsed": "0x21fa7",
      "effectiveGasPrice": "0x5b8d80",
      "blobGasUsed": "0x23636",
      "from": "0xa3327d90d087cdddfb99e598e50b5bdee7fc55bd",
      "to": null,
      "contractAddress": "0x5e21128529e215801f5b2594db5c8121ef53cee0",
      "l1GasPrice": "0x3d9716af",
      "l1GasUsed": "0x1457",
      "l1Fee": "0x37a22b379",
      "l1BaseFeeScalar": "0x44d",
      "l1BlobBaseFee": "0x3dba635",
      "l1BlobBaseFeeScalar": "0xa118b",
      "daFootprintGasScalar": "0x1be"
    },
    {
      "type": "0x2",
      "status": "0x1",
      "cumulativeGasUsed": "0x17c311",
      "logs": [],
      "logsBloom": "0x00000000000000000000000000000000000000000000000000000000000000000000000000000000000000000000000000000000000000000000000000000000000000000000000000000000000000000000000000000000000000000000000000000000000000000000000000000000000000000000000000000000000000000000000000000000000000000000000000000000000000000000000000000000000000000000000000000000000000000000000000000000000000000000000000000000000000000000000000000000000000000000000000000000000000000000000000000000000000000000000000000000000000000000000000000000",
      "transactionHash": "0x6619a4e922153cc0db9b72bf11a92157a090055aa9fe3789e8a486a3c01af809",
      "transactionIndex": "0x12",
      "blockHash": "0x0000000000000000000000000000000000000000000000000000000000000000",
      "blockNumber": "0x28d2ec2",
      "gasUsed": "0x2793b",
      "effectiveGasPrice": "0x5b8d80",
      "blobGasUsed": "0x2ae6c",
      "from": "0xa3327d90d087cdddfb99e598e50b5bdee7fc55bd",
      "to": null,
      "contractAddress": "0x159a6ff03c0dd13d130b3b9200c1dd0d199a7976",
      "l1GasPrice": "0x3d932470",
      "l1GasUsed": "0x18a1",
      "l1Fee": "0x157d0f2cb",
      "l1BaseFeeScalar": "0x44d",
      "l1BlobBaseFee": "0x391104c",
      "l1BlobBaseFeeScalar": "0xa118b",
      "daFootprintGasScalar": "0x1be"
    },
    {
      "type": "0x2",
      "status": "0x1",
      "cumulativeGasUsed": "0x5398dc",
      "logs": [],
      "logsBloom": "0x00000000000000000000000000000000000000000000000000000000000000000000000000000000000000000000000000000000000000000000000000000000000000000000000000000000000000000000000000000000000000000000000000000000000000000000000000000000000000000000000000000000000000000000000000000000000000000000000000000000000000000000000000000000000000000000000000000000000000000000000000000000000000000000000000000000000000000000000000000000000000000000000000000000000000000000000000000000000000000000000000000000000000000000000000000000",
      "transactionHash": "0xb645de3b77c7c49654d425d7944efa46c035a032bb1cd44b342f3b32feeaec1d",
      "transactionIndex": "0x1c",
      "blockHash": "0x0000000000000000000000000000000000000000000000000000000000000000",
      "blockNumber": "0x28d2ec3",
      "gasUsed": "0x2b936",
      "effectiveGasPrice": "0x5b8d80",
      "blobGasUsed": "0x3004e",
      "from": "0xa3327d90d087cdddfb99e598e50b5bdee7fc55bd",
      "to": null,
      "contractAddress": "0x708a23d0bd874cc7f6c14da25998674c40ec9f38",
      "l1GasPrice": "0x3d932470",
      "l1GasUsed": "0x1b9b",
      "l1Fee": "0x2c6a37683",
      "l1BaseFeeScalar": "0x44d",
      "l1BlobBaseFee": "0x391104c",
      "l1BlobBaseFeeScalar": "0xa118b",
      "daFootprintGasScalar": "0x1be"
    },
    {
      "type": "0x2",
      "status": "0x1",
      "cumulativeGasUsed": "0x1b832b",
      "logs": [],
      "logsBloom": "0x00000000000000000000000000000000000000000000000000000000000000000000000000000000000000000000000000000000000000000000000000000000000000000000000000000000000000000000000000000000000000000000000000000000000000000000000000000000000000000000000000000000000000000000000000000000000000000000000000000000000000000000000000000000000000000000000000000000000000000000000000000000000000000000000000000000000000000000000000000000000000000000000000000000000000000000000000000000000000000000000000000000000000000000000000000000",
      "transactionHash": "0x22bddca8f6a0f088d160effaeaf0c9e05e46fb122107f9e880609bbe125fa314",
      "transactionIndex": "0x11",
      "blockHash": "0x0000000000000000000000000000000000000000000000000000000000000000",
      "blockNumber": "0x28d2ec4",
      "gasUsed": "0x31074",
      "effectiveGasPrice": "0x5b8d80",
      "blobGasUsed": "0x37c00",
      "from": "0xa3327d90d087cdddfb99e598e50b5bdee7fc55bd",
      "to": null,
      "contractAddress": "0xe62a6cfa29440cc02a13586b51cd8c2788ff4757",
      "l1GasPrice": "0x3d932470",
      "l1GasUsed": "0x200d",
      "l1Fee": "0x6e34345a6",
      "l1BaseFeeScalar": "0x44d",
      "l1BlobBaseFee": "0x391104c",
      "l1BlobBaseFeeScalar": "0xa118b",
      "daFootprintGasScalar": "0x1be"
    },
    {
      "type": "0x2",
      "status": "0x1",
      "cumulativeGasUsed": "0x338522",
      "logs": [],
      "logsBloom": "0x00000000000000000000000000000000000000000000000000000000000000000000000000000000000000000000000000000000000000000000000000000000000000000000000000000000000000000000000000000000000000000000000000000000000000000000000000000000000000000000000000000000000000000000000000000000000000000000000000000000000000000000000000000000000000000000000000000000000000000000000000000000000000000000000000000000000000000000000000000000000000000000000000000000000000000000000000000000000000000000000000000000000000000000000000000000",
      "transactionHash": "0xb9f0ab1d89d35c90af142ff9706624665f75576b4cf09aa2ab803cdffbc9d3f5",
      "transactionIndex": "0x17",
      "blockHash": "0x3891d8a3eae414e8bb5d70ee5e4d35a9a1791e51e010bcd35810eb09badbec32",
      "blockNumber": "0x28d2ec5",
      "gasUsed": "0x3863c",
      "effectiveGasPrice": "0x5b8d80",
      "blobGasUsed": "0x4091e",
      "from": "0xa3327d90d087cdddfb99e598e50b5bdee7fc55bd",
      "to": null,
      "contractAddress": "0x9756b25da7996f7f89ad53f1bc4f65d3870f7965",
      "l1GasPrice": "0x3d932470",
      "l1GasUsed": "0x2512",
      "l1Fee": "0x7f75c66ff",
      "l1BaseFeeScalar": "0x44d",
      "l1BlobBaseFee": "0x391104c",
      "l1BlobBaseFeeScalar": "0xa118b",
      "daFootprintGasScalar": "0x1be"
    }
  ],
  "libraries": [],
  "pending": [],
  "returns": {},
  "timestamp": 1781382250092,
  "chain": 84532,
  "commit": "c673897"
}
