{
  "transactions": [
    {
      "hash": "0xbc2e87160d927d43a719d1a6b310ccc865a1d469142616dd59ca8e27ee53fd78",
      "transactionType": "CREATE",
      "contractName": "World",
      "contractAddress": "0x5fbdb2315678afecb367f032d93f642f64180aa3",
      "function": null,
      "arguments": null,
      "transaction": {
        "from": "0xf39fd6e51aad88f6f4ce6ab8827279cfffb92266",
        "to": null,
        "value": "0x0",
        "input": "0x6080806040523460de5760017f9b779b17422d0df92223018b32b4d1fa46e071723d6817e2486d003becc55f0055331560cb57600180546001600160a01b03199081169091555f805433928116831782557f2ff4f36f7bcd5d4c260c49696c9d2b7c01d486e2d5ef32b48da03461a743dfe893602093909290916001600160a01b0316907f8be0079c531659141344cd1fd0a4f28419497f9722a3daafe3b4186f6b6457e09080a36d6e657875732e776f726c642e763160901b8152a160405161137190816100e38239f35b631e4fbdf760e01b5f525f60045260245ffd5b5f80fdfe60806040526004361015610011575f80fd5b5f3560e01c806301b9b47c146101745780631a6aae401461016f57806323e8492c1461016a57806334be086f146101655780633ae7af0814610160578063505a181d1461015b57806364260f691461015657806365630b2214610151578063715018a61461014c5780637321a12b1461014757806379ba5097146101425780637da0a8771461013d57806388eea6f1146101385780638da5cb5b146101335780638e50f0191461012e5780638f1ac17514610129578063cc49db7e14610124578063da7422281461011f578063e06c19391461011a578063e06f874114610115578063e30c3978146101105763f2fde38b1461010b575f80fd5b610cdd565b610cb5565b610c34565b610b8c565b610adb565b610a46565b6109d2565b610994565b61096d565b6108f0565b6108c8565b610843565b610814565b6107b1565b61072a565b6106fb565b6105c6565b610446565b6102ee565b61028c565b6101d0565b346101a0575f3660031901126101a0576040516d6e657875732e776f726c642e763160901b8152602090f35b5f80fd5b602435906001600160a01b03821682036101a057565b600435906001600160a01b03821682036101a057565b346101a05760403660031901126101a0576004356101ec6101a4565b906101f56112a4565b6001600160a01b03821691821561027d57815f52600960205260ff60405f20541661026a575f82815260036020526040902080546001600160a01b0319166001600160a01b039092169190911790557fabe1e2e80b5aa04850ff2ee6b99521af71175d49133ecbf7c9e790f6c92c980a5f80a3005b50638e2646e960e01b5f5260045260245ffd5b6319c0958960e01b5f5260045ffd5b346101a05760203660031901126101a0576004355f526003602052602060018060a01b0360405f205416604051908152f35b9181601f840112156101a0578235916001600160401b0383116101a0576020808501948460051b0101116101a057565b346101a05760803660031901126101a0576004356024356044356064356001600160401b0381116101a0576103279036906004016102be565b92906103316112a4565b845f52600260205260ff60405f2054166103ce577f27b93ae2f1d204f7d28eaeab23952d8f33aedaa7b17dfbbe85ac96286df3be15936103c9916103bd60405161037a81610d63565b60018152856020820152866040820152885f52600260205260405f209060406002918051151560ff80198654169116178455602081015160018501550151910155565b60405194859485610dc4565b0390a2005b84631779e62d60e01b5f5260045260245ffd5b9181601f840112156101a0578235916001600160401b0383116101a057602083818601950101116101a057565b805180835260209291819084018484015e5f828201840152601f01601f1916010190565b90602061044392818152019061040e565b90565b346101a05760403660031901126101a0576004356024356001600160401b0381116101a0576104799036906004016103e1565b60027f9b779b17422d0df92223018b32b4d1fa46e071723d6817e2486d003becc55f0093929354146105845760027f9b779b17422d0df92223018b32b4d1fa46e071723d6817e2486d003becc55f00555f828152600360205260409020546001600160a01b0316918215610572575f808486828661051b6104f86112b7565b9161050d604051938492602084019788610e63565b03601f198101835282610d83565b51925af1610527610e86565b901561056a576105669061055a60017f9b779b17422d0df92223018b32b4d1fa46e071723d6817e2486d003becc55f0055565b60405191829182610432565b0390f35b602081519101fd5b63c6c0143760e01b5f5260045260245ffd5b633ee5aeb560e01b5f5260045ffd5b9060406003198301126101a05760043591602435906001600160401b0382116101a0576105c2916004016102be565b9091565b346101a0576105d436610593565b906105f86105f46105ed855f52600260205260405f2090565b5460ff1690565b1590565b6106e7576106296105f46105ed610617865f52600860205260405f2090565b335f9081526020919091526040902090565b6106cf5790816106c06106b6610660847f0e1f72f429eb97e64878619984a91e687ae91610348b9ff4216782cc96e49d07966112fd565b61068b610686826106798a5f52600460205260405f2090565b905f5260205260405f2090565b610f12565b6106a4610686826106798a5f52600560205260405f2090565b610679875f52600660205260405f2090565b805460ff19169055565b6103c960405192839283610f96565b6324a2ac1960e01b5f5260048390523360245260445ffd5b632fa7919d60e01b5f52600483905260245ffd5b346101a05760203660031901126101a0576004355f526002602052602060ff60405f2054166040519015158152f35b346101a05760203660031901126101a0576004356107466112a4565b5f818152600360205260409020546001600160a01b03161561079f57805f52600960205260405f20600160ff198254161790557f802b3c4971e20dfc16e03cbfd0f68c75e9a019bbe7111ff7fcadb9c95d5a2fdf5f80a2005b63c6c0143760e01b5f5260045260245ffd5b346101a0575f3660031901126101a0576107c96112a4565b600180546001600160a01b03199081169091555f80549182168155906001600160a01b03167f8be0079c531659141344cd1fd0a4f28419497f9722a3daafe3b4186f6b6457e08280a3005b346101a05760203660031901126101a0576004355f526009602052602060ff60405f2054166040519015158152f35b346101a0575f3660031901126101a057600154336001600160a01b03909116036108b557600180546001600160a01b03199081169091555f805433928116831782556001600160a01b0316907f8be0079c531659141344cd1fd0a4f28419497f9722a3daafe3b4186f6b6457e09080a3005b63118cdaa760e01b5f523360045260245ffd5b346101a0575f3660031901126101a0576007546040516001600160a01b039091168152602090f35b346101a05760403660031901126101a05760043561090c6101a4565b6109146112a4565b5f8281526008602090815260408083206001600160a01b03851684529091529020805460ff191690556001600160a01b0316907fb8e0d7351489acd9da4456b5acdd3672b9d3f8d48155f59b3763284be3c60f1b5f80a3005b346101a0575f3660031901126101a0575f546040516001600160a01b039091168152602090f35b346101a0576109b96109a536610593565b9092915f52600660205260405f20926112fd565b5f52602052602060ff60405f2054166040519015158152f35b346101a05760403660031901126101a057602060ff610a156004356109f56101a4565b905f526008845260405f209060018060a01b03165f5260205260405f2090565b54166040519015158152f35b9091610a386104439360408452604084019061040e565b91602081840391015261040e565b346101a057610a5436610593565b90825f52600260205260ff60405f20541615610ac857610aac610a7d610ab893610ab2936112fd565b845f52600460205260405f20815f5260205260405f20945f52600560205260405f20905f5260205260405f2090565b92610fa7565b91610fa7565b9061056660405192839283610a21565b82632fa7919d60e01b5f5260045260245ffd5b346101a05760203660031901126101a057610af46101ba565b610afc6112a4565b600754906001600160a01b038216610b4f576001600160a01b03166001600160a01b03199190911681176007557f5c8f05824c40a2cedd1ec7245f574909327c72a46448be0e4c12bcb4f5bf42c05f80a2005b60405162461bcd60e51b8152602060048201526015602482015274199bdc9dd85c99195c88185b1c9958591e481cd95d605a1b6044820152606490fd5b346101a05760403660031901126101a057600435610ba86101a4565b610bb06112a4565b815f52600260205260ff60405f20541615610c21575f8281526008602090815260408083206001600160a01b03851684529091529020805460ff191660011790556001600160a01b0316907f87675c9926489679e8472a7ecfddd7f514ac1c6a0134118dcab3db14f581f11a5f80a3005b50632fa7919d60e01b5f5260045260245ffd5b346101a05760803660031901126101a0576004356024356001600160401b0381116101a057610c679036906004016102be565b916044356001600160401b0381116101a057610c879036906004016103e1565b90606435946001600160401b0386116101a057610cab610cb39636906004016103e1565b95909461118a565b005b346101a0575f3660031901126101a0576001546040516001600160a01b039091168152602090f35b346101a05760203660031901126101a057610cf66101ba565b610cfe6112a4565b60018060a01b0316806bffffffffffffffffffffffff60a01b600154161760015560018060a01b035f54167f38d16b8cac22d99fc7c124b9cd0de2d3fa1faef420bfe791d8c362d765e227005f80a3005b634e487b7160e01b5f52604160045260245ffd5b606081019081106001600160401b03821117610d7e57604052565b610d4f565b90601f801991011681019081106001600160401b03821117610d7e57604052565b908060209392818452848401375f828201840152601f01601f1916010190565b93919082916060860191865260208601526060604086015252608083019060808160051b85010193835f91601e1982360301905b848410610e09575050505050505090565b90919293949596607f198282030187528735838112156101a057840190602082359201916001600160401b0381116101a05780360383136101a057610e546020928392600195610da4565b99019701959401929190610df8565b826014949392823701906bffffffffffffffffffffffff199060601b1681520190565b3d15610ebf573d906001600160401b038211610d7e5760405191610eb4601f8201601f191660200184610d83565b82523d5f602084013e565b606090565b90600182811c92168015610ef2575b6020831014610ede57565b634e487b7160e01b5f52602260045260245ffd5b91607f1691610ed3565b818110610f07575050565b5f8155600101610efc565b610f1c8154610ec4565b9081610f26575050565b81601f5f9311600114610f385750555b565b81835260208320610f5491601f0160051c810190600101610efc565b808252602082209081548360011b9084198560031b1c191617905555565b81835290916001600160fb1b0383116101a05760209260051b809284830137010190565b916020610443938181520191610f72565b9060405191825f825492610fba84610ec4565b80845293600181169081156110235750600114610fdf575b50610f3692500383610d83565b90505f9291925260205f20905f915b818310611007575050906020610f36928201015f610fd2565b6020919350806001915483858901015201910190918492610fee565b905060209250610f3694915060ff191682840152151560051b8201015f610fd2565b9190601f811161105457505050565b610f36925f5260205f20906020601f840160051c8301931061107e575b601f0160051c0190610efc565b9091508190611071565b9092916001600160401b038111610d7e576110ad816110a78454610ec4565b84611045565b5f601f82116001146110eb5781906110dc9394955f926110e0575b50508160011b915f199060031b1c19161790565b9055565b013590505f806110c8565b601f198216946110fe845f5260205f2090565b915f5b87811061113857508360019596971061111f575b505050811b019055565b01355f19600384901b60f8161c191690555f8080611115565b90926020600181928686013581550194019101611101565b9492909361116e610443979561117c94606089526060890191610f72565b918683036020880152610da4565b926040818503910152610da4565b959294919493909360ff6111a6885f52600260205260405f2090565b541615611291576111cd60ff6111c76106178a5f52600860205260405f2090565b54161590565b611279579183916112749361126861125b6106796112498a99876112368f7f4152a3ff4b6805e40a4f8c241bcc539b19cfde7c8e2ab2c23b79b83ad875d7879f9e8f611218916112fd565b958161123b8c8c6112368b61067981985f52600460205260405f2090565b611088565b5f52600560205260405f2090565b6106798c5f52600660205260405f2090565b805460ff19166001179055565b60405196879687611150565b0390a2565b6324a2ac1960e01b5f5260048790523360245260445ffd5b86632fa7919d60e01b5f5260045260245ffd5b5f546001600160a01b031633036108b557565b60018060a01b036007541680331490816112f3575b50806112e8575b156112e45736601319013560601c90565b3390565b5060143610156112d3565b905015155f6112cc565b604051602081019290916001600160fb1b0382116101a057826020916113359360051b8091873781010301601f198101835282610d83565b5190209056fea2646970667358221220c2f9f57fa1a9dc17cae304b4066ca29d5b81a356eed100a42545dab5fb32b0c564736f6c634300081b0033",
        "nonce": "0x0",
        "chainId": "0x7a69"
      },
      "additionalContracts": [],
      "isFixedGasLimit": false
    },
    {
      "hash": "0x14dac80e41ca96433f7cb489835f144616152ced95abcb43188896081057699b",
      "transactionType": "CREATE",
      "contractName": "NexusDelegationManager",
      "contractAddress": "0xe7f1725e7734ce288f8367e1bb143e90bb3f0512",
      "function": null,
      "arguments": null,
      "transaction": {
        "from": "0xf39fd6e51aad88f6f4ce6ab8827279cfffb92266",
        "to": null,
        "value": "0x0",
        "input": "0x6080806040523460395760017f9b779b17422d0df92223018b32b4d1fa46e071723d6817e2486d003becc55f0055610f8f908161003e8239f35b5f80fdfe60806040526004361015610011575f80fd5b5f3560e01c806320a99259146100845780633ab351411461007f578063c66f57751461007a578063cef6d20914610075578063e7a324dc14610070578063f698da251461006b5763f6a0d60e14610066575f80fd5b6106e2565b6106c8565b61068e565b610177565b61010d565b6100e4565b346100ad5760206100a56100a03661009b366100b1565b6108e8565b610a82565b604051908152f35b5f80fd5b60206003198201126100ad57600435906001600160401b0382116100ad5760e09082900360031901126100ad5760040190565b346100ad5760206100a56100fe6100a03661009b366100b1565b610c0b565b5f9103126100ad57565b346100ad575f3660031901126100ad5760206040517f0ac12fd0d048a93db567c251b7987a4a005aa4fb208af047aa3e7ef45fbde44a8152f35b9181601f840112156100ad578235916001600160401b0383116100ad576020808501948460051b0101116100ad57565b346100ad5760603660031901126100ad576004356001600160401b0381116100ad576101a7903690600401610147565b906024356001600160401b0381116100ad576101c7903690600401610147565b926044356001600160401b0381116100ad576101e7903690600401610147565b92909160027f9b779b17422d0df92223018b32b4d1fa46e071723d6817e2486d003becc55f00541461067f5760027f9b779b17422d0df92223018b32b4d1fa46e071723d6817e2486d003becc55f0055858114801590610675575b610666575f5b81811061027a5761027860017f9b779b17422d0df92223018b32b4d1fa46e071723d6817e2486d003becc55f0055565b005b610285818388610994565b9088831015610661578260051b850135906102af6102a4858a8a610994565b929094810190610c3e565b9060408201518061065057506102c482610a82565b926102ce84610c0b565b6020840180519094916102f9916102f591906001600160a01b03169060c085015191610ddd565b1590565b6106415780516001600160a01b03168015158181610636575b50610617575060a0810180511561060857610334865f525f60205260405f2090565b54905111156105f457606090610351865f525f60205260405f2090565b61035b8154610c66565b905501948551519182156105e5575f5b83811061051f575061037d8483610e5e565b9091809a939a6105105788516040515f94859460208301936103bd9284926103af926001600160a01b03169187610d40565b03601f19810183528261073f565b51918c5af16103ca610d63565b90156104f257505f5b84811061043d5750509351600197969594506001600160a01b039350831691506103fa9050565b6040516001600160a01b039490941684523393911691907fe9722854338cd73cea002385d9c62274a72c2b221ec88de41046ffbcb808041190602090a401610248565b610448818351610c88565b51805190919061046e90610462906001600160a01b031681565b6001600160a01b031690565b602083015160409093015189516001600160a01b03169391803b156100ad57865f89936104b98f968e9984986040519b8c998a98899763d3eddcc560e01b8952339660048a01610cc0565b03925af19182156104ed576001926104d3575b50016103d3565b806104e15f6104e79361073f565b80610103565b5f6104cc565b610d35565b80511561050157602081519101fd5b632b3f6d1160e21b5f5260045ffd5b63ce3f0ecf60e01b5f5260045ffd5b61052a818951610c88565b518051909190610542906001600160a01b0316610462565b156105d657815161055d90610462906001600160a01b031681565b602083015160409093015188516001600160a01b03169391803b156100ad57855f88936105a882968f998e9a6040519b8c998a9889976350a2c19560e11b8952339660048a01610cc0565b03925af19182156104ed576001926105c2575b500161036b565b806104e15f6105d09361073f565b5f6105bb565b630bc2974760e11b5f5260045ffd5b637b25309960e01b5f5260045ffd5b639963a38560e01b5f52600485905260245ffd5b630119741f60e71b5f5260045ffd5b6377eecd4b60e01b5f526001600160a01b03166004523360245260445ffd5b90503314155f610312565b63dc176d7560e01b5f5260045ffd5b6259164d60e21b5f5260045260245ffd5b610980565b6305f8ded760e21b5f5260045ffd5b5083861415610242565b633ee5aeb560e01b5f5260045ffd5b346100ad575f3660031901126100ad5760206040517f39441c1b080a193e9695c122526cd6d53a221f04a4a0989b105a37477b4f9d138152f35b346100ad575f3660031901126100ad5760206100a56109d5565b346100ad5760203660031901126100ad576004355f525f602052602060405f2054604051908152f35b634e487b7160e01b5f52604160045260245ffd5b606081019081106001600160401b0382111761073a57604052565b61070b565b90601f801991011681019081106001600160401b0382111761073a57604052565b6040519061076f60e08361073f565b565b35906001600160a01b03821682036100ad57565b6001600160401b03811161073a5760051b60200190565b6001600160401b03811161073a57601f01601f191660200190565b81601f820112156100ad578035906107ce8261079c565b926107dc604051948561073f565b828452602083830101116100ad57815f926020809301838601378301015290565b9080601f830112156100ad5781359161081583610785565b92610823604051948561073f565b80845260208085019160051b830101918383116100ad5760208101915b83831061084f57505050505090565b82356001600160401b0381116100ad578201906060828703601f1901126100ad576040519061087d8261071f565b61088960208401610771565b825260408301356001600160401b0381116100ad578760206108ad928601016107b7565b60208301526060830135916001600160401b0383116100ad576108d8886020809695819601016107b7565b6040820152815201920191610840565b91909160e0818403126100ad576108fd610760565b9261090782610771565b845261091560208301610771565b60208501526040820135604085015260608201356001600160401b0381116100ad57816109439184016107fd565b60608501526080820135608085015260a082013560a085015260c08201356001600160401b0381116100ad5761097992016107b7565b60c0830152565b634e487b7160e01b5f52603260045260245ffd5b91908110156106615760051b81013590601e19813603018212156100ad5701908135916001600160401b0383116100ad5760200182360381136100ad579190565b60406015602082516109e7848261073f565b82815201742732bc3ab99023b0b6b2902232b632b3b0ba34b7b760591b815220610a7c600160208451610a1a868261073f565b828152603160f81b91019081522083517f8b73c3c69bb8fe3d512ecc4cf759cc79239f7b179b0ffacaa9a75d522b39400f60208083019182526040830195909552948101909301524660808301523060a080840191909152825260c08261073f565b51902090565b805160208201516040830151606084015180519095909390926001600160a01b03918216929116610ab285610785565b94610ac0604051968761073f565b808652610acf601f1991610785565b013660208701375f5b8751811015610b6f5780610aee6001928a610c88565b51828060a01b03815116906040602082015160208151910120910151602081519101206040519160208301937f0ac12fd0d048a93db567c251b7987a4a005aa4fb208af047aa3e7ef45fbde44a855260408401526060830152608082015260808152610b5b60a08261073f565b519020610b688289610c88565b5201610ad8565b509194610a7c9396506103af9194604051610b92816103af602082018095610d92565b5190209060a060808201519101519160405196879560208701998a9260c094919796959260e08501987f39441c1b080a193e9695c122526cd6d53a221f04a4a0989b105a37477b4f9d13865260018060a01b0316602086015260018060a01b031660408501526060840152608083015260a08201520152565b610c136109d5565b9060405190602082019261190160f01b84526022830152604282015260428152610a7c60628261073f565b906020828203126100ad5781356001600160401b0381116100ad57610c6392016108e8565b90565b9060018201809211610c7457565b634e487b7160e01b5f52601160045260245ffd5b80518210156106615760209160051b010190565b805180835260209291819084018484015e5f828201840152601f01601f1916010190565b96939460c096999895610cf060209594610ce3849560e08d5260e08d0190610c9c565b908b8203888d0152610c9c565b9360408a015288840360608a0152818452848401375f838284010152601f8019910116010195608085015260018060a01b031660a084015260018060a01b0316910152565b6040513d5f823e3d90fd5b826014949392823701906bffffffffffffffffffffffff199060601b1681520190565b3d15610d8d573d90610d748261079c565b91610d82604051938461073f565b82523d5f602084013e565b606090565b80516020909101905f5b818110610da95750505090565b8251845260209384019390920191600101610d9c565b60041115610dc957565b634e487b7160e01b5f52602160045260245ffd5b9190823b610e185790610def91610e9d565b50610df981610dbf565b159182610e0557505090565b6001600160a01b03918216911614919050565b916020926064835f94519060405193630b135d3f60e11b855260048501526040602485015286820190604485015e01915afa630b135d3f60e11b5f5114601f3d11161690565b9060348110610e8e57806014116100ad57813560601c92816034116100ad57601483013592603401916033190190565b6304bc946d60e21b5f5260045ffd5b8151919060418303610ecd57610ec69250602082015190606060408401519301515f1a90610ed7565b9192909190565b50505f9160029190565b91907f7fffffffffffffffffffffffffffffff5d576e7357a4501ddfe92f46681b20a08411610f4e579160209360809260ff5f9560405194855216868401526040830152606082015282805260015afa156104ed575f516001600160a01b03811615610f4457905f905f90565b505f906001905f90565b5050505f916003919056fea2646970667358221220870fc8f51b9cce5353f80cbd67a4d14a63a72f7f6aa531ca2a3bd29ff7a7f02e64736f6c634300081b0033",
        "nonce": "0x1",
        "chainId": "0x7a69"
      },
      "additionalContracts": [],
      "isFixedGasLimit": false
    },
    {
      "hash": "0x32aeb732bddfe177e93af3e03ae63e592576ddbf5e2a5009442e153cdba083e2",
      "transactionType": "CREATE",
      "contractName": "TurnManager",
      "contractAddress": "0x9fe46736679d2d9a65f0992f2272de9f3c7fa6e0",
      "function": null,
      "arguments": ["0xf39Fd6e51aad88F6F4ce6aB8827279cffFb92266"],
      "transaction": {
        "from": "0xf39fd6e51aad88f6f4ce6ab8827279cfffb92266",
        "to": null,
        "value": "0x0",
        "input": "0x608034608657601f610ce338819003918201601f19168301916001600160401b03831184841017608a57808492602094604052833981010312608657516001600160a01b03811690819003608657600180546001600160a01b031916821781555f9182526002602052604091829020805460ff1916909117905551610c44908161009f8239f35b5f80fd5b634e487b7160e01b5f52604160045260245ffdfe60806040526004361015610011575f80fd5b5f3560e01c806308148f7a146108c15780632d1fb3891461083a5780634e0f5cc8146107c5578063592139fa1461042e57806371d6ddd61461037e5780637fafd1981461029e578063951190d5146102835780639acda3bb1461025c578063b55991c014610201578063b9181611146101c4578063bdc0b89314610109578063ddc2a251146100d45763f851a440146100a8575f80fd5b346100d0575f3660031901126100d0576001546040516001600160a01b039091168152602090f35b5f80fd5b346100d05760203660031901126100d0576004355f526003602052602060018060a01b0360405f205460081c16604051908152f35b346100d05760403660031901126100d057600435602435805f0b908181036100d057335f52600260205260ff60405f205416156101b557825f52600360205260405f209160ff835416156101a2576101996020927f8585ca6c14a7521ff67de5b6d318798eea1e29d834a7a0c90a6d9e644fc0cb48949081549060e81b60ff60e81b169060ff60e81b1916179055565b604051908152a2005b83635ef804d360e11b5f5260045260245ffd5b638744ddab60e01b5f5260045ffd5b346100d05760203660031901126100d0576001600160a01b036101e56109b8565b165f526002602052602060ff60405f2054166040519015158152f35b346100d05760203660031901126100d0576004355f526003602052608060405f20546040519060018060a01b038160081c1682526001600160401b038160a81c1660208301528060e81c5f0b604083015260f01c6060820152f35b346100d0575f3660031901126100d0575f546040516001600160a01b039091168152602090f35b346100d0575f3660031901126100d0576020604051601e8152f35b346100d05760203660031901126100d0576004355f52600460205260405f2060405190816020825491828152019081925f5260205f20905f5b81811061035f57505050829003601f01601f191682016001600160401b0381118382101761034b5760408181526020808352845190830181905291928392918301915f5b818110610329575050500390f35b82516001600160a01b031684528594506020938401939092019160010161031b565b634e487b7160e01b5f52604160045260245ffd5b82546001600160a01b03168452602090930192600192830192016102d7565b346100d05760203660031901126100d057600435335f52600260205260ff60405f205416156101b557805f52600360205260405f2060ff8154161561041b576060816103eb7f60e5eb7454f554532b1c1395d15c4ccfc8a63ac174b76ad8fe87a78e8e813e4c9385610ab9565b546001600160401b036040519160018060a01b038160081c1683528060f01c602084015260a81c166040820152a2005b50635ef804d360e11b5f5260045260245ffd5b346100d05760603660031901126100d0576004356024356001600160401b0381116100d057366023820112156100d0578060040135906001600160401b0382116100d0576024810190602436918460051b0101116100d0576044356001600160401b038116908181036100d057335f52600260205260ff60405f205416156101b55783156107b65781156107a757845f52600360205260ff60405f20541661079457845f52600460205260405f208054905f815581610776575b50505f5b8481106106be5750610507906001600160401b034316610a1b565b90610511836109f2565b60405160c08101908082106001600160401b0383111761034b5761063361ffff896106136001600160401b03966001966040528686526020860190878060a01b031681526105f68880604089019c169b8c81526105ce60608a01948b865260808b01975f895260a08c019e8f525f5260036020526105a260405f209b5115158c9060ff801983541691151516179055565b518a54610100600160a81b03191660a08d901b8d90039190911660081b610100600160a81b0316178a55565b51885467ffffffffffffffff60a81b1916911660a81b67ffffffffffffffff60a81b16178755565b51855460e89190911b60ff60e81b1660ff60e81b19909116178555565b5183546001600160f01b0316911660f01b6001600160f01b031916178255565b019151166001600160401b031982541617905560405192806040850160408652526060840192905f905b80821061069457867fa4663596238e958f20b25cc69bc3648d070a6628c207d1a233185cbd3c280ef18780888860208301520390a2005b90919384359060018060a01b0382168092036100d05760208160019382935201950192019061065d565b855f52600460205260405f206106dd6106d88388886109ce565b6109f2565b9080546801000000000000000081101561034b5761070091600182018155610a06565b81546001600160a01b0393841660039290921b91821b9390911b1916919091179055600181019081811161076257600191875f52600560205260405f2061074b6106d8848a8a6109ce565b848060a01b03165f5260205260405f2055016104ec565b634e487b7160e01b5f52601160045260245ffd5b5f5260205f20908101905b818110156104e8575f8155600101610781565b846355dd109360e01b5f5260045260245ffd5b63be8cfd9760e01b5f5260045ffd5b630ceba8cf60e01b5f5260045ffd5b346100d05760203660031901126100d0576107de6109b8565b6001546001600160a01b0316330361082b575f54906001600160a01b03821661081c576001600160a01b03166001600160a01b031991909116175f55005b63eff465d760e01b5f5260045ffd5b632ca0794560e01b5f5260045ffd5b346100d05760403660031901126100d0576108536109b8565b60243590811515908183036100d0576001546001600160a01b0316330361082b577ff8b32f4ee3245ed08b1112f5d0f235cd6703b644bbbc9d3d5885adabd99447bd9161019960209260018060a01b031694855f526002845260405f209060ff801983541691151516179055565b346100d05760203660031901126100d057600435805f52600360205260405f2090815460ff81161561041b576001600160401b038160a81c16601e8101809111610762574311156109a557610914610a3b565b92825f52600560205260405f2060018060a01b0385165f5260205260405f205415610986577f51647d6db4db87608227623c4a03f901d89237aad859c019d7afdc5bacd658d9918461096860409386610ab9565b825160089290921c6001600160a01b039081168352166020820152a2005b5050637232abd960e01b5f5260045260018060a01b031660245260445ffd5b50638bc1d3ab60e01b5f5260045260245ffd5b600435906001600160a01b03821682036100d057565b91908110156109de5760051b0190565b634e487b7160e01b5f52603260045260245ffd5b356001600160a01b03811681036100d05790565b80548210156109de575f5260205f2001905f90565b906001600160401b03809116911601906001600160401b03821161076257565b5f546001600160a01b0316338114908180610a92575b610a5b5750503390565b81610a88575b5080610a7d575b15610a795736601319013560601c90565b3390565b506014361015610a68565b905015155f610a61565b50801515610a51565b8115610aa5570690565b634e487b7160e01b5f52601260045260245ffd5b5f8181526004602090815260408083208054600584528285208754600881901c6001600160a01b03168752945291909320549293909291908215610bfc57505f19820190828211610762575f60e89190911c810b12610bd3575091610b24610b2a92610b5294610a9b565b90610a06565b90548354610100600160a81b03191660039290921b1c60081b610100600160a81b0316178255565b6001815460f01c019061ffff82116107625780546001600160f01b031660f09290921b6001600160f01b031916919091178155610bd190610ba96001600160401b036001830154166001600160401b034316610a1b565b815467ffffffffffffffff60a81b191660a89190911b67ffffffffffffffff60a81b16179055565b565b9082015f190192908310610762575f19830192831161076257610b24610b2a92610b5294610a9b565b634315bccb60e01b5f5260045260245ffdfea2646970667358221220c3831fdf711a06025150855f32659a390cee28e1660475701bdd4b957d2c69ba64736f6c634300081b0033000000000000000000000000f39fd6e51aad88f6f4ce6ab8827279cfffb92266",
        "nonce": "0x2",
        "chainId": "0x7a69"
      },
      "additionalContracts": [],
      "isFixedGasLimit": false
    },
    {
      "hash": "0x0bc8d97ab21fa4ef03f5df77b64be41103f23e3523eea95bcb8e1b9c8fbfee2d",
      "transactionType": "CREATE",
      "contractName": "CounterGameSystem",
      "contractAddress": "0xcf7ed3acca5a467e9e704c703e8d87f634fb0fc9",
      "function": null,
      "arguments": ["0x9fE46736679d2D9a65F0992F2272dE9f3c7fa6e0"],
      "transaction": {
        "from": "0xf39fd6e51aad88f6f4ce6ab8827279cfffb92266",
        "to": null,
        "value": "0x0",
        "input": "0x60a034607f57601f6107f038819003918201601f19168301916001600160401b03831184841017608357808492602094604052833981010312607f57516001600160a01b0381168103607f57608052600180546001600160a01b031916331790556040516107589081610098823960805181818161010b01526102440152f35b5f80fd5b634e487b7160e01b5f52604160045260245ffdfe60806040526004361015610011575f80fd5b5f3560e01c80634e0f5cc81461013a57806355ed6e7b146100f6578063924ba506146100a35780639acda3bb1461007c5763f851a44014610050575f80fd5b34610078575f366003190112610078576001546040516001600160a01b039091168152602090f35b5f80fd5b34610078575f366003190112610078575f546040516001600160a01b039091168152602090f35b34610078576040366003190112610078575f546001600160a01b031633036100e75760206100d5602435600435610201565b6040516001600160a01b039091168152f35b637f0cf12160e01b5f5260045ffd5b34610078575f366003190112610078576040517f00000000000000000000000000000000000000000000000000000000000000006001600160a01b03168152602090f35b34610078576020366003190112610078576004356001600160a01b03811690819003610078576001546001600160a01b031633036101a0575f546001600160a01b038116610191576001600160a01b031916175f55005b63eff465d760e01b5f5260045ffd5b63224c20bb60e01b5f5260045ffd5b6040810190811067ffffffffffffffff8211176101cb57604052565b634e487b7160e01b5f52604160045260245ffd5b90601f8019910116810190811067ffffffffffffffff8211176101cb57604052565b905f9160018060a01b035f541680331490816104d7575b50806104cc575b156104c65736601319013560601c5b60405163ddc2a25160e01b8152600481018390527f00000000000000000000000000000000000000000000000000000000000000006001600160a01b031693602082602481885afa918215610445575f92610482575b506001600160a01b038381169216829003610473576102a384336105bd565b8181511015610464578051600181018091116104505780825283602083015260405160208101918252846040820152604081526102e16060826101df565b6102e96104e1565b6102f2886106e7565b92333b15610078575f9260209161032860405196879563e06f874160e01b8752600487015260806024870152608486019061058a565b916003198584030160448601525180918184528484015e84838284010152601f8019910116018382808584030192600319840160648701520152018183335af1801561044557610430575b5082857fd28d5bbc013bfd0b2247837323abd27c33fe4a7c8c2136b73e52d6e8a4e66c6f60208451604051908152a3511015610406575050813b156104025782916024839260405194859384926338eb6eeb60e11b845260048401525af180156103f7579082916103e357505090565b816103ed916101df565b6103f45790565b80fd5b6040513d84823e3d90fd5b8280fd5b925092807f2908efbe7d7a75447e2621588314d1d34c2583820d66d20cfbb8272bae44cc4e91a390565b61043d9197505f906101df565b5f955f610373565b6040513d5f823e3d90fd5b634e487b7160e01b5f52601160045260245ffd5b637de2757960e11b5f5260045ffd5b630131cc4b60e31b5f5260045ffd5b9091506020813d6020116104be575b8161049e602093836101df565b8101031261007857516001600160a01b038116810361007857905f610284565b3d9150610491565b3361022e565b50601436101561021f565b905015155f610218565b60408051613a3160f11b60208083019182525f60228401526621b7bab73a32b960c91b603084015282529161051690826101df565b5190519060208110610526575090565b5f199060200360031b1b1690565b81601f820112156100785780519067ffffffffffffffff82116101cb5760405192610569601f8401601f1916602001856101df565b8284526020838301011161007857815f9260208093018386015e8301015290565b90602080835192838152019201905f5b8181106105a75750505090565b825184526020938401939092019160010161059a565b91905f610615916040516105d0816101af565b828152826020820152946105eb6105e56104e1565b926106e7565b91604051809581948293636624edbf60e11b8452600484015260406024840152604483019061058a565b03916001600160a01b03165afa908115610445575f91610686575b5080511561066b576040818051810103126100785760208101516040909101516001600160a01b038116908190036100785760208401528252565b50905060405161067a816101af565b5f81525f602082015290565b90503d805f833e61069781836101df565b81019060408183031261007857805167ffffffffffffffff811161007857826106c1918301610534565b91602082015167ffffffffffffffff8111610078576106e09201610534565b505f610630565b90604051916106f76040846101df565b6001835260208084019036823783511561070e5752565b634e487b7160e01b5f52603260045260245ffdfea2646970667358221220a98c8bcd0602af815c78652e8c42834730e151771faf0c82cc3dcaa691f7f85164736f6c634300081b00330000000000000000000000009fe46736679d2d9a65f0992f2272de9f3c7fa6e0",
        "nonce": "0x3",
        "chainId": "0x7a69"
      },
      "additionalContracts": [],
      "isFixedGasLimit": false
    },
    {
      "hash": "0xe0164cce8c6a93f1d6c04d3544fd62c2baf5db9402d53fd4aa25ace974d2ce99",
      "transactionType": "CALL",
      "contractName": "World",
      "contractAddress": "0x5fbdb2315678afecb367f032d93f642f64180aa3",
      "function": "registerTable(bytes32,bytes32,bytes32,string[])",
      "arguments": [
        "0x74620000000000000000000000000000436f756e746572000000000000000000",
        "0x0000000000000000000000000000000000000000000000000000000000000001",
        "0x0000000000000000000000000000000000000000000000000000000000000002",
        "[value, lastMover]"
      ],
      "transaction": {
        "from": "0xf39fd6e51aad88f6f4ce6ab8827279cfffb92266",
        "to": "0x5fbdb2315678afecb367f032d93f642f64180aa3",
        "value": "0x0",
        "input": "0x34be086f74620000000000000000000000000000436f756e746572000000000000000000000000000000000000000000000000000000000000000000000000000000000100000000000000000000000000000000000000000000000000000000000000020000000000000000000000000000000000000000000000000000000000000080000000000000000000000000000000000000000000000000000000000000000200000000000000000000000000000000000000000000000000000000000000400000000000000000000000000000000000000000000000000000000000000080000000000000000000000000000000000000000000000000000000000000000576616c756500000000000000000000000000000000000000000000000000000000000000000000000000000000000000000000000000000000000000000000096c6173744d6f7665720000000000000000000000000000000000000000000000",
        "nonce": "0x4",
        "chainId": "0x7a69"
      },
      "additionalContracts": [],
      "isFixedGasLimit": false
    },
    {
      "hash": "0xcce7abced552d7fc897cd1b9d1392e24165d8a564d8bfca96c823088911d6c7b",
      "transactionType": "CALL",
      "contractName": "World",
      "contractAddress": "0x5fbdb2315678afecb367f032d93f642f64180aa3",
      "function": "registerSystem(bytes32,address)",
      "arguments": [
        "0x436f756e74657247616d65000000000000000000000000000000000000000000",
        "0xCf7Ed3AccA5a467e9e704C703E8D87F634fB0Fc9"
      ],
      "transaction": {
        "from": "0xf39fd6e51aad88f6f4ce6ab8827279cfffb92266",
        "to": "0x5fbdb2315678afecb367f032d93f642f64180aa3",
        "value": "0x0",
        "input": "0x1a6aae40436f756e74657247616d65000000000000000000000000000000000000000000000000000000000000000000cf7ed3acca5a467e9e704c703e8d87f634fb0fc9",
        "nonce": "0x5",
        "chainId": "0x7a69"
      },
      "additionalContracts": [],
      "isFixedGasLimit": false
    },
    {
      "hash": "0x820d1c70d19d055e85678809ae13bb885acb8d1b065d534ecab41ef785d78029",
      "transactionType": "CALL",
      "contractName": "World",
      "contractAddress": "0x5fbdb2315678afecb367f032d93f642f64180aa3",
      "function": "grantWriteAccess(bytes32,address)",
      "arguments": [
        "0x74620000000000000000000000000000436f756e746572000000000000000000",
        "0xCf7Ed3AccA5a467e9e704C703E8D87F634fB0Fc9"
      ],
      "transaction": {
        "from": "0xf39fd6e51aad88f6f4ce6ab8827279cfffb92266",
        "to": "0x5fbdb2315678afecb367f032d93f642f64180aa3",
        "value": "0x0",
        "input": "0xe06c193974620000000000000000000000000000436f756e746572000000000000000000000000000000000000000000cf7ed3acca5a467e9e704c703e8d87f634fb0fc9",
        "nonce": "0x6",
        "chainId": "0x7a69"
      },
      "additionalContracts": [],
      "isFixedGasLimit": false
    },
    {
      "hash": "0x1b3b1bee3e582dbe59f910ee07510d2f20e5d6ee5f2b2ffc7c90ded143c2d932",
      "transactionType": "CALL",
      "contractName": "World",
      "contractAddress": "0x5fbdb2315678afecb367f032d93f642f64180aa3",
      "function": "setTrustedForwarder(address)",
      "arguments": ["0xe7f1725E7734CE288F8367e1Bb143E90bb3F0512"],
      "transaction": {
        "from": "0xf39fd6e51aad88f6f4ce6ab8827279cfffb92266",
        "to": "0x5fbdb2315678afecb367f032d93f642f64180aa3",
        "value": "0x0",
        "input": "0xda742228000000000000000000000000e7f1725e7734ce288f8367e1bb143e90bb3f0512",
        "nonce": "0x7",
        "chainId": "0x7a69"
      },
      "additionalContracts": [],
      "isFixedGasLimit": false
    },
    {
      "hash": "0x16efa5cc83a4f569f5a1c21d8c1fb42dd4f2096c8ab5b2c75d1374001f1ed2af",
      "transactionType": "CALL",
      "contractName": "CounterGameSystem",
      "contractAddress": "0xcf7ed3acca5a467e9e704c703e8d87f634fb0fc9",
      "function": "setTrustedRouter(address)",
      "arguments": ["0x5FbDB2315678afecb367f032d93F642f64180aa3"],
      "transaction": {
        "from": "0xf39fd6e51aad88f6f4ce6ab8827279cfffb92266",
        "to": "0xcf7ed3acca5a467e9e704c703e8d87f634fb0fc9",
        "value": "0x0",
        "input": "0x4e0f5cc80000000000000000000000005fbdb2315678afecb367f032d93f642f64180aa3",
        "nonce": "0x8",
        "chainId": "0x7a69"
      },
      "additionalContracts": [],
      "isFixedGasLimit": false
    },
    {
      "hash": "0xa7d73fb36466311e9ec7652c084517b435e72864e17bd13e50bf27bac6e65414",
      "transactionType": "CALL",
      "contractName": "TurnManager",
      "contractAddress": "0x9fe46736679d2d9a65f0992f2272de9f3c7fa6e0",
      "function": "authorize(address,bool)",
      "arguments": ["0xCf7Ed3AccA5a467e9e704C703E8D87F634fB0Fc9", "true"],
      "transaction": {
        "from": "0xf39fd6e51aad88f6f4ce6ab8827279cfffb92266",
        "to": "0x9fe46736679d2d9a65f0992f2272de9f3c7fa6e0",
        "value": "0x0",
        "input": "0x2d1fb389000000000000000000000000cf7ed3acca5a467e9e704c703e8d87f634fb0fc90000000000000000000000000000000000000000000000000000000000000001",
        "nonce": "0x9",
        "chainId": "0x7a69"
      },
      "additionalContracts": [],
      "isFixedGasLimit": false
    },
    {
      "hash": "0x7bb435d226c99aa4bf554c7b90f6f316bbc17a3a1ea74ec511488895731728e0",
      "transactionType": "CALL",
      "contractName": "TurnManager",
      "contractAddress": "0x9fe46736679d2d9a65f0992f2272de9f3c7fa6e0",
      "function": "authorize(address,bool)",
      "arguments": ["0xf39Fd6e51aad88F6F4ce6aB8827279cffFb92266", "true"],
      "transaction": {
        "from": "0xf39fd6e51aad88f6f4ce6ab8827279cfffb92266",
        "to": "0x9fe46736679d2d9a65f0992f2272de9f3c7fa6e0",
        "value": "0x0",
        "input": "0x2d1fb389000000000000000000000000f39fd6e51aad88f6f4ce6ab8827279cfffb922660000000000000000000000000000000000000000000000000000000000000001",
        "nonce": "0xa",
        "chainId": "0x7a69"
      },
      "additionalContracts": [],
      "isFixedGasLimit": false
    },
    {
      "hash": "0xd88dbda0ac76067fa75c3333f63f6591396b25b0472a12bcca180d73919df0ae",
      "transactionType": "CALL",
      "contractName": "TurnManager",
      "contractAddress": "0x9fe46736679d2d9a65f0992f2272de9f3c7fa6e0",
      "function": "setTrustedRouter(address)",
      "arguments": ["0x5FbDB2315678afecb367f032d93F642f64180aa3"],
      "transaction": {
        "from": "0xf39fd6e51aad88f6f4ce6ab8827279cfffb92266",
        "to": "0x9fe46736679d2d9a65f0992f2272de9f3c7fa6e0",
        "value": "0x0",
        "input": "0x4e0f5cc80000000000000000000000005fbdb2315678afecb367f032d93f642f64180aa3",
        "nonce": "0xb",
        "chainId": "0x7a69"
      },
      "additionalContracts": [],
      "isFixedGasLimit": false
    },
    {
      "hash": "0x6af6fbc111000d588260f8475f148a893a1b3c8835965ab41c975a7778dd64cb",
      "transactionType": "CALL",
      "contractName": "TurnManager",
      "contractAddress": "0x9fe46736679d2d9a65f0992f2272de9f3c7fa6e0",
      "function": "startTurns(uint256,address[],uint64)",
      "arguments": [
        "1",
        "[0x70997970C51812dc3A010C7d01b50e0d17dc79C8, 0x3C44CdDdB6a900fa2b585dd299e03d12FA4293BC]",
        "5000"
      ],
      "transaction": {
        "from": "0xf39fd6e51aad88f6f4ce6ab8827279cfffb92266",
        "to": "0x9fe46736679d2d9a65f0992f2272de9f3c7fa6e0",
        "value": "0x0",
        "input": "0x592139fa000000000000000000000000000000000000000000000000000000000000000100000000000000000000000000000000000000000000000000000000000000600000000000000000000000000000000000000000000000000000000000001388000000000000000000000000000000000000000000000000000000000000000200000000000000000000000070997970c51812dc3a010c7d01b50e0d17dc79c80000000000000000000000003c44cdddb6a900fa2b585dd299e03d12fa4293bc",
        "nonce": "0xc",
        "chainId": "0x7a69"
      },
      "additionalContracts": [],
      "isFixedGasLimit": false
    },
    {
      "hash": "0x3b249a3bdb056fe727b89de314168e0e3500142b85d3499d5d6b3aa34b45e99e",
      "transactionType": "CREATE",
      "contractName": "TurnBoundEnforcer",
      "contractAddress": "0x0dcd1bf9a1b36ce34237eeafef220932846bcd82",
      "function": null,
      "arguments": null,
      "transaction": {
        "from": "0xf39fd6e51aad88f6f4ce6ab8827279cfffb92266",
        "to": null,
        "value": "0x0",
        "input": "0x60808060405234601557610250908161001a8239f35b5f80fdfe6080806040526004361015610012575f80fd5b5f3560e01c908163a145832a14610046575063d3eddcc514610032575f80fd5b346100425761004036610174565b005b5f80fd5b3461004257604061005636610174565b509896945050505050838092500103126100425780356001600160a01b03811691908290036100425760248460209384829463ddc2a25160e01b8452013560048301525afa91821561013b575f926100cd575b506001600160a01b039081169116036100be57005b631cc191eb60e31b5f5260045ffd5b90915060203d602011610134575b601f8101601f1916820167ffffffffffffffff8111838210176101205760209183916040528101031261004257516001600160a01b03811681036100425790826100a9565b634e487b7160e01b5f52604160045260245ffd5b503d6100db565b6040513d5f823e3d90fd5b9181601f840112156100425782359167ffffffffffffffff8311610042576020838186019501011161004257565b9060e06003198301126100425760043567ffffffffffffffff811161004257826101a091600401610146565b9290929160243567ffffffffffffffff811161004257826101c391600401610146565b92909291604435916064359067ffffffffffffffff8211610042576101ea91600401610146565b90916084359060a4356001600160a01b0381168103610042579060c4356001600160a01b0381168103610042579056fea264697066735822122089d850eeedbe13106af82cd4bab8c094f0ad5acd47ea5b5fe0929cc08e4c0ec864736f6c634300081b0033",
        "nonce": "0xd",
        "chainId": "0x7a69"
      },
      "additionalContracts": [],
      "isFixedGasLimit": false
    },
    {
      "hash": "0x4b13ca065ed8e49bde7f1ba5bc7bc6959596386fe98181c65ee1cab0e56d590e",
      "transactionType": "CREATE",
      "contractName": "SystemAllowlistEnforcer",
      "contractAddress": "0x9a676e781a523b5d0c0e43731313a708cb607508",
      "function": null,
      "arguments": null,
      "transaction": {
        "from": "0xf39fd6e51aad88f6f4ce6ab8827279cfffb92266",
        "to": null,
        "value": "0x0",
        "input": "0x608080604052346015576102e7908161001a8239f35b5f80fdfe6080806040526004361015610012575f80fd5b5f3560e01c908163a145832a14610046575063d3eddcc514610032575f80fd5b3461004257610040366101d8565b005b5f80fd5b3461004257610054366101d8565b505050935095949391505082016040838203126100425782356001600160a01b03811693908490036100425760208101359067ffffffffffffffff8211610042570181601f820112156100425780359067ffffffffffffffff8211610196578160051b91601f19603f840116870187811067ffffffffffffffff82111761019657604052865260208087019282010192831161004257602001905b828210610186575050506034811061017757806014116100425780603411610042576033190190833560601c0361016857602481106101685780600411610042576318a30a1f60e31b60348401356001600160e01b03191601610168576024116100425760386101619201359061027e565b1561016857005b63e2b8d77d60e01b5f5260045ffd5b6304bc946d60e21b5f5260045ffd5b81358152602091820191016100ef565b634e487b7160e01b5f52604160045260245ffd5b9181601f840112156100425782359167ffffffffffffffff8311610042576020838186019501011161004257565b9060e06003198301126100425760043567ffffffffffffffff81116100425782610204916004016101aa565b9290929160243567ffffffffffffffff81116100425782610227916004016101aa565b92909291604435916064359067ffffffffffffffff82116100425761024e916004016101aa565b90916084359060a4356001600160a01b0381168103610042579060c4356001600160a01b03811681036100425790565b905f5b82518110156102aa578160208260051b85010151146102a257600101610281565b505050600190565b5050505f9056fea2646970667358221220eb33bc912e68a03f749e1299c1708f5172741c768dc8875385fda3f35445eb9e64736f6c634300081b0033",
        "nonce": "0xe",
        "chainId": "0x7a69"
      },
      "additionalContracts": [],
      "isFixedGasLimit": false
    },
    {
      "hash": "0xa28235a26f27dc82ef27d9d3ec1fbdcc719ac49d68a9716e83372134db384f94",
      "transactionType": "CREATE",
      "contractName": "TimestampEnforcer",
      "contractAddress": "0x0b306bf915c4d645ff596e518faf3f9669b97016",
      "function": null,
      "arguments": null,
      "transaction": {
        "from": "0xf39fd6e51aad88f6f4ce6ab8827279cfffb92266",
        "to": null,
        "value": "0x0",
        "input": "0x6080806040523460155761018f908161001a8239f35b5f80fdfe60806040526004361015610011575f80fd5b5f3560e01c8063a145832a146100435763d3eddcc51461002f575f80fd5b3461003f5761003d366100b3565b005b5f80fd5b3461003f576020610053366100b3565b5050505050505050908092918101031261003f576103e890350442101561007657005b6330d3ba0760e01b5f5260045ffd5b9181601f8401121561003f5782359167ffffffffffffffff831161003f576020838186019501011161003f57565b9060e060031983011261003f5760043567ffffffffffffffff811161003f57826100df91600401610085565b9290929160243567ffffffffffffffff811161003f578261010291600401610085565b92909291604435916064359067ffffffffffffffff821161003f5761012991600401610085565b90916084359060a4356001600160a01b038116810361003f579060c4356001600160a01b038116810361003f579056fea2646970667358221220f1d97c0999ae20a67e5290813f887b1d4a91fc8397f2fedf07d483d9baf21a7d64736f6c634300081b0033",
        "nonce": "0xf",
        "chainId": "0x7a69"
      },
      "additionalContracts": [],
      "isFixedGasLimit": false
    },
    {
      "hash": "0x344e2bad535bc70a90bf9523c4fc508ef5d72f9c162002519a46766a556fb6f5",
      "transactionType": "CREATE",
      "contractName": "LimitedCallsEnforcer",
      "contractAddress": "0x959922be3caee4b8cd9a407cc3ac1c251c2007b1",
      "function": null,
      "arguments": null,
      "transaction": {
        "from": "0xf39fd6e51aad88f6f4ce6ab8827279cfffb92266",
        "to": null,
        "value": "0x0",
        "input": "0x6080806040523460155761022b908161001a8239f35b5f80fdfe60806040526004361015610011575f80fd5b5f3560e01c8063a145832a14610095578063d3eddcc5146100855763ff5ad0e51461003a575f80fd5b34610081576040366003190112610081576004356001600160a01b03811690819003610081575f525f60205260405f206024355f52602052602060405f2054604051908152f35b5f80fd5b34610081576100933661014f565b005b346100815760206100a53661014f565b505096979593505050508480925001031261008157335f525f60205260405f20815f5260205260405f2054913582101561011257600182018092116100fe57335f525f60205260405f20905f5260205260405f20555f80f35b634e487b7160e01b5f52601160045260245ffd5b6330def6b560e01b5f5260045ffd5b9181601f840112156100815782359167ffffffffffffffff8311610081576020838186019501011161008157565b9060e06003198301126100815760043567ffffffffffffffff8111610081578261017b91600401610121565b9290929160243567ffffffffffffffff8111610081578261019e91600401610121565b92909291604435916064359067ffffffffffffffff8211610081576101c591600401610121565b90916084359060a4356001600160a01b0381168103610081579060c4356001600160a01b0381168103610081579056fea26469706673582212209708e2f1117a5a84367baca9bfd5198824e3b1fa97749a8505fce12a29b9c0cc64736f6c634300081b0033",
        "nonce": "0x10",
        "chainId": "0x7a69"
      },
      "additionalContracts": [],
      "isFixedGasLimit": false
    },
    {
      "hash": "0xd5f1c9a865a70da9e472b57eeaafb74acfa8a98544c3a1c69b7e54cbde41755a",
      "transactionType": "CREATE",
      "contractName": "PerActionCapEnforcer",
      "contractAddress": "0x9a9f2ccfde556a7e9ff0848998aa4a0cfd8863ae",
      "function": null,
      "arguments": null,
      "transaction": {
        "from": "0xf39fd6e51aad88f6f4ce6ab8827279cfffb92266",
        "to": null,
        "value": "0x0",
        "input": "0x60808060405234601557610274908161001a8239f35b5f80fdfe60806040526004361015610011575f80fd5b5f3560e01c8063a145832a146100435763d3eddcc51461002f575f80fd5b3461003f5761003d36610198565b005b5f80fd5b3461003f57604061005336610198565b509550509490958097935080925001031261003f5783356001600160a01b038116929083900361003f576034811061015b578060141161003f578060341161003f576033190191833560601c036100f457600482106100f4578160041161003f5760348301356001600160e01b03191663a9059cbb60e01b8103610103575050604481106100f45760441161003f5760586020910135915b0135106100f457005b63068562c960e11b5f5260045ffd5b6323b872dd60e01b036100f457606482106100f4578160241161003f576001600160a01b0390811660388401359091160361014c5760641161003f5760786020910135916100eb565b63098263f760e31b5f5260045ffd5b6304bc946d60e21b5f5260045ffd5b9181601f8401121561003f5782359167ffffffffffffffff831161003f576020838186019501011161003f57565b9060e060031983011261003f5760043567ffffffffffffffff811161003f57826101c49160040161016a565b9290929160243567ffffffffffffffff811161003f57826101e79160040161016a565b92909291604435916064359067ffffffffffffffff821161003f5761020e9160040161016a565b90916084359060a4356001600160a01b038116810361003f579060c4356001600160a01b038116810361003f579056fea2646970667358221220e82da73bee3950b82561f4c521eac97bbfdf57418cb4196bc61b287250d4591964736f6c634300081b0033",
        "nonce": "0x11",
        "chainId": "0x7a69"
      },
      "additionalContracts": [],
      "isFixedGasLimit": false
    },
    {
      "hash": "0x26c977b32e3995a1ea0d59415180ccb74c42a8a39cd68e47ed6a7b519b1f8914",
      "transactionType": "CREATE",
      "contractName": "ERC20TransferAmountEnforcer",
      "contractAddress": "0x68b1d87f95878fe05b998f19b66f4baba5de1aed",
      "function": null,
      "arguments": null,
      "transaction": {
        "from": "0xf39fd6e51aad88f6f4ce6ab8827279cfffb92266",
        "to": null,
        "value": "0x0",
        "input": "0x6080806040523460155761030e908161001a8239f35b5f80fdfe6080806040526004361015610012575f80fd5b5f3560e01c9081639dd5d9ab146101c157508063a145832a146100515763d3eddcc51461003d575f80fd5b3461004d5761004b36610232565b005b5f80fd5b3461004d57604061006136610232565b509450968098935080929691955001031261004d5784356001600160a01b038116929083900361004d57603481106101b2578060141161004d578060341161004d576033190191833560601c0361013a576004821061013a578160041161004d5760348301356001600160e01b03191663a9059cbb60e01b810361015d5750506044811061013a5760441161004d5760580135915b335f525f60205260405f20825f5260205260405f20549283018093116101495760200135821161013a57335f525f60205260405f20905f5260205260405f20555f80f35b6376e0dfc160e11b5f5260045ffd5b634e487b7160e01b5f52601160045260245ffd5b6323b872dd60e01b0361013a576064821061013a578160241161004d576001600160a01b039081166038840135909116036101a35760641161004d5760780135916100f6565b63098263f760e31b5f5260045ffd5b6304bc946d60e21b5f5260045ffd5b3461004d57604036600319011261004d576004356001600160a01b038116919082900361004d576020915f525f825260405f206024355f52825260405f20548152f35b9181601f8401121561004d5782359167ffffffffffffffff831161004d576020838186019501011161004d57565b9060e060031983011261004d5760043567ffffffffffffffff811161004d578261025e91600401610204565b9290929160243567ffffffffffffffff811161004d578261028191600401610204565b92909291604435916064359067ffffffffffffffff821161004d576102a891600401610204565b90916084359060a4356001600160a01b038116810361004d579060c4356001600160a01b038116810361004d579056fea26469706673582212202dfea5ca467d87da043282288f9353e3090b1a704549769378f80aac6dd462a464736f6c634300081b0033",
        "nonce": "0x12",
        "chainId": "0x7a69"
      },
      "additionalContracts": [],
      "isFixedGasLimit": false
    },
    {
      "hash": "0x8d7c32dffc1b3dff1f97a223285d5e8e93038872f48566bf52650cd0b451bb52",
      "transactionType": "CREATE",
      "contractName": "AllowedRecipientsEnforcer",
      "contractAddress": "0x3aa5ebb10dc797cac828524e59a333d0a371443c",
      "function": null,
      "arguments": null,
      "transaction": {
        "from": "0xf39fd6e51aad88f6f4ce6ab8827279cfffb92266",
        "to": null,
        "value": "0x0",
        "input": "0x6080806040523460155761036a908161001a8239f35b5f80fdfe60806040526004361015610011575f80fd5b5f3560e01c8063a145832a146100435763d3eddcc51461002f575f80fd5b3461003f5761003d36610091565b005b5f80fd5b3461003f5761003d61005436610091565b50979350509492509250610137565b9181601f8401121561003f5782359167ffffffffffffffff831161003f576020838186019501011161003f57565b9060e060031983011261003f5760043567ffffffffffffffff811161003f57826100bd91600401610063565b9290929160243567ffffffffffffffff811161003f57826100e091600401610063565b92909291604435916064359067ffffffffffffffff821161003f5761010791600401610063565b90916084359060a4356001600160a01b038116810361003f579060c4356001600160a01b038116810361003f5790565b9192939082019360408386031261003f5782356001600160a01b038116939084900361003f5760208101359067ffffffffffffffff821161003f570185601f8201121561003f5780359567ffffffffffffffff8711610320578660051b9160405197601f19603f850116890189811067ffffffffffffffff82111761032057604052885260208089019382010191821161003f57602001915b81831061030057505050603481106102f1578060141161003f578060341161003f576033190191833560601c036102855760048210610285578160041161003f5760348301356001600160e01b03191663a9059cbb60e01b8103610294575050604481106102855760241161003f57603801356001600160a01b03165b8151915f5b8381101561028557600581901b8201602001516001600160a01b0384811691161461027f57600101610252565b50505050565b63133307bb60e21b5f5260045ffd5b6323b872dd60e01b036102855760648210610285578160241161003f576001600160a01b039081166038840135909116036102e25760441161003f57605801356001600160a01b031661024d565b63098263f760e31b5f5260045ffd5b6304bc946d60e21b5f5260045ffd5b82356001600160a01b038116810361003f578152602092830192016101d0565b634e487b7160e01b5f52604160045260245ffdfea26469706673582212209601d358da01fa4c4aa37acc7e2be508387734f26ba309ef2f7dc3ba5efd704864736f6c634300081b0033",
        "nonce": "0x13",
        "chainId": "0x7a69"
      },
      "additionalContracts": [],
      "isFixedGasLimit": false
    },
    {
      "hash": "0x5cb4ed666e52271104c0708dff63db568e05b350313e2f941df01879964cff02",
      "transactionType": "CREATE",
      "contractName": "TestUSDC",
      "contractAddress": "0xc6e7df5e7b4f2a278906862b61205850344d4e7d",
      "function": null,
      "arguments": null,
      "transaction": {
        "from": "0xf39fd6e51aad88f6f4ce6ab8827279cfffb92266",
        "to": null,
        "value": "0x0",
        "input": "0x60806040523461031357604080519081016001600160401b03811182821017610226576040908152600982526854657374205553444360b81b602083015280519081016001600160401b038111828210176102265760405260048152635553444360e01b602082015281516001600160401b03811161022657600354600181811c91168015610309575b602082101461020857601f81116102a6575b50602092601f821160011461024557928192935f9261023a575b50508160011b915f199060031b1c1916176003555b80516001600160401b03811161022657600454600181811c9116801561021c575b602082101461020857601f81116101a5575b50602091601f8211600114610145579181925f9261013a575b50508160011b915f199060031b1c1916176004555b6040516106a190816103188239f35b015190505f80610116565b601f1982169260045f52805f20915f5b85811061018d57508360019510610175575b505050811b0160045561012b565b01515f1960f88460031b161c191690555f8080610167565b91926020600181928685015181550194019201610155565b60045f527f8a35acfbc15ff81a39ae7d344fd709f28e8600b4aa8c65c6b64bfe7fe36bd19b601f830160051c810191602084106101fe575b601f0160051c01905b8181106101f357506100fd565b5f81556001016101e6565b90915081906101dd565b634e487b7160e01b5f52602260045260245ffd5b90607f16906100eb565b634e487b7160e01b5f52604160045260245ffd5b015190505f806100b5565b601f1982169360035f52805f20915f5b86811061028e5750836001959610610276575b505050811b016003556100ca565b01515f1960f88460031b161c191690555f8080610268565b91926020600181928685015181550194019201610255565b60035f527fc2575a0e9e593c00f959f8c92f12db2869c3395a3b0502d05e2516446f71f85b601f830160051c810191602084106102ff575b601f0160051c01905b8181106102f4575061009b565b5f81556001016102e7565b90915081906102de565b90607f1690610089565b5f80fdfe6080806040526004361015610012575f80fd5b5f3560e01c90816306fdde031461049c57508063095ea7b31461041a57806318160ddd146103fd57806323b872dd1461031e578063313ce5671461030357806340c10f191461026157806370a082311461022a57806395d89b411461010f578063a9059cbb146100de5763dd62ed3e1461008a575f80fd5b346100da5760403660031901126100da576100a3610595565b6100ab6105ab565b6001600160a01b039182165f908152600160209081526040808320949093168252928352819020549051908152f35b5f80fd5b346100da5760403660031901126100da576101046100fa610595565b60243590336105c1565b602060405160018152f35b346100da575f3660031901126100da576040515f6004548060011c90600181168015610220575b60208310811461020c578285529081156101f0575060011461019b575b50819003601f01601f191681019067ffffffffffffffff821181831017610187576101838291826040528261056b565b0390f35b634e487b7160e01b5f52604160045260245ffd5b905060045f527f8a35acfbc15ff81a39ae7d344fd709f28e8600b4aa8c65c6b64bfe7fe36bd19b5f905b8282106101da57506020915082010182610153565b60018160209254838588010152019101906101c5565b90506020925060ff191682840152151560051b82010182610153565b634e487b7160e01b5f52602260045260245ffd5b91607f1691610136565b346100da5760203660031901126100da576001600160a01b0361024b610595565b165f525f602052602060405f2054604051908152f35b346100da5760403660031901126100da5761027a610595565b6001600160a01b031660243581156102f057600254908082018092116102dc5760207fddf252ad1be2c89b69c2b068fc378daa952ba7f163c4a11628f55a4df523b3ef915f9360025584845283825260408420818154019055604051908152a3005b634e487b7160e01b5f52601160045260245ffd5b63ec442f0560e01b5f525f60045260245ffd5b346100da575f3660031901126100da57602060405160068152f35b346100da5760603660031901126100da57610337610595565b61033f6105ab565b6001600160a01b0382165f818152600160209081526040808320338452909152902054909260443592915f19811061037d575b5061010493506105c1565b8381106103e25784156103cf5733156103bc57610104945f52600160205260405f2060018060a01b0333165f526020528360405f209103905584610372565b634a1406b160e11b5f525f60045260245ffd5b63e602df0560e01b5f525f60045260245ffd5b8390637dc7a0d960e11b5f523360045260245260445260645ffd5b346100da575f3660031901126100da576020600254604051908152f35b346100da5760403660031901126100da57610433610595565b6024359033156103cf576001600160a01b03169081156103bc57335f52600160205260405f20825f526020528060405f20556040519081527f8c5be1e5ebec7d5bd14f71427d1e84f3dd0314c0f7b2291e5b200ac8c7c3b92560203392a3602060405160018152f35b346100da575f3660031901126100da575f6003548060011c90600181168015610561575b60208310811461020c578285529081156101f0575060011461050c5750819003601f01601f191681019067ffffffffffffffff821181831017610187576101838291826040528261056b565b905060035f527fc2575a0e9e593c00f959f8c92f12db2869c3395a3b0502d05e2516446f71f85b5f905b82821061054b57506020915082010182610153565b6001816020925483858801015201910190610536565b91607f16916104c0565b602060409281835280519182918282860152018484015e5f828201840152601f01601f1916010190565b600435906001600160a01b03821682036100da57565b602435906001600160a01b03821682036100da57565b6001600160a01b0316908115610658576001600160a01b03169182156102f057815f525f60205260405f205481811061063f57817fddf252ad1be2c89b69c2b068fc378daa952ba7f163c4a11628f55a4df523b3ef92602092855f525f84520360405f2055845f525f825260405f20818154019055604051908152a3565b8263391434e360e21b5f5260045260245260445260645ffd5b634b637e8f60e11b5f525f60045260245ffdfea264697066735822122007c2ea28270c98dcb2c09a513c17d22dbfa66a915ae9f60368615fca0a6b116c64736f6c634300081b0033",
        "nonce": "0x14",
        "chainId": "0x7a69"
      },
      "additionalContracts": [],
      "isFixedGasLimit": false
    },
    {
      "hash": "0xa5e3a53f75e3566f0c61602e1314334061ad36d144bbc2b6f318e9eae5bafd91",
      "transactionType": "CREATE",
      "contractName": "Pot",
      "contractAddress": "0x59b670e9fa9d0a427751af201d676719a970857b",
      "function": null,
      "arguments": [
        "0xc6e7DF5E7b4f2A278906862b61205850344D4e7d",
        "0xf39Fd6e51aad88F6F4ce6aB8827279cffFb92266",
        "0xf39Fd6e51aad88F6F4ce6aB8827279cffFb92266",
        "0",
        "0xf39Fd6e51aad88F6F4ce6aB8827279cffFb92266",
        "50",
        "100000"
      ],
      "transaction": {
        "from": "0xf39fd6e51aad88f6f4ce6ab8827279cfffb92266",
        "to": null,
        "value": "0x0",
        "input": "0x610160346101e757601f61117638819003918201601f19168301916001600160401b038311848410176101eb5780849260e0946040528339810103126101e7578051906001600160a01b0382168083036101e75761005f602083016101ff565b61006b604084016101ff565b60608401519161ffff8316958684036101e75761008a608087016101ff565b946127106100a660c061009f60a08b01610213565b9901610213565b9860017f9b779b17422d0df92223018b32b4d1fa46e071723d6817e2486d003becc55f0055116101d8571580156101c7575b80156101b6575b6101a75760805260a05260e0526101005260c0526101205261014052604051610f4e9081610228823960805181818161010d0152818161018201528181610a180152610b74015260a0518181816103880152818161071b015281816107690152610cdc015260c0518181816102d7015281816109a90152610c5e015260e0518181816104080152818161063a01526106790152610100518181816105630152610c1a0152610120518181816107e90152610970015261014051818181610aa90152610d640152f35b63303277f960e11b5f5260045ffd5b506001600160a01b038516156100df565b506001600160a01b038216156100d8565b63442ed3b160e01b5f5260045ffd5b5f80fd5b634e487b7160e01b5f52604160045260245ffd5b51906001600160a01b03821682036101e757565b51906001600160401b03821682036101e75756fe6080806040526004361015610012575f80fd5b5f3560e01c908163013cf08b14610dc95750806301958e1614610cc657806316c38b3c14610c3e57806321c9c44a14610c00578063278ecde114610acd5780632a3b39f314610a8a5780633ccfd60b146109d8578063452a9320146109945780634eb03502146109515780635c975abb146109305780638969da571461074a57806389c1521e146107065780639e1b234a146104d7578063a238310614610493578063c3c3df4f14610437578063d13ac21c146103f3578063df18e047146103b7578063e0a8f6f5146102c0578063e2bbb158146101405763fc0c546a146100f8575f80fd5b3461013c575f36600319011261013c576040517f00000000000000000000000000000000000000000000000000000000000000006001600160a01b03168152602090f35b5f80fd5b3461013c57604036600319011261013c5760243560043561015f610e68565b805f52600160205260405f20805460ff8116156102ad5760081c60ff1661029a577f00000000000000000000000000000000000000000000000000000000000000006040516323b872dd60e01b5f5233600452306024528460445260205f60648180865af19060015f5114821615610279575b6040525f6060521561025957506001016101ed838254610e5b565b9055805f52600360205260405f2060018060a01b0333165f5260205260405f20610218838254610e5b565b90556040519182527f84d9a926797cdc1036fb9ffa7983de7d739fdf7cb5c5e5c6ca38d67b30ef791160203393a360015f516020610ef95f395f51905f5255005b635274afe760e01b5f9081526001600160a01b0391909116600452602490fd5b90600181151661029157823b15153d151616906101d2565b503d5f823e3d90fd5b506369755d2d60e01b5f5260045260245ffd5b82636a1d9c2360e01b5f5260045260245ffd5b3461013c57602036600319011261013c57600435337f00000000000000000000000000000000000000000000000000000000000000006001600160a01b0316141580610384575b61037557805f52600260205260405f205460ff81161561036257815f5260026020525f604081205560018060a01b039060081c16907fb1ef5fdbcdef8246347da4c8eaec343f2183eb54c4e3944ea818468338d13e6d5f80a3005b50639690e0ff60e01b5f5260045260245ffd5b63188eb99560e01b5f5260045ffd5b50337f00000000000000000000000000000000000000000000000000000000000000006001600160a01b03161415610307565b3461013c57602036600319011261013c576004356001600160a01b0381169081900361013c575f526004602052602060405f2054604051908152f35b3461013c575f36600319011261013c576040517f00000000000000000000000000000000000000000000000000000000000000006001600160a01b03168152602090f35b3461013c57602036600319011261013c576004355f526001602052608060405f208054906001600160401b0360026001830154920154169060ff604051938181161515855260081c161515602084015260408301526060820152f35b3461013c57604036600319011261013c576104ac610e18565b6004355f52600360205260405f209060018060a01b03165f52602052602060405f2054604051908152f35b3461013c57602036600319011261013c576004356104f3610e68565b60ff5f54166106f857805f52600160205260405f2090815460ff8116156106e55760ff8160081c1661029a57815f52600260205260405f205460ff8116156106d2576001600160401b038160a81c168043106106bc575060018060a01b039060081c16926001810191825461ffff7f0000000000000000000000000000000000000000000000000000000000000000168082029082820414821517156106a8577ffc48e6813640737c52c5002f74e1449348d3b8bb4789b85dedcf8298328f8329946040946101006105cb6127105f95048096610e4e565b9561ffff191617905555845f5260026020525f8381205580151580610676575b610631575b81610614575b82519182526020820152a360015f516020610ef95f395f51905f5255005b855f526004602052825f2061062a838254610e5b565b90556105f6565b60018060a01b037f0000000000000000000000000000000000000000000000000000000000000000165f526004602052825f2061066f828254610e5b565b90556105f0565b507f00000000000000000000000000000000000000000000000000000000000000006001600160a01b031615156105eb565b634e487b7160e01b5f52601160045260245ffd5b8363697ba48160e01b5f5260045260245260445ffd5b82639690e0ff60e01b5f5260045260245ffd5b50636a1d9c2360e01b5f5260045260245ffd5b627d90c360e21b5f5260045ffd5b3461013c575f36600319011261013c576040517f00000000000000000000000000000000000000000000000000000000000000006001600160a01b03168152602090f35b3461013c57604036600319011261013c57600435610766610e18565b907f00000000000000000000000000000000000000000000000000000000000000006001600160a01b031633036109215760ff5f54166106f857805f52600160205260405f205460ff8116156106e55760081c60ff1661090f57805f52600360205260405f2060018060a01b0383165f5260205260405f2054156108f2576108177f00000000000000000000000000000000000000000000000000000000000000006001600160401b034316610e2e565b916040519060608201908282106001600160401b038311176108de576040918252600183526001600160a01b031660208084018281526001600160401b039096168385018181525f8781526002845285902095518654985191516001600160e81b031990991660ff911515919091161760089190911b610100600160a81b03161760a89790971b67ffffffffffffffff60a81b16969096179093559051938452927f3d5469c006a6689bab4286fbf88a0934e25d6a326ddff7401c3856aa0fb69a8a9190a3005b634e487b7160e01b5f52604160045260245ffd5b63a6465ad960e01b5f5260045260018060a01b031660245260445ffd5b6369755d2d60e01b5f5260045260245ffd5b63869a1abb60e01b5f5260045ffd5b3461013c575f36600319011261013c57602060ff5f54166040519015158152f35b3461013c575f36600319011261013c5760206040516001600160401b037f0000000000000000000000000000000000000000000000000000000000000000168152f35b3461013c575f36600319011261013c576040517f00000000000000000000000000000000000000000000000000000000000000006001600160a01b03168152602090f35b3461013c575f36600319011261013c576109f0610e68565b335f52600460205260405f20548015610a7b57335f5260046020525f6040812055610a3c81337f0000000000000000000000000000000000000000000000000000000000000000610ea0565b6040519081527ff9bfbbf6e673114af7111fe380ec7858d5a2d0d748e421b8cfae5960bef1153c60203392a260015f516020610ef95f395f51905f5255005b6312f461e960e31b5f5260045ffd5b3461013c575f36600319011261013c5760206040516001600160401b037f0000000000000000000000000000000000000000000000000000000000000000168152f35b3461013c57602036600319011261013c57600435610ae9610e68565b805f52600160205260405f2090815460ff8116156106e55760081c60ff1661090f576001600160401b0360028301541680431115610bea57505f818152600360209081526040808320338452909152902054918215610bd7575f8281526003602090815260408083203384529091528120556001018054610b6b908490610e4e565b9055610b9882337f0000000000000000000000000000000000000000000000000000000000000000610ea0565b6040519182527fa09339d4134bec17e17708d4c8cf9ce5a8fcf984140ef97ab796bc5013308dd360203393a360015f516020610ef95f395f51905f5255005b50631c956f7960e31b5f5260045260245ffd5b906361726cd960e11b5f5260045260245260445ffd5b3461013c575f36600319011261013c57602060405161ffff7f0000000000000000000000000000000000000000000000000000000000000000168152f35b3461013c57602036600319011261013c5760043580151580910361013c577f00000000000000000000000000000000000000000000000000000000000000006001600160a01b031633036103755760207f791bbb0963e97f53dfb36c8efbb97f0eae4770e569943f366dc4d1a47aac04459160ff195f541660ff8216175f55604051908152a1005b3461013c57602036600319011261013c576004357f00000000000000000000000000000000000000000000000000000000000000006001600160a01b0316330361092157805f52600160205260405f20805460ff81168015610dbc575b610da95760ff191660011781557f36235323cfb9cef8037c84c427f6fcb326b4ac7ddd9ac4e9712a6026da560224906020906001600160401b036002610d8b7f0000000000000000000000000000000000000000000000000000000000000000438416610e2e565b9201911690816001600160401b0319825416179055604051908152a2005b82630a67919160e11b5f5260045260245ffd5b5060ff8160081c16610d23565b3461013c57602036600319011261013c576060906004355f5260026020526001600160401b0360405f205460ff81161515835260018060a01b038160081c16602084015260a81c166040820152f35b602435906001600160a01b038216820361013c57565b906001600160401b03809116911601906001600160401b0382116106a857565b919082039182116106a857565b919082018092116106a857565b60025f516020610ef95f395f51905f525414610e915760025f516020610ef95f395f51905f5255565b633ee5aeb560e01b5f5260045ffd5b916040519163a9059cbb60e01b5f5260018060a01b031660045260245260205f60448180865af19060015f5114821615610ee0575b604052156102595750565b90600181151661029157823b15153d15161690610ed556fe9b779b17422d0df92223018b32b4d1fa46e071723d6817e2486d003becc55f00a26469706673582212201877b2573e60ffa89b352eccd4b71e5ef2a3f7b338842bb90f80e626096d93b964736f6c634300081b0033000000000000000000000000c6e7df5e7b4f2a278906862b61205850344d4e7d000000000000000000000000f39fd6e51aad88f6f4ce6ab8827279cfffb92266000000000000000000000000f39fd6e51aad88f6f4ce6ab8827279cfffb922660000000000000000000000000000000000000000000000000000000000000000000000000000000000000000f39fd6e51aad88f6f4ce6ab8827279cfffb92266000000000000000000000000000000000000000000000000000000000000003200000000000000000000000000000000000000000000000000000000000186a0",
        "nonce": "0x15",
        "chainId": "0x7a69"
      },
      "additionalContracts": [],
      "isFixedGasLimit": false
    },
    {
      "hash": "0x11c857e318e5266dfad0037962afe706eb84289f1772098fba5f2dbb00f5c166",
      "transactionType": "CALL",
      "contractName": "TestUSDC",
      "contractAddress": "0xc6e7df5e7b4f2a278906862b61205850344d4e7d",
      "function": "mint(address,uint256)",
      "arguments": ["0xf39Fd6e51aad88F6F4ce6aB8827279cffFb92266", "1000000000"],
      "transaction": {
        "from": "0xf39fd6e51aad88f6f4ce6ab8827279cfffb92266",
        "to": "0xc6e7df5e7b4f2a278906862b61205850344d4e7d",
        "value": "0x0",
        "input": "0x40c10f19000000000000000000000000f39fd6e51aad88f6f4ce6ab8827279cfffb92266000000000000000000000000000000000000000000000000000000003b9aca00",
        "nonce": "0x16",
        "chainId": "0x7a69"
      },
      "additionalContracts": [],
      "isFixedGasLimit": false
    }
  ],
  "receipts": [
    {
      "type": "0x2",
      "status": "0x1",
      "cumulativeGasUsed": "0x120876",
      "logs": [
        {
          "address": "0x5fbdb2315678afecb367f032d93f642f64180aa3",
          "topics": [
            "0x8be0079c531659141344cd1fd0a4f28419497f9722a3daafe3b4186f6b6457e0",
            "0x0000000000000000000000000000000000000000000000000000000000000000",
            "0x000000000000000000000000f39fd6e51aad88f6f4ce6ab8827279cfffb92266"
          ],
          "data": "0x",
          "blockHash": "0x6d63988a4fe8b80c14e12c41489e0de7786797d6c5fc1b9e2c02da98c4a91a51",
          "blockNumber": "0x1",
          "blockTimestamp": "0x6a2f98f9",
          "transactionHash": "0xbc2e87160d927d43a719d1a6b310ccc865a1d469142616dd59ca8e27ee53fd78",
          "transactionIndex": "0x0",
          "logIndex": "0x0",
          "removed": false
        },
        {
          "address": "0x5fbdb2315678afecb367f032d93f642f64180aa3",
          "topics": ["0x2ff4f36f7bcd5d4c260c49696c9d2b7c01d486e2d5ef32b48da03461a743dfe8"],
          "data": "0x6e657875732e776f726c642e7631000000000000000000000000000000000000",
          "blockHash": "0x6d63988a4fe8b80c14e12c41489e0de7786797d6c5fc1b9e2c02da98c4a91a51",
          "blockNumber": "0x1",
          "blockTimestamp": "0x6a2f98f9",
          "transactionHash": "0xbc2e87160d927d43a719d1a6b310ccc865a1d469142616dd59ca8e27ee53fd78",
          "transactionIndex": "0x0",
          "logIndex": "0x1",
          "removed": false
        }
      ],
      "logsBloom": "0x00000000000000000000000000000000001000000000000000800000000000000000000000000000000001000000000000000000000000000000000000000000000000000000000000000000000000000001000000000000000000000000000000000040020000000000000100000808000000000000000000000000000000400000000000000000000000000000000000000000000000000000000200000000000000000000000000000000000000000000000000000000000000000000000000000040000000200000000000000000000000002000000000000000000020000000000000000000000000000000000000000000000000000000000000000000",
      "transactionHash": "0xbc2e87160d927d43a719d1a6b310ccc865a1d469142616dd59ca8e27ee53fd78",
      "transactionIndex": "0x0",
      "blockHash": "0x6d63988a4fe8b80c14e12c41489e0de7786797d6c5fc1b9e2c02da98c4a91a51",
      "blockNumber": "0x1",
      "gasUsed": "0x120876",
      "effectiveGasPrice": "0x3b9aca01",
      "blobGasPrice": "0x1",
      "from": "0xf39fd6e51aad88f6f4ce6ab8827279cfffb92266",
      "to": null,
      "contractAddress": "0x5fbdb2315678afecb367f032d93f642f64180aa3"
    },
    {
      "type": "0x2",
      "status": "0x1",
      "cumulativeGasUsed": "0xe4a93",
      "logs": [],
      "logsBloom": "0x00000000000000000000000000000000000000000000000000000000000000000000000000000000000000000000000000000000000000000000000000000000000000000000000000000000000000000000000000000000000000000000000000000000000000000000000000000000000000000000000000000000000000000000000000000000000000000000000000000000000000000000000000000000000000000000000000000000000000000000000000000000000000000000000000000000000000000000000000000000000000000000000000000000000000000000000000000000000000000000000000000000000000000000000000000000",
      "transactionHash": "0x14dac80e41ca96433f7cb489835f144616152ced95abcb43188896081057699b",
      "transactionIndex": "0x0",
      "blockHash": "0x8566772191c8e2773ce13bf306be3ee6f3c8af5ce88c7b7e573db5a9a08eccb1",
      "blockNumber": "0x2",
      "gasUsed": "0xe4a93",
      "effectiveGasPrice": "0x34bdb743",
      "blobGasPrice": "0x1",
      "from": "0xf39fd6e51aad88f6f4ce6ab8827279cfffb92266",
      "to": null,
      "contractAddress": "0xe7f1725e7734ce288f8367e1bb143e90bb3f0512"
    },
    {
      "type": "0x2",
      "status": "0x1",
      "cumulativeGasUsed": "0xbe257",
      "logs": [],
      "logsBloom": "0x00000000000000000000000000000000000000000000000000000000000000000000000000000000000000000000000000000000000000000000000000000000000000000000000000000000000000000000000000000000000000000000000000000000000000000000000000000000000000000000000000000000000000000000000000000000000000000000000000000000000000000000000000000000000000000000000000000000000000000000000000000000000000000000000000000000000000000000000000000000000000000000000000000000000000000000000000000000000000000000000000000000000000000000000000000000",
      "transactionHash": "0x32aeb732bddfe177e93af3e03ae63e592576ddbf5e2a5009442e153cdba083e2",
      "transactionIndex": "0x0",
      "blockHash": "0xe5851bcbf2f1040b1ae2809b695cc2229736cab93229f9bb2e2fc2d6e9a8944d",
      "blockNumber": "0x3",
      "gasUsed": "0xbe257",
      "effectiveGasPrice": "0x2e8f61b9",
      "blobGasPrice": "0x1",
      "from": "0xf39fd6e51aad88f6f4ce6ab8827279cfffb92266",
      "to": null,
      "contractAddress": "0x9fe46736679d2d9a65f0992f2272de9f3c7fa6e0"
    },
    {
      "type": "0x2",
      "status": "0x1",
      "cumulativeGasUsed": "0x7613a",
      "logs": [],
      "logsBloom": "0x00000000000000000000000000000000000000000000000000000000000000000000000000000000000000000000000000000000000000000000000000000000000000000000000000000000000000000000000000000000000000000000000000000000000000000000000000000000000000000000000000000000000000000000000000000000000000000000000000000000000000000000000000000000000000000000000000000000000000000000000000000000000000000000000000000000000000000000000000000000000000000000000000000000000000000000000000000000000000000000000000000000000000000000000000000000",
      "transactionHash": "0x0bc8d97ab21fa4ef03f5df77b64be41103f23e3523eea95bcb8e1b9c8fbfee2d",
      "transactionIndex": "0x0",
      "blockHash": "0xee7acf4eb30ad00a98ecc8406d4f60f7e9bd18cf8f8a462b6f4bcaaf6409068b",
      "blockNumber": "0x4",
      "gasUsed": "0x7613a",
      "effectiveGasPrice": "0x290ad1d7",
      "blobGasPrice": "0x1",
      "from": "0xf39fd6e51aad88f6f4ce6ab8827279cfffb92266",
      "to": null,
      "contractAddress": "0xcf7ed3acca5a467e9e704c703e8d87f634fb0fc9"
    },
    {
      "type": "0x2",
      "status": "0x1",
      "cumulativeGasUsed": "0x17a65",
      "logs": [
        {
          "address": "0x5fbdb2315678afecb367f032d93f642f64180aa3",
          "topics": [
            "0x27b93ae2f1d204f7d28eaeab23952d8f33aedaa7b17dfbbe85ac96286df3be15",
            "0x74620000000000000000000000000000436f756e746572000000000000000000"
          ],
          "data": "0x000000000000000000000000000000000000000000000000000000000000000100000000000000000000000000000000000000000000000000000000000000020000000000000000000000000000000000000000000000000000000000000060000000000000000000000000000000000000000000000000000000000000000200000000000000000000000000000000000000000000000000000000000000400000000000000000000000000000000000000000000000000000000000000080000000000000000000000000000000000000000000000000000000000000000576616c756500000000000000000000000000000000000000000000000000000000000000000000000000000000000000000000000000000000000000000000096c6173744d6f7665720000000000000000000000000000000000000000000000",
          "blockHash": "0x11d4d4c095594c009078af7f761fca5cc9af383330409163e024540c073dcad6",
          "blockNumber": "0x5",
          "blockTimestamp": "0x6a2f98f9",
          "transactionHash": "0xe0164cce8c6a93f1d6c04d3544fd62c2baf5db9402d53fd4aa25ace974d2ce99",
          "transactionIndex": "0x0",
          "logIndex": "0x0",
          "removed": false
        }
      ],
      "logsBloom": "0x00000000000000000000000000000000000000000000000000000000000000000000000000000000000000000004000000000000000000000000000001000000000000000000000000000000000000000000000000000000000000000000000000000040000000000000001000000000000000000000000000000000000000000000000000000000000000000000000000000000000000000000000200000000000000000000000000000000000000000000000000000000000000000000000000000040000000000000000000000000000000000000000000000000002000000000000000000000000000000000000000000000000000200000000100000000",
      "transactionHash": "0xe0164cce8c6a93f1d6c04d3544fd62c2baf5db9402d53fd4aa25ace974d2ce99",
      "transactionIndex": "0x0",
      "blockHash": "0x11d4d4c095594c009078af7f761fca5cc9af383330409163e024540c073dcad6",
      "blockNumber": "0x5",
      "gasUsed": "0x17a65",
      "effectiveGasPrice": "0x2413d03b",
      "blobGasPrice": "0x1",
      "from": "0xf39fd6e51aad88f6f4ce6ab8827279cfffb92266",
      "to": "0x5fbdb2315678afecb367f032d93f642f64180aa3",
      "contractAddress": null
    },
    {
      "type": "0x2",
      "status": "0x1",
      "cumulativeGasUsed": "0xc389",
      "logs": [
        {
          "address": "0x5fbdb2315678afecb367f032d93f642f64180aa3",
          "topics": [
            "0xabe1e2e80b5aa04850ff2ee6b99521af71175d49133ecbf7c9e790f6c92c980a",
            "0x436f756e74657247616d65000000000000000000000000000000000000000000",
            "0x000000000000000000000000cf7ed3acca5a467e9e704c703e8d87f634fb0fc9"
          ],
          "data": "0x",
          "blockHash": "0x8a3357b14cc5b1321c8551da4eb0bac21f358b240d3db2f55fe674b00da4114d",
          "blockNumber": "0x6",
          "blockTimestamp": "0x6a2f98f9",
          "transactionHash": "0xcce7abced552d7fc897cd1b9d1392e24165d8a564d8bfca96c823088911d6c7b",
          "transactionIndex": "0x0",
          "logIndex": "0x0",
          "removed": false
        }
      ],
      "logsBloom": "0x00000000000000000000000000000000000000000000000000000000000000000000000000000080000000000000000000000000000000000000000000000000000000000000000000000000040000000000000000000000000000000000000000000040000000000000010000000000000000000000000800000000000000000000000000000000000000000000000000000000000000000000000200000000000000001000000000000000000000000000000000000000000000000000000000000040000000000000000000000000000000000000000000000000000000010000000000000100008000000000200000000000000000000000000000000000",
      "transactionHash": "0xcce7abced552d7fc897cd1b9d1392e24165d8a564d8bfca96c823088911d6c7b",
      "transactionIndex": "0x0",
      "blockHash": "0x8a3357b14cc5b1321c8551da4eb0bac21f358b240d3db2f55fe674b00da4114d",
      "blockNumber": "0x6",
      "gasUsed": "0xc389",
      "effectiveGasPrice": "0x1f98cad2",
      "blobGasPrice": "0x1",
      "from": "0xf39fd6e51aad88f6f4ce6ab8827279cfffb92266",
      "to": "0x5fbdb2315678afecb367f032d93f642f64180aa3",
      "contractAddress": null
    },
    {
      "type": "0x2",
      "status": "0x1",
      "cumulativeGasUsed": "0xc501",
      "logs": [
        {
          "address": "0x5fbdb2315678afecb367f032d93f642f64180aa3",
          "topics": [
            "0x87675c9926489679e8472a7ecfddd7f514ac1c6a0134118dcab3db14f581f11a",
            "0x74620000000000000000000000000000436f756e746572000000000000000000",
            "0x000000000000000000000000cf7ed3acca5a467e9e704c703e8d87f634fb0fc9"
          ],
          "data": "0x",
          "blockHash": "0x2fbbc2015c5c651ba4b83dfc2cff15131750f9f511456aa5577512963a21f667",
          "blockNumber": "0x7",
          "blockTimestamp": "0x6a2f98f9",
          "transactionHash": "0x820d1c70d19d055e85678809ae13bb885acb8d1b065d534ecab41ef785d78029",
          "transactionIndex": "0x0",
          "logIndex": "0x0",
          "removed": false
        }
      ],
      "logsBloom": "0x00000000000000000000000000000000000000000000000000000000000000000000000000000080000000000004000000000000000000000000000000000000000000000000000000000000000000000000000000000000000000000000000000000040000000000000000000000000000000000000000000000000000000000000000000000000000000000000000000000000000004000000000200000000000000001000000000000000000000000000000000000000000000000000000000000040000000000000000000001000000000000000000000000000002000000000000000000000008000000002000000000000000000000000000100000000",
      "transactionHash": "0x820d1c70d19d055e85678809ae13bb885acb8d1b065d534ecab41ef785d78029",
      "transactionIndex": "0x0",
      "blockHash": "0x2fbbc2015c5c651ba4b83dfc2cff15131750f9f511456aa5577512963a21f667",
      "blockNumber": "0x7",
      "gasUsed": "0xc501",
      "effectiveGasPrice": "0x1ba91142",
      "blobGasPrice": "0x1",
      "from": "0xf39fd6e51aad88f6f4ce6ab8827279cfffb92266",
      "to": "0x5fbdb2315678afecb367f032d93f642f64180aa3",
      "contractAddress": null
    },
    {
      "type": "0x2",
      "status": "0x1",
      "cumulativeGasUsed": "0xb991",
      "logs": [
        {
          "address": "0x5fbdb2315678afecb367f032d93f642f64180aa3",
          "topics": [
            "0x5c8f05824c40a2cedd1ec7245f574909327c72a46448be0e4c12bcb4f5bf42c0",
            "0x000000000000000000000000e7f1725e7734ce288f8367e1bb143e90bb3f0512"
          ],
          "data": "0x",
          "blockHash": "0xe846b6b6d8616c87bef8c8232711571cc932ec9bd69a8f7cd0f1968ef38b5707",
          "blockNumber": "0x8",
          "blockTimestamp": "0x6a2f98f9",
          "transactionHash": "0x1b3b1bee3e582dbe59f910ee07510d2f20e5d6ee5f2b2ffc7c90ded143c2d932",
          "transactionIndex": "0x0",
          "logIndex": "0x0",
          "removed": false
        }
      ],
      "logsBloom": "0x00000000000000000400000000000000000000000000000000000000000000000000000000000000000000000000000000000000000000000000000000000000000000000000000000000000000000000000000000000000000000000000000000000040000000000000000000000000000000000000000000000004000000000000000000000000020000000000004000000000000000000000000200000000000000000000000000000002000000000000000000000000000000000200000000000040000000000000000000000000000000000000000000000000000000000000000000000000000000000000000000000000000000000000000000000000",
      "transactionHash": "0x1b3b1bee3e582dbe59f910ee07510d2f20e5d6ee5f2b2ffc7c90ded143c2d932",
      "transactionIndex": "0x0",
      "blockHash": "0xe846b6b6d8616c87bef8c8232711571cc932ec9bd69a8f7cd0f1968ef38b5707",
      "blockNumber": "0x8",
      "gasUsed": "0xb991",
      "effectiveGasPrice": "0x1836e8f5",
      "blobGasPrice": "0x1",
      "from": "0xf39fd6e51aad88f6f4ce6ab8827279cfffb92266",
      "to": "0x5fbdb2315678afecb367f032d93f642f64180aa3",
      "contractAddress": null
    },
    {
      "type": "0x2",
      "status": "0x1",
      "cumulativeGasUsed": "0xb353",
      "logs": [],
      "logsBloom": "0x00000000000000000000000000000000000000000000000000000000000000000000000000000000000000000000000000000000000000000000000000000000000000000000000000000000000000000000000000000000000000000000000000000000000000000000000000000000000000000000000000000000000000000000000000000000000000000000000000000000000000000000000000000000000000000000000000000000000000000000000000000000000000000000000000000000000000000000000000000000000000000000000000000000000000000000000000000000000000000000000000000000000000000000000000000000",
      "transactionHash": "0x16efa5cc83a4f569f5a1c21d8c1fb42dd4f2096c8ab5b2c75d1374001f1ed2af",
      "transactionIndex": "0x0",
      "blockHash": "0xd61a45b1ebfc899c26be721681dd7699596017ad7272d06be7bcb2d6eb6145e9",
      "blockNumber": "0x9",
      "gasUsed": "0xb353",
      "effectiveGasPrice": "0x15328010",
      "blobGasPrice": "0x1",
      "from": "0xf39fd6e51aad88f6f4ce6ab8827279cfffb92266",
      "to": "0xcf7ed3acca5a467e9e704c703e8d87f634fb0fc9",
      "contractAddress": null
    },
    {
      "type": "0x2",
      "status": "0x1",
      "cumulativeGasUsed": "0xba02",
      "logs": [
        {
          "address": "0x9fe46736679d2d9a65f0992f2272de9f3c7fa6e0",
          "topics": [
            "0xf8b32f4ee3245ed08b1112f5d0f235cd6703b644bbbc9d3d5885adabd99447bd",
            "0x000000000000000000000000cf7ed3acca5a467e9e704c703e8d87f634fb0fc9"
          ],
          "data": "0x0000000000000000000000000000000000000000000000000000000000000001",
          "blockHash": "0x30074424fbd2ad4ab1360a5d985cd40a83bf2b124f6586c0a3c401dcd9552aca",
          "blockNumber": "0xa",
          "blockTimestamp": "0x6a2f98f9",
          "transactionHash": "0xa7d73fb36466311e9ec7652c084517b435e72864e17bd13e50bf27bac6e65414",
          "transactionIndex": "0x0",
          "logIndex": "0x0",
          "removed": false
        }
      ],
      "logsBloom": "0x00000000000000000000000000000000000000000000000000000000000000000000000000000080000000000000000000000000000040200000000000000000000000000000000000000000000000000000000000000000000000000000000000000000000000000000000000000000000000000000080000000000000000000000000000000000000000000000000000020000080000000000000000000000000000001000000000000000000000000000000000000000000000000000000000000000000000000000000000000000000000000000000000000000000000000000000000000000008000000000000000000000000000400000000000000000",
      "transactionHash": "0xa7d73fb36466311e9ec7652c084517b435e72864e17bd13e50bf27bac6e65414",
      "transactionIndex": "0x0",
      "blockHash": "0x30074424fbd2ad4ab1360a5d985cd40a83bf2b124f6586c0a3c401dcd9552aca",
      "blockNumber": "0xa",
      "gasUsed": "0xba02",
      "effectiveGasPrice": "0x128e4380",
      "blobGasPrice": "0x1",
      "from": "0xf39fd6e51aad88f6f4ce6ab8827279cfffb92266",
      "to": "0x9fe46736679d2d9a65f0992f2272de9f3c7fa6e0",
      "contractAddress": null
    },
    {
      "type": "0x2",
      "status": "0x1",
      "cumulativeGasUsed": "0x6c46",
      "logs": [
        {
          "address": "0x9fe46736679d2d9a65f0992f2272de9f3c7fa6e0",
          "topics": [
            "0xf8b32f4ee3245ed08b1112f5d0f235cd6703b644bbbc9d3d5885adabd99447bd",
            "0x000000000000000000000000f39fd6e51aad88f6f4ce6ab8827279cfffb92266"
          ],
          "data": "0x0000000000000000000000000000000000000000000000000000000000000001",
          "blockHash": "0x3d47768f1e12c61427d4da8371deffd892df6ea746b49372c9b665288e5e78bb",
          "blockNumber": "0xb",
          "blockTimestamp": "0x6a2f98f9",
          "transactionHash": "0x7bb435d226c99aa4bf554c7b90f6f316bbc17a3a1ea74ec511488895731728e0",
          "transactionIndex": "0x0",
          "logIndex": "0x0",
          "removed": false
        }
      ],
      "logsBloom": "0x00000000000000000000000000000000000000000000000000000000000000000000000000000000000000000000000000000000000040200000000000000000000000000000000000000000000000000000000000000000000000000000000000000000000000000000000100000000000000000000080000000000000000000000000000000000000000000000000000020000080000000000000000000000000000000000000000000000000000000000000000000000000000000000000000000000000000200000000000000000000000002000000000000000000000000000000000000000000000000000000000000000000000400000000000000000",
      "transactionHash": "0x7bb435d226c99aa4bf554c7b90f6f316bbc17a3a1ea74ec511488895731728e0",
      "transactionIndex": "0x0",
      "blockHash": "0x3d47768f1e12c61427d4da8371deffd892df6ea746b49372c9b665288e5e78bb",
      "blockNumber": "0xb",
      "gasUsed": "0x6c46",
      "effectiveGasPrice": "0x103e5d9f",
      "blobGasPrice": "0x1",
      "from": "0xf39fd6e51aad88f6f4ce6ab8827279cfffb92266",
      "to": "0x9fe46736679d2d9a65f0992f2272de9f3c7fa6e0",
      "contractAddress": null
    },
    {
      "type": "0x2",
      "status": "0x1",
      "cumulativeGasUsed": "0xb3b2",
      "logs": [],
      "logsBloom": "0x00000000000000000000000000000000000000000000000000000000000000000000000000000000000000000000000000000000000000000000000000000000000000000000000000000000000000000000000000000000000000000000000000000000000000000000000000000000000000000000000000000000000000000000000000000000000000000000000000000000000000000000000000000000000000000000000000000000000000000000000000000000000000000000000000000000000000000000000000000000000000000000000000000000000000000000000000000000000000000000000000000000000000000000000000000000",
      "transactionHash": "0xd88dbda0ac76067fa75c3333f63f6591396b25b0472a12bcca180d73919df0ae",
      "transactionIndex": "0x0",
      "blockHash": "0x288fc0e1cfa0359e18ef03bb4e1aaa3e77f09d2ea8f2b29d07aeb1925baebc88",
      "blockNumber": "0xc",
      "gasUsed": "0xb3b2",
      "effectiveGasPrice": "0xe3787d0",
      "blobGasPrice": "0x1",
      "from": "0xf39fd6e51aad88f6f4ce6ab8827279cfffb92266",
      "to": "0x9fe46736679d2d9a65f0992f2272de9f3c7fa6e0",
      "contractAddress": null
    },
    {
      "type": "0x2",
      "status": "0x1",
      "cumulativeGasUsed": "0x2d97b",
      "logs": [
        {
          "address": "0x9fe46736679d2d9a65f0992f2272de9f3c7fa6e0",
          "topics": [
            "0xa4663596238e958f20b25cc69bc3648d070a6628c207d1a233185cbd3c280ef1",
            "0x0000000000000000000000000000000000000000000000000000000000000001"
          ],
          "data": "0x00000000000000000000000000000000000000000000000000000000000000400000000000000000000000000000000000000000000000000000000000001395000000000000000000000000000000000000000000000000000000000000000200000000000000000000000070997970c51812dc3a010c7d01b50e0d17dc79c80000000000000000000000003c44cdddb6a900fa2b585dd299e03d12fa4293bc",
          "blockHash": "0xeecbf7c0e745d41e8f431be48b74d4c6284070ce696e0ab383d23fb8b0fa95df",
          "blockNumber": "0xd",
          "blockTimestamp": "0x6a2f98f9",
          "transactionHash": "0x6af6fbc111000d588260f8475f148a893a1b3c8835965ab41c975a7778dd64cb",
          "transactionIndex": "0x0",
          "logIndex": "0x0",
          "removed": false
        }
      ],
      "logsBloom": "0x00000000000000000000000000000000000000000000000000000000000000000000000000000000000000000000000000000000000040200000000000040000000000000004000000000000000000000000000000040000000000000000000000000000000400000000000000000000000000000000000000000000000000000000000000000000000000000000000000000000000000000000000000000000000000000000000000000000000000000000000000000000000000000000000000000000000000000000000000000000000000000000000000400000000040000000000000000000000000000000000000000000000000400000000000000000",
      "transactionHash": "0x6af6fbc111000d588260f8475f148a893a1b3c8835965ab41c975a7778dd64cb",
      "transactionIndex": "0x0",
      "blockHash": "0xeecbf7c0e745d41e8f431be48b74d4c6284070ce696e0ab383d23fb8b0fa95df",
      "blockNumber": "0xd",
      "gasUsed": "0x2d97b",
      "effectiveGasPrice": "0xc71fc03",
      "blobGasPrice": "0x1",
      "from": "0xf39fd6e51aad88f6f4ce6ab8827279cfffb92266",
      "to": "0x9fe46736679d2d9a65f0992f2272de9f3c7fa6e0",
      "contractAddress": null
    },
    {
      "type": "0x2",
      "status": "0x1",
      "cumulativeGasUsed": "0x2c3a0",
      "logs": [],
      "logsBloom": "0x00000000000000000000000000000000000000000000000000000000000000000000000000000000000000000000000000000000000000000000000000000000000000000000000000000000000000000000000000000000000000000000000000000000000000000000000000000000000000000000000000000000000000000000000000000000000000000000000000000000000000000000000000000000000000000000000000000000000000000000000000000000000000000000000000000000000000000000000000000000000000000000000000000000000000000000000000000000000000000000000000000000000000000000000000000000",
      "transactionHash": "0x3b249a3bdb056fe727b89de314168e0e3500142b85d3499d5d6b3aa34b45e99e",
      "transactionIndex": "0x0",
      "blockHash": "0x11889798a4a653ac8058ef35c1dc54201a556d80433fd8c52e81624bfc8e797d",
      "blockNumber": "0xe",
      "gasUsed": "0x2c3a0",
      "effectiveGasPrice": "0xae8b1ca",
      "blobGasPrice": "0x1",
      "from": "0xf39fd6e51aad88f6f4ce6ab8827279cfffb92266",
      "to": null,
      "contractAddress": "0x0dcd1bf9a1b36ce34237eeafef220932846bcd82"
    },
    {
      "type": "0x2",
      "status": "0x1",
      "cumulativeGasUsed": "0x34318",
      "logs": [],
      "logsBloom": "0x00000000000000000000000000000000000000000000000000000000000000000000000000000000000000000000000000000000000000000000000000000000000000000000000000000000000000000000000000000000000000000000000000000000000000000000000000000000000000000000000000000000000000000000000000000000000000000000000000000000000000000000000000000000000000000000000000000000000000000000000000000000000000000000000000000000000000000000000000000000000000000000000000000000000000000000000000000000000000000000000000000000000000000000000000000000",
      "transactionHash": "0x4b13ca065ed8e49bde7f1ba5bc7bc6959596386fe98181c65ee1cab0e56d590e",
      "transactionIndex": "0x0",
      "blockHash": "0xb1639ae0b6d7967652bbad0af0fd6546ea79a5175c82b0bb5c43ee6aac1454c9",
      "blockNumber": "0xf",
      "gasUsed": "0x34318",
      "effectiveGasPrice": "0x98fd2d3",
      "blobGasPrice": "0x1",
      "from": "0xf39fd6e51aad88f6f4ce6ab8827279cfffb92266",
      "to": null,
      "contractAddress": "0x9a676e781a523b5d0c0e43731313a708cb607508"
    },
    {
      "type": "0x2",
      "status": "0x1",
      "cumulativeGasUsed": "0x22097",
      "logs": [],
      "logsBloom": "0x00000000000000000000000000000000000000000000000000000000000000000000000000000000000000000000000000000000000000000000000000000000000000000000000000000000000000000000000000000000000000000000000000000000000000000000000000000000000000000000000000000000000000000000000000000000000000000000000000000000000000000000000000000000000000000000000000000000000000000000000000000000000000000000000000000000000000000000000000000000000000000000000000000000000000000000000000000000000000000000000000000000000000000000000000000000",
      "transactionHash": "0xa28235a26f27dc82ef27d9d3ec1fbdcc719ac49d68a9716e83372134db384f94",
      "transactionIndex": "0x0",
      "blockHash": "0xa55fe4698992d7c80fe8bef446b2c9e70936a62b9735140db865256a01efe64d",
      "blockNumber": "0x10",
      "gasUsed": "0x22097",
      "effectiveGasPrice": "0x86234dc",
      "blobGasPrice": "0x1",
      "from": "0xf39fd6e51aad88f6f4ce6ab8827279cfffb92266",
      "to": null,
      "contractAddress": "0x0b306bf915c4d645ff596e518faf3f9669b97016"
    },
    {
      "type": "0x2",
      "status": "0x1",
      "cumulativeGasUsed": "0x2a483",
      "logs": [],
      "logsBloom": "0x00000000000000000000000000000000000000000000000000000000000000000000000000000000000000000000000000000000000000000000000000000000000000000000000000000000000000000000000000000000000000000000000000000000000000000000000000000000000000000000000000000000000000000000000000000000000000000000000000000000000000000000000000000000000000000000000000000000000000000000000000000000000000000000000000000000000000000000000000000000000000000000000000000000000000000000000000000000000000000000000000000000000000000000000000000000",
      "transactionHash": "0x344e2bad535bc70a90bf9523c4fc508ef5d72f9c162002519a46766a556fb6f5",
      "transactionIndex": "0x0",
      "blockHash": "0x335be3f7bc7adeff6c225eed65f22c0f8bbc3d77fabd23e175a8fe82e7a1085c",
      "blockNumber": "0x11",
      "gasUsed": "0x2a483",
      "effectiveGasPrice": "0x7586c94",
      "blobGasPrice": "0x1",
      "from": "0xf39fd6e51aad88f6f4ce6ab8827279cfffb92266",
      "to": null,
      "contractAddress": "0x959922be3caee4b8cd9a407cc3ac1c251c2007b1"
    },
    {
      "type": "0x2",
      "status": "0x1",
      "cumulativeGasUsed": "0x2e1b4",
      "logs": [],
      "logsBloom": "0x00000000000000000000000000000000000000000000000000000000000000000000000000000000000000000000000000000000000000000000000000000000000000000000000000000000000000000000000000000000000000000000000000000000000000000000000000000000000000000000000000000000000000000000000000000000000000000000000000000000000000000000000000000000000000000000000000000000000000000000000000000000000000000000000000000000000000000000000000000000000000000000000000000000000000000000000000000000000000000000000000000000000000000000000000000000",
      "transactionHash": "0xd5f1c9a865a70da9e472b57eeaafb74acfa8a98544c3a1c69b7e54cbde41755a",
      "transactionIndex": "0x0",
      "blockHash": "0xc46be208d41e0e363273301d47c69906d26e9bce2fc29960a5fc169f5bbb85f0",
      "blockNumber": "0x12",
      "gasUsed": "0x2e1b4",
      "effectiveGasPrice": "0x67015c3",
      "blobGasPrice": "0x1",
      "from": "0xf39fd6e51aad88f6f4ce6ab8827279cfffb92266",
      "to": null,
      "contractAddress": "0x9a9f2ccfde556a7e9ff0848998aa4a0cfd8863ae"
    },
    {
      "type": "0x2",
      "status": "0x1",
      "cumulativeGasUsed": "0x363fc",
      "logs": [],
      "logsBloom": "0x00000000000000000000000000000000000000000000000000000000000000000000000000000000000000000000000000000000000000000000000000000000000000000000000000000000000000000000000000000000000000000000000000000000000000000000000000000000000000000000000000000000000000000000000000000000000000000000000000000000000000000000000000000000000000000000000000000000000000000000000000000000000000000000000000000000000000000000000000000000000000000000000000000000000000000000000000000000000000000000000000000000000000000000000000000000",
      "transactionHash": "0x26c977b32e3995a1ea0d59415180ccb74c42a8a39cd68e47ed6a7b519b1f8914",
      "transactionIndex": "0x0",
      "blockHash": "0xd09f1d17d606730d8764810cff79a014603a5c7f48346bd9b2b6c403abd81fd7",
      "blockNumber": "0x13",
      "gasUsed": "0x363fc",
      "effectiveGasPrice": "0x5a4ab08",
      "blobGasPrice": "0x1",
      "from": "0xf39fd6e51aad88f6f4ce6ab8827279cfffb92266",
      "to": null,
      "contractAddress": "0x68b1d87f95878fe05b998f19b66f4baba5de1aed"
    },
    {
      "type": "0x2",
      "status": "0x1",
      "cumulativeGasUsed": "0x3b149",
      "logs": [],
      "logsBloom": "0x00000000000000000000000000000000000000000000000000000000000000000000000000000000000000000000000000000000000000000000000000000000000000000000000000000000000000000000000000000000000000000000000000000000000000000000000000000000000000000000000000000000000000000000000000000000000000000000000000000000000000000000000000000000000000000000000000000000000000000000000000000000000000000000000000000000000000000000000000000000000000000000000000000000000000000000000000000000000000000000000000000000000000000000000000000000",
      "transactionHash": "0x8d7c32dffc1b3dff1f97a223285d5e8e93038872f48566bf52650cd0b451bb52",
      "transactionIndex": "0x0",
      "blockHash": "0x05050145c8856671e6575f368f3e9e89f1d8cfac12cb4a1dbe2279a34d1ffd9b",
      "blockNumber": "0x14",
      "gasUsed": "0x3b149",
      "effectiveGasPrice": "0x4f2c27a",
      "blobGasPrice": "0x1",
      "from": "0xf39fd6e51aad88f6f4ce6ab8827279cfffb92266",
      "to": null,
      "contractAddress": "0x3aa5ebb10dc797cac828524e59a333d0a371443c"
    },
    {
      "type": "0x2",
      "status": "0x1",
      "cumulativeGasUsed": "0x7485f",
      "logs": [],
      "logsBloom": "0x00000000000000000000000000000000000000000000000000000000000000000000000000000000000000000000000000000000000000000000000000000000000000000000000000000000000000000000000000000000000000000000000000000000000000000000000000000000000000000000000000000000000000000000000000000000000000000000000000000000000000000000000000000000000000000000000000000000000000000000000000000000000000000000000000000000000000000000000000000000000000000000000000000000000000000000000000000000000000000000000000000000000000000000000000000000",
      "transactionHash": "0x5cb4ed666e52271104c0708dff63db568e05b350313e2f941df01879964cff02",
      "transactionIndex": "0x0",
      "blockHash": "0x872a32e9919eea2bf012cbcdf1c5af05fa8e94136978f9e0fcff106919510616",
      "blockNumber": "0x15",
      "gasUsed": "0x7485f",
      "effectiveGasPrice": "0x456f823",
      "blobGasPrice": "0x1",
      "from": "0xf39fd6e51aad88f6f4ce6ab8827279cfffb92266",
      "to": null,
      "contractAddress": "0xc6e7df5e7b4f2a278906862b61205850344d4e7d"
    },
    {
      "type": "0x2",
      "status": "0x1",
      "cumulativeGasUsed": "0xe22ef",
      "logs": [],
      "logsBloom": "0x00000000000000000000000000000000000000000000000000000000000000000000000000000000000000000000000000000000000000000000000000000000000000000000000000000000000000000000000000000000000000000000000000000000000000000000000000000000000000000000000000000000000000000000000000000000000000000000000000000000000000000000000000000000000000000000000000000000000000000000000000000000000000000000000000000000000000000000000000000000000000000000000000000000000000000000000000000000000000000000000000000000000000000000000000000000",
      "transactionHash": "0xa5e3a53f75e3566f0c61602e1314334061ad36d144bbc2b6f318e9eae5bafd91",
      "transactionIndex": "0x0",
      "blockHash": "0x798580ee84ee6199c26b271e2f4cdd0eabc3203f15b1b61ec7c7c0d0778f3961",
      "blockNumber": "0x16",
      "gasUsed": "0xe22ef",
      "effectiveGasPrice": "0x3d0844e",
      "blobGasPrice": "0x1",
      "from": "0xf39fd6e51aad88f6f4ce6ab8827279cfffb92266",
      "to": null,
      "contractAddress": "0x59b670e9fa9d0a427751af201d676719a970857b"
    },
    {
      "type": "0x2",
      "status": "0x1",
      "cumulativeGasUsed": "0x109dd",
      "logs": [
        {
          "address": "0xc6e7df5e7b4f2a278906862b61205850344d4e7d",
          "topics": [
            "0xddf252ad1be2c89b69c2b068fc378daa952ba7f163c4a11628f55a4df523b3ef",
            "0x0000000000000000000000000000000000000000000000000000000000000000",
            "0x000000000000000000000000f39fd6e51aad88f6f4ce6ab8827279cfffb92266"
          ],
          "data": "0x000000000000000000000000000000000000000000000000000000003b9aca00",
          "blockHash": "0xd17875afb80bef2d03646430425c3ad52eb6c97add5d09b0d206083899fc0225",
          "blockNumber": "0x17",
          "blockTimestamp": "0x6a2f98f9",
          "transactionHash": "0x11c857e318e5266dfad0037962afe706eb84289f1772098fba5f2dbb00f5c166",
          "transactionIndex": "0x0",
          "logIndex": "0x0",
          "removed": false
        }
      ],
      "logsBloom": "0x00000000000000000000000000000000000000000000000000000000000000000000000000000000000000800000000000000000000000000000000000000000000000000000000000000008000000000000000000000000000000000000000000000000020000000000000100000800000000000000000000000010000000000000000000000000000000000000000000000000000000000000000000000000000000000000000000000000000000000000000000000000000000000000000000000002000000200000000000100000000000002000000000000000000020000000000000000000000000800000000000000000000000000000000000000000",
      "transactionHash": "0x11c857e318e5266dfad0037962afe706eb84289f1772098fba5f2dbb00f5c166",
      "transactionIndex": "0x0",
      "blockHash": "0xd17875afb80bef2d03646430425c3ad52eb6c97add5d09b0d206083899fc0225",
      "blockNumber": "0x17",
      "gasUsed": "0x109dd",
      "effectiveGasPrice": "0x35dfdc7",
      "blobGasPrice": "0x1",
      "from": "0xf39fd6e51aad88f6f4ce6ab8827279cfffb92266",
      "to": "0xc6e7df5e7b4f2a278906862b61205850344d4e7d",
      "contractAddress": null
    }
  ],
  "libraries": [],
  "pending": [],
  "returns": {},
  "timestamp": 1781504249056,
  "chain": 31337,
  "commit": "be14b87"
}
